:020000040000FA
:08000000C5EC02F081EF02F0F3
:040008004FEF00F0C6
:02000C000000F2
:080018004EEF00F000000000B3
:1000200000000000000000000000000000000000D0
:10003000000000000004090D12171B2024292D3296
:10004000363B3F43484C5155595E62666B6F737740
:100050007C8084888C9195999DA1A5A9AEB2B6BAF1
:10006000BEC2C6CACED2D6DADEE2E6EAEEF2F6FAD0
:10007000FEFEFEFEFEFEFEFEFEFEFEFEFEFEFEFEA0
:10008000FEFEFEFEFEFEFEFEFEFEFEFEFEFEFEFE90
:0C009000FEFEFEFEFEFEFEFEFEFEFEFE7C
:04009C001000096ED9
:1000A000D8CF0AF0E0CF0BF09EBA5DEF00F00BC0A6
:1000B000E0FF09500AC0D8FF1000AECF00F00E0ECE
:1000C0000C626FEF00F0F70E00626BEF00F00DC0F6
:1000D0000CF08DEF00F000C008F08DEF00F0800E06
:1000E000006063EF02F00C50F9261AD0CCD076D124
:1000F00077D1C4D1C5D1C6D1E6D7C6D1C7D1C8D171
:10010000C9D1CAD1CBD1CCD1CDD1CED1CFD1D0D103
:10011000D1D1D2D1D3D1D4D1D4D19E9A57EF00F03E
:1001200080B004EF01F00EB0C1EF00F0000E1064DB
:10013000A8EF00F0010E1064ADEF00F0020E1064A5
:10014000B2EF00F0030E1064B7EF00F0BCEF00F068
:1001500000C011F00E2A8DEF00F000C012F00E2A40
:100160008DEF00F000C013F00E2A8DEF00F000C0FC
:1001700014F00E2A8DEF00F000C015F00E2A8DEF5E
:1001800000F0000E1064D3EF00F0010E1064DDEFFC
:1001900000F0020E1064E7EF00F0030E1064F1EFC0
:1001A00000F0FAEF00F01150026201EF01F011C00F
:1001B00002F00180079801EF01F01250056201EF93
:1001C00001F012C005F00182079601EF01F0135013
:1001D000066201EF01F013C006F00184079401EFFD
:1001E00001F01450036201EF01F014C003F0079214
:1001F00001EF01F01550046201EF01F015C004F0A9
:1002000007900E6A8DEF00F00EB00CEF01F000C009
:1002100011F00E2A8DEF00F0170E11648DEF00F033
:100220001D0E11608DEF00F000C016F01C0E116065
:100230003FEF01F01B0E11603BEF01F01A0E116051
:1002400034EF01F0190E11602DEF01F016C002F02D
:10025000018007980E6A8DEF00F016C005F001824C
:1002600007960E6A8DEF00F016C006F00184079421
:100270000E6A8DEF00F007920E6A8DEF00F0079086
:100280000E6A8DEF00F080B0ABEF01F00EB074EFAE
:1002900001F0000E10645BEF01F0010E106460EFDE
:1002A00001F0020E106465EF01F0030E10646AEFB6
:1002B00001F06FEF01F000C011F00E2A8DEF00F099
:1002C00000C012F00E2A8DEF00F000C013F00E2ACD
:1002D0008DEF00F000C014F00E2A8DEF00F000C08A
:1002E00015F00E2A8DEF00F0000E0064C1EF00F053
:1002F000000E10648AEF01F0010E106491EF01F01E
:10030000020E106498EF01F0030E10649FEF01F0ED
:10031000A5EF01F011C002F0018007880E6A8DEF91
:1003200000F012C005F0018207860E6A8DEF00F022
:1003300013C006F0018407840E6A8DEF00F014C02C
:1003400003F007820E6A8DEF00F015C004F00780FD
:100350000E6A8DEF00F00EB0B3EF01F000C011F0A7
:100360000E2A8DEF00F0170E11648DEF00F01D0EB8
:1003700011608DEF00F000C016F0000E166416EF4D
:1003800001F01C0E1160EAEF01F01B0E1160E6EFA8
:1003900001F01A0E1160DFEF01F0190E1160D8EFB5
:1003A00001F016C002F0018007880E6A8DEF00F0A0
:1003B00016C005F0018207860E6A8DEF00F016C0A8
:1003C00006F0018407840E6A8DEF00F007820E6A42
:1003D0008DEF00F007800E6A8DEF00F08DEF00F0DA
:1003E0008DEF00F00EB0FAEF01F000C00FF00E2A12
:1003F0008DEF00F0010E0F6203EF02F000C006F077
:1004000001843BEF02F0020E0F6211EF02F03F0E8B
:1004100000640EEF02F007863BEF02F007963BEF19
:1004200002F0030E0F621FEF02F03F0E00641CEF9C
:1004300002F007843BEF02F007943BEF02F0040E5A
:100440000F622DEF02F03F0E00642AEF02F00782E8
:100450003BEF02F007923BEF02F0050E0F623BEF1D
:1004600002F03F0E006438EF02F007803BEF02F02D
:1004700007903BEF02F00E6A8DEF00F08DEF00F079
:100480008DEF00F08DEF00F08DEF00F08DEF00F0BC
:100490008DEF00F08DEF00F08DEF00F08DEF00F0AC
:1004A0008DEF00F08DEF00F08DEF00F08DEF00F09C
:1004B0008DEF00F08DEF00F08DEF00F08DEF00F08C
:1004C000FF008DEF00F0F00E006269EF02F00CC04B
:1004D0000DF0F00E006075EF02F000500F0B106E83
:1004E0000050700BE83A78EF02F000500F0B070F46
:1004F000E8460C6E0E6AF60E006073EF00F08DEFAA
:0205000000F009
:0E050200806A816A826A000E786E766E746E70
:1005100001A09DEF02F002501C0FF66E0800F5508E
:10052000176EC00B186E17461746183A1842184235
:1005300018C078FF17C079FF019001A2AFEF02F059
:100540000550E846176EC00B186E17461746183A46
:100550001842184218C076FF17C077FF019201A415
:10056000C1EF02F00650E846176EC00B186E174632
:100570001746183A1842184218C074FF17C075FF82
:0A058000019407C082FF88EF02F02B
:06058A00000EB86E010E28
:10059000926E000E936EC00E946E020E7F6E800EF1
:1005A0007E6E770E6F6E000E6E6E7A6AFF0E7B6E39
:1005B000AC98AC94AA96AA90B06A090EAF6EAB9CA8
:1005C000AB889D8A9F8AAB8E006A0E6A016A026AB6
:1005D000056A066A076A2E0E0C6E010E106EF70E83
:1005E000086E000EF76E000EF86ED08EF29CF28E42
:0205F0001200F7
:020000040030CA
:0100010002FC
:010002000DF0
:010003003EBE
:010004003CBF
:010005009D5D
:010006008178
:010008000FE8
:01000900C036
:01000A000FE6
:01000B00E014
:01000C000FE4
:01000D0040B2
:00000001FF
