:020000001028C6
:10000800FE00030E83120313A0000408A1000A08CF
:10001800A2007F08A300AB2E112883160313CD017D
:10002800CE01CD26BE00CE26BF00CF26C000D026EA
:10003800C100D126C200D226C300D326C400D426CC
:10004800C500D526C600D626C700D726C800831205
:100058000313E226E600E326E700E426E800E526A7
:10006800E900E626EA00E726FC00E826FD00830111
:10007800E72A831603132808AE002908AF002A08C8
:10008800B00003102F0D300DB1003108B4002B085B
:10009800AE002C08AF002D08B00003102F0D300D56
:1000A800B1003108B3003408031966283308340254
:1000B80003186D283403FF3A3307AE0019302E02B7
:1000C800031C6D282B08A8002C08A9002D08AA00DD
:1000D80008003308031908003408330203187C2881
:1000E8003303FF3A3407AE0019302E020318080014
:1000F8000630AE002E08B200AA1BB217AD1B32178D
:10010800A917FF30A805FF30A9050030AA05AC17CC
:10011800FF30AB05FF30AC050030AD0533083402C5
:100128000318BC2801300310AB0DAC0DAD0DFF3E1C
:10013800031D97280130B302330834060319B72882
:100148000130B202320807390319B728962801305E
:100158000310AA0CA90CA80CFF3E031DAC28013003
:10016800AE002E08B407340833060319E528AB2877
:10017800340833020318E52801300310A80DA90D2F
:10018800AA0DFF3E031DC1280130B402330834060E
:100198000319E1280130B202320807390319E128AE
:1001A800C02801300310AD0CAC0CAB0CFF3E031D96
:1001B800D6280130AE002E08B30734083306031DD5
:1001C800D528B21FF728FF30A806FF30A906FF3050
:1001D800AA060130A807003003180130A90700302B
:1001E80003180130AA07321F0929FF30AB06FF3078
:1001F800AC06FF30AD060130AB0700300318013004
:10020800AC07003003180130AD07B2012808AB076E
:10021800290803110318290A031DAC072A0803112A
:1002280003182A0A031DAD07AD1F2C29FF30AB06A2
:10023800FF30AC06FF30AD060130AB0700300318C5
:100248000130AC07003003180130AD07B201B20A23
:100258002B0883120313A400831603132C0883129C
:100268000313A500831603132D0883120313A60096
:10027800831603133408AE002E0883120313A70055
:10028800831603133208AF002F0883120313A80044
:10029800972483120313240883160313A8008312D8
:1002A8000313250883160313A900831203132608D2
:1002B80083160313AA000800831203133C08C20024
:1002C8003D08C3003E08C4000310430D440DC5009B
:1002D8004508C6004608031D78290030BC000030D8
:1002E800BD000030BE0008003F08C2004008C3003F
:1002F8004108C4000310430D440DC5004508CB0058
:100308004B08031D8E290030BC000030BD000030B2
:10031800BE0008004B087B3EC2004208C6073C08E6
:10032800C2003D08C3003E08C40010300310C40CCE
:10033800C30CC20CFF3E031D9A294208C50045089C
:10034800CB003F08C2004008C3004108C400103079
:100358000310C40CC30CC20CFF3E031DAC29420899
:10036800C5004508CB068030C2004208CB05BD1742
:10037800C017FF30BF05FF30C0050030C105003091
:10038800C7000030C8000030C9000730C20042086A
:10039800CA003C1CDD293F08C707400803110318A1
:1003A800400A031DC807410803110318410A031D29
:1003B800C90701300310BE0CBD0CBC0CFF3E031D69
:1003C800DE2901300310BF0DC00DC10DFF3E031D16
:1003D800E6290130CA02031DCD290930C2004208AE
:1003E800CA003C1C052A3F08C70740080311031828
:1003F800400A031DC807410803110318410A031DD9
:10040800C90701300310BE0CBD0CBC0CFF3E031D18
:10041800062A01300310C90CC80CC70CFF3E031D87
:100428000E2A0130CA02031DF5294708A40048080E
:10043800A5004908A6004608C2004208A7004B08C4
:10044800C3004308A8009724831203132408BC00A0
:100458002508BD002608BE000800831203132F08D4
:10046800B2003008B3003108B4000310330D340D66
:10047800B5003508BA003A08031D492A0030AC0017
:100488000030AD000030AE0008002C08B2002D0886
:10049800B3002E08B4000310330D340DB500350831
:1004A800BB003B08031D5F2A0030AC000030AD00E4
:1004B8000030AE0008000030B7000030B80000304F
:1004C800B90089303B07B2003208BA022F08B200DF
:1004D8003008B3003108B40010300310B40CB30C6A
:1004E800B20CFF3E031D712A3208B5003508BB0067
:1004F8002C08B2002D08B3002E08B40010300310E9
:10050800B40CB30CB20CFF3E031D832A3208B500AD
:100518003508BB068030B2003208BB05B017FF3083
:10052800AF05FF30B0050030B105AD17FF30AC05A1
:10053800FF30AD050030AE051830B2003208B60005
:1005480001300310B70DB80DB90DFF3E031DA52AE4
:100558002E083102031DB62A2D083002031DB62AC3
:100568002C082F02031CC32A2C08AF022D08031CD9
:100578002D0FB0022E08031C2E0AB10237140130C9
:100588000310AF0DB00DB10DFF3E031DC42A01309D
:10059800B602031DA42A3708A4003808A5003908A4
:1005A800A6003A08B2003208A7003B08B300330897
:1005B800A8009724831203132408AC002508AD0073
:1005C8002608AE000800831603134708CC00460827
:1005D800CB003E0883120313AF00831603133F08B2
:1005E80083120313B0008316031340088312031306
:1005F800B10083160313410883120313AC0083165A
:100608000313420883120313AD0083160313430830
:1006180083120313AE003122831203132C08BF0088
:100628002D08C0002E08C100831603134608013E9A
:1006380083120313AC008316031347080318013E03
:10064800003E83120313AD007F26831203132C0888
:10065800BC002D08BD002E08BE00602183120313C4
:100668003C0883160313B500831203133D08831651
:100678000313B600831203133E0883160313B7004F
:100688002124831603133508BB003608BC0037083D
:10069800BD003B0883120313CC00831603133C08E8
:1006A80083120313CD00831603133D08831203132B
:1006B800CE009323831203134D0883160313CA0035
:1006C800831203134C0883160313C9000F168F16E1
:1006D8000F1706309F0085015130831203138500E0
:1006E800FF308316031392004C0883120313A500EE
:1006F800831603134B0883120313A40037268316AB
:1007080003138601831203139210121097151715FD
:1007180012158316031381128B168B17922B8312D3
:1007280003134C08D0004D08D1004E08D200031026
:10073800510D520DD3005308D9005908031DAD2B94
:100748000030CF000030CE000030CD000030CC00AB
:1007580008004C08D0004D08D1004E08D2001730D0
:100768000310D20CD10CD00CFF3E031DB42B500843
:10077800D3005308D400CD17FF30CC05FF30CD058A
:100788000030CE054C08D5004D08D6004E08D700DD
:10079800D8018E30D902D91FEF2B5908803A8F3EE5
:1007A8000318DF2B0030CF000030CE000030CD0022
:1007B8000030CC00080001300310D80CD70CD60C40
:1007C800D50CFF3E031DE02B0130D0005008D9079F
:1007D80003190A2CDF2B18305902031C072C003090
:1007E800CF000030CE000030CD000030CC00080033
:1007F8000130D0000310D50DD60DD70DD80DD00B74
:10080800FE2B0130D9025908031DFC2B540803198B
:10081800182CD509D609D709D809D50A0319D60A33
:100828000319D70A0319D80A5808CF005708CE0069
:100838005608CD005508CC00080083160313350868
:10084800A8003608A9003708AA0035088312031340
:10085800E20083160313360883120313E30083169A
:100868000313370883120313E4006125831203136B
:10087800620883160313A500831203136308831603
:100888000313A60083120313640883160313A70037
:10089800D826831603132508AB002608AC002708C2
:1008A800AD003D20831603132808B8002908B900B5
:1008B8002A08BA003808A8003908A9003A08AA0086
:1008C8003508AB003608AC003708AD003D2083166C
:1008D80003132808B5002908B6002A08B700350808
:1008E80083120313E20083160313360883120313DB
:1008F800E30083160313370883120313E40061250A
:1009080083120313620883160313B50083120313BB
:10091800630883160313B60083120313640883164F
:100928000313B70008008312031327080319A12C27
:10093800260825042404031DB42C0030A40000302C
:10094800A5000030A60008000130A9002908A70763
:1009580001300310A60CA50CA40CFF3E031DAD2C02
:10096800FE3026050319CF2CA82C0130A900290830
:10097800A7070130A407003003180130A50700308D
:1009880003180130A60701300310A60CA50CA40C0F
:10099800FF3E031DC82CFF3026050319DE2CB92C99
:1009A8000130A70201300310A40DA50DA60DFF3ECE
:1009B800031DD72CA51BE42C023027020318D42CC6
:1009C8002718EC2CFF30A4057F30A505FF30A605BD
:1009D8000310A70C2708A900AA01AB0110300310C7
:1009E800A90DAA0DAB0DFF3E031DF32C2908A40485
:1009F8002A08A5042B08A604280803190800A61726
:100A08000800831203136908F40003300310F40C80
:100A1800FF3E031D0A2D74086906F5007508F900E4
:100A28007D08F4007408E9006A08F4007408FD0001
:100A38006808F4007408EA006708F4007408E8001D
:100A48006608F4007408E700831603134808F400E6
:100A5800740883120313E6007C08F40074088316F4
:100A68000313C8007908F40004300310F40DFF3EA6
:100A7800031D392D79087406F5007C08F60001304D
:100A88000310F60DFF3E031D442D0310760D750669
:100A98007C06F7007708FC007D08F4007408F00075
:100AA8007D08BC26013EF5007508F8007C08F400B6
:100AB8007408F0007808BC26080083120313620843
:100AC800A4006308A5006408A600A330E500650833
:100AD800A700FB2583160313A41F7B2D0030831268
:100AE8000313E2000030E3000030E40008000030A7
:100AF8008316031324021530031923020318080070
:100B0800831203136208CC006308CD006408CE008A
:100B18009323831203134F08DD004E08DC004D08B1
:100B2800DB004C08DA00BB25831203135A0883162E
:100B38000313A000831203135B0883160313A10099
:100B4800831203135C0883160313A2002008831280
:100B58000313E20083160313210883120313E3002F
:100B680083160313220883120313E4000800831278
:100B78000313E1018E30DE005E08E000DD1FD12D99
:100B8800DA09DB09DC09DD09DA0A0319DB0A0319CA
:100B9800DC0A0319DD0AE101E10AFF305D050319EA
:100BA800E32D01300310DD0CDC0CDB0CDA0CFF3E0E
:100BB800031DD62D0130DE005E08E007D12D5A084E
:100BC800A4005B08A5005C08A6006008DE005E08BB
:100BD800A7006108DF005F08A800972483120313A9
:100BE8002408DA002508DB002608DC000800831248
:100BF8000313260825042404031D092E270884004E
:100C080083138001840A8001080026087F39A80020
:100C1800A9010310A80DA90D27088400280883132B
:100C28008000840A29088000250D250D0139A800B7
:100C3800A9012708840028088004840A2908800458
:100C48002708840082308007840F00080318000AF0
:100C5800FF00FF307F0780008403260880393F3873
:100C6800A600A513080083120313241C3F2E831229
:100C780003131716422E83120313171201300310A1
:100C8800A50CA40CFF3E031D432E241C4F2E8312DB
:100C980003139716522E8312031397120130031071
:100CA800A50CA40CFF3E031D532E24089500080034
:100CB800701C622E831203131716652E83120313FA
:100CC800171201300310F10CF00CFF3E031D662EC5
:100CD800701C722E831203139716752E831203133A
:100CE800971201300310F10CF00CFF3E031D762E15
:100CF800700895000800831203132C08A4002D081F
:100D0800A500A6018E30AF002F08A700A8019724E0
:100D1800831203132408AC002508AD002608AE0092
:100D28000800831603134B0E0F39F0004C0EF039F0
:100D3800F0044C0E0F39F1005C260525FA00FB0182
:100D48007A0883160313CB007B08CC0008000B1D20
:100D5800AF2E0B119526831203132308FF002208D8
:100D68008A0021088400200E8300FE0E7E0E0900F2
:100D7800F300F201731CC42E7008F1007108F20729
:100D88000310F00D0310F30C7308031DBE2E720838
:100D980008000034DC344334973498344634FF3444
:100DA8000334F0343F3491348316031327082604A0
:100DB8002504031908008030A706080070345D3444
:0A0DC800F4346534C3348F342B3447
:02400E0062EF5F
:00000001FF
