:020000040000FA
:0600000015EF08F01200EC
:020006001200E6
:060008009AEF04F0120063
:01000E0000F1
:01000F0000F0
:020010000000EE
:0400120000000000EA
:06001800F8EF04F01200F5
:02001E000500DB
:100020007D1000008D00000007000000120000009D
:10003000A0000000040000000F000000A400000069
:10004000030000000E000000A900000001000000F5
:0C00500062100000600000001B000000B7
:04005C00D9CFE6FF13
:10006000E1CFD9FFFE0EEA6ADB34FE0BEA36E96E19
:100070006F0EE926000EEA22EECF10F0EFCF11F05E
:10008000FE0EEA6ADB34FE0BEA36E96E690EE926FB
:10009000000EEA22EECF12F0EFCF13F01050125CF8
:1000A000115013581CE2FE0EEA6ADB34FE0BEA36EE
:1000B000E96E690EE926000EEA22EECF10F0EFCFCE
:1000C00011F0FE0EEA6ADB34FE0BEA36E96E6F0EC3
:1000D000E926000EEA2210C0EEFF11C0EDFFE55246
:1000E000E7CFD9FF1200D9CFE6FFE1CFD9FFFD0E50
:1000F000DBCF10F010C011F0106AFE0EEA6ADB349C
:10010000FE0BEA36E96E690EE926000EEA2210C0FF
:10011000EEFF11C0EDFFFE0EDBCFE6FF9FDFE552E5
:10012000E552E7CFD9FF1200D9CFE6FFE1CFD9FFE3
:10013000FE0EDB50EA6A750FE96E000EEA22FD0E34
:10014000DBCFEFFFE552E7CFD9FF1200D9CFE6FFB3
:10015000E1CFD9FFFD0EDB50106E116AD89011501F
:1001600004E6800E105C000E115802E2000E01D071
:10017000010EE66EFE0EDB50EA6A780FE96E000EA5
:10018000EA22E552E750EF6EE552E7CFD9FF1200C1
:10019000D9CFE6FFE1CFD9FFFD0EDBCF10F010C0C5
:1001A00011F0106AFE0EEA6ADB34FE0BEA36E96EE5
:1001B0006F0EE926000EEA2210C0EEFF11C0EDFF1F
:1001C000FE0EDBCFE6FF4ADFE552E552E7CFD9FF6F
:1001D0001200D9CFE6FFE1CFD9FFFE0EEA6ADB3489
:1001E000FE0BEA36E96E600EE926000EEA22EECF3B
:1001F00010F0EFCF11F011C010F0116A1050E5525D
:10020000E7CFD9FF1200D9CFE6FFE1CFD9FFFE0E2D
:10021000DB50EA6A660FE96E000EEA22EF5002E058
:10022000000E01D0010EE552E7CFD9FF1200D9CF61
:10023000E6FFE1CFD9FFFC0EDBCFE9FFFD0EDBCF00
:10024000EAFFEF50116E126AD890125004E6800E49
:10025000115C000E125802E2000E01D0010E106E69
:10026000FE0EDB50EA6A780FE96E000EEA22EF50CC
:10027000105C02E1000E01D0010E0001866F010E3C
:10028000E76EFC0EDBCFE9FFFD0EDBCFEAFFE750A8
:10029000E926000EEA22EFCF10F0FE0EDB50EA6AEC
:1002A000750FE96E000EEA22EF501024876F886BFD
:1002B000000E8823020EE76EFC0EDBCFE9FFFD0E79
:1002C000DBCFEAFFE750E926000EEA22EFCF89F004
:1002D00089C08AF0896BFE0EEA6ADB34FE0BEA36CF
:1002E000E96E690EE926000EEA22EECF10F0EFCF9C
:1002F00011F0000ED8801056FF0E11568951105C77
:100300008A51115803E2896B8A690ED0FE0EEA6A9F
:10031000DB34FE0BEA36E96E690EE926000EEA22AE
:10032000EE508927EE508A23E552E7CFD9FF12001D
:10033000D9CFE6FFE1CFD9FF020EE76EFC0EDBCF8F
:10034000E9FFFD0EDBCFEAFFE750E926000EEA22C7
:10035000EFCF89F089C08AF00001896BFE0EEA6A4E
:10036000DB34FE0BEA36E96E690EE926000EEA225E
:10037000EECF10F0EFCF11F0000ED8801056FF0E28
:1003800011568951105C8A51115803E2896B8A69B0
:100390000ED0FE0EEA6ADB34FE0BEA36E96E690E19
:1003A000E926000EEA22EE508927EE508A23030E3A
:1003B000E76EFC0EDBCFE9FFFD0EDBCFEAFFE75077
:1003C000E926000EEA22EFCF8BF08BC08CF08B6B0E
:1003D000FE0EEA6ADB34FE0BEA36E96E6F0EE926A2
:1003E000000EEA22EECF10F0EFCF11F0000ED88011
:1003F0001056FF0E11568B51105C8C51115803E2B0
:100400008B6B8C690ED0FE0EEA6ADB34FE0BEA368B
:10041000E96E6F0EE926000EEA22EE508B27EE50B1
:100420008C238B51895D8C518A5904E289C08BF0F1
:100430008AC08CF0E552E7CFD9FF1200D9CFE6FF92
:10044000E1CFD9FFFC0EDBCFE6FFFD0EDBCFE6FFF1
:10045000FE0EDBCFE6FFEBDEE552E552E552FE0E87
:10046000EA6ADB34FE0BEA36E96E600EE926000E1E
:10047000EA22EECF10F0EFCF11F000018751105CAF
:100480008851115840E2FE0EDB50EA6A660FE96EB1
:10049000000EEA22EF5037E186510DE0FE0EEA6AC7
:1004A000DB34FE0BEA36E96E600EE926000EEA2226
:1004B000EE6AED6AA8D0FE0EEA6ADB34FE0BEA367D
:1004C000E96E600EE926000EEA22EE50875D106E9E
:1004D000EE508859116EFE0EEA6ADB34FE0BEA36E6
:1004E000E96E600EE926000EEA2210C0EEFF11C090
:1004F000EDFFFE0EDB50EA6A660FE96E000EEA229F
:10050000010EEF6E80D0FE0EEA6ADB34FE0BEA3697
:10051000E96E600EE926000EEA22EECF10F0EFCF72
:1005200011F08751895D126E8A518855136E1050F3
:10053000125C1150135841E2FE0EDB50EA6A660F5E
:10054000E96E000EEA22EF5038E0FE0EEA6ADB3474
:10055000FE0BEA36E96E600EE926000EEA22EE5046
:10056000895D106EEE508A59116E10C085F01050E2
:10057000146E156A1050875D126E15508859136EEF
:100580001250895D106E13508A59116EFE0EEA6A80
:10059000DB34FE0BEA36E96E600EE926000EEA2235
:1005A00010C0EEFF11C0EDFFFE0EDB50EA6A660FD1
:1005B000E96E000EEA22EF6A26D0FE0EDB50EA6AF0
:1005C000660FE96E000EEA22EF500FE0FE0EEA6AB7
:1005D000DB34FE0BEA36E96E600EE926000EEA22F5
:1005E0008751EE268851ED220ED0FE0EEA6ADB34EA
:1005F000FE0BEA36E96E600EE926000EEA2287510C
:10060000EE5E8851ED5AE552E7CFD9FF1200D9CFFF
:10061000E6FFE1CFD9FFFC0EDBCFE6FFFD0EDBCF1F
:10062000E6FFFE0EDBCFE6FF83DEE552E552E55244
:10063000FE0EEA6ADB34FE0BEA36E96E600EE9264E
:10064000000EEA228BC0EEFF8CC0EDFFFE0EDB50E9
:10065000EA6A660FE96E000EEA22010EEF6EE552BD
:10066000E7CFD9FF1200D9CFE6FFE1CFD9FFFE0EC9
:10067000DB50EA6A660FE96E000EEA22EF5002E0F4
:10068000000E01D0010EE66EFE0EDB50EA6A660F28
:10069000E96E000EEA22E552E750EF6EE552E7CF31
:0406A000D9FF12006C
:0C06A400D9CFE6FFE1CFD9FF030EF36EC3
:1006B000FE0EDBCFF4FFF350F45C02E3000E01D03A
:1006C000010EE552E7CFD9FF1200D9CFE6FFE1CF07
:1006D000D9FF040EF36EFE0EDBCFF4FFF350F45C93
:1006E00002E3000E01D0010EE552E7CFD9FF120060
:1006F000020EE66EB0EC07F0E55200019C6FE66A70
:10070000B0EC07F0E55200019D6F030EE66EB0EC11
:1007100007F0E55200019E6F040EE66EB0EC07F0A4
:10072000E55200019F6F1200D9CFE6FFE1CFD9FF5C
:10073000FE0EDBCFE6FFB6DFE55200090DE0D8DFA5
:100740009C0EE66E000EE66EFE0EDBCFE6FF07ECBB
:1007500003F0E552E552E552E552E7CFD9FF12002A
:10076000D9CFE6FFE1CFD9FFFE0EDBCFE6FF9ADF60
:10077000E552000928E0FD0EDBCFE6FFA6DFE552DB
:10078000000921E0FD0EDB50020A14E0030A0AE032
:10079000010A19E1FC0EDBCFE6FFFE0EDBCFE6FF20
:1007A00016D80FD0FC0EDBCFE6FFFE0EDBCFE6FF48
:1007B00027D807D0FC0EDBCFE6FFFE0EDBCFE6FF2F
:1007C00038D8E552E552E552E7CFD9FF1200D9CF2C
:1007D000E6FFE1CFD9FFFE0EDBCFE6FF63DFE55298
:1007E00000090AE0FD0EDBCFE6FFFE0EDBCFE6FFE1
:1007F000A6EC00F0E552E552E552E7CFD9FF120032
:10080000D9CFE6FFE1CFD9FFFE0EDBCFE6FF4ADF0F
:10081000E55200090AE0FD0EDBCFE6FFFE0EDBCF5E
:10082000E6FF94EC00F0E552E552E552E7CFD9FF40
:100830001200D9CFE6FFE1CFD9FFFE0EDBCFE6FFF6
:1008400031DFE55200090AE0FD0EDBCFE6FFFE0EC8
:10085000DBCFE6FF73EC00F0E552E552E552E7CF5F
:10086000D9FF120045DF9C0EE66E000EE66EE66ACA
:100870001EEC02F0E552E552E5529C0EE66E000ECB
:10088000E66E010EE66E1EEC02F0E552E552E55210
:100890009C0EE66E000EE66E020EE66E1EEC02F098
:1008A000E552E552E5521200E66AE9EC00F0E55245
:1008B00000019A6FE66A03EC01F0E55200019B6FBC
:1008C0009AC0E6FFE66EE66A35EC07F0E552E552BF
:1008D000E552010EE66EE9EC00F0E55200019A6F78
:1008E000010EE66E03EC01F0E55200019B6F9AC029
:1008F000E6FFE66E010EE66E35EC07F0E552E552D6
:10090000E552020EE66EE9EC00F0E55200019A6F46
:10091000020EE66E03EC01F0E55200019B6F9AC0F7
:10092000E6FFE66E020EE66E35EC07F0E552E552A4
:04093000E55212007A
:0C093400DACFE4FFE2CFDAFFE9CFE4FF06
:10094000EACFE4FFF6CFE4FFF7CFE4FFF5CFE4FF13
:10095000F3CFE4FFF4CFE4FFFACFE4FF00EE00F0C2
:10096000100EE80403E3EECFE4FFFBD700EE10F037
:10097000060EE80403E3EECFE4FFFBD7E652E8CF30
:1009800094F0D8CF95F0E0CF96F0F0A003D0F0909F
:10099000E66A05D0F0A206D0F092010EE66EE9EC10
:1009A00007F0E55295C0D8FFE55200EE15F0060EAF
:1009B000E80403E3E5CFEDFFFBD700EE0FF0100EE8
:1009C000E80403E3E5CFEDFFFBD7E5CFFAFFE5CF82
:1009D000F4FFE5CFF3FFE5CFF5FFE5CFF7FFE5CF78
:1009E000F6FFE5CFEAFFE5CFE9FFE5CFDAFF11003B
:1009F000DACFE4FFE2CFDAFFE9CFE4FFEACFE4FFAA
:100A0000F6CFE4FFF7CFE4FFF5CFE4FFF3CFE4FF49
:100A1000F4CFE4FFFACFE4FF00EE00F0100EE8049C
:100A200003E3EECFE4FFFBD700EE10F0060EE80480
:100A300003E3EECFE4FFFBD7E652E8CF97F0D8CF41
:100A400098F0E0CF99F0F2A404D0F2946DEC07F0A6
:100A500027D09EAC25D09E9CC450E66EC150030B9F
:100A6000E66ECFEC07F0E552E552C450E66EC15099
:100A7000030BE66ECFEC07F0E552E552C450E66E8C
:100A8000C150030BE66ECFEC07F0E552E552C450BF
:100A9000E66EC150030BE66ECFEC07F0E552E5526F
:100AA00098C0D8FFE55200EE15F0060EE80403E307
:100AB000E5CFEDFFFBD700EE0FF0100EE80403E3E7
:100AC000E5CFEDFFFBD7E5CFFAFFE5CFF4FFE5CFAC
:100AD000F3FFE5CFF5FFE5CFF7FFE5CFF6FFE5CF75
:100AE000EAFFE5CFE9FFE5CFDAFF1100D9CFE6FF56
:100AF000E1CFD9FF040EE126010EDE6EDD6ADECF06
:100B000010F0DDCF11F0FD0EDBCF12F0FE0EDBCFCB
:100B100013F013501118E8AE02D0113404D0105065
:100B2000125C115013581DE3020EDB6A030EDB6AE0
:100B3000020EDBCF10F0030EDBCF11F0D890115076
:100B400004E6010E105C000E115806E2020EDB2ACC
:100B5000030EEEE3DB2AECD7DF2A010ED0E3DB2A1B
:100B6000CED7040EE15C02E2E16AE552E16EE552A5
:100B7000E7CFD9FF1200C6EC06F06AEC07F064EC90
:100B800006F032EC04F054EC04F0640EE66EE66A13
:080B9000ADDFE552E552F3D799
:080B9800786A796A766A776ACF
:100BA000746A756A12003F0E786E7968766E77689F
:100BB000746E75681200320E00018F6F906B120018
:100BC0000001000ED8808F55000E905503E28F076C
:100BD000000E905B000ED8808F55000E905501E3FB
:100BE000000C010C0001915107E0915102E0000E50
:100BF00001D0010E916FDFDF12000001915117E16A
:100C0000915102E0000E01D0010E916FD4DF00017E
:100C10008E2B050E106E0C6E8EC007F023EC08F0C4
:100C200003C08EF003C0E6FF8EEC07F0E552120021
:100C30000001925107E0925102E0000E01D0010E36
:100C4000926FB9DF12000001925110E1925102E05F
:100C5000000E01D0010E926FAEDF00018D2B8D5181
:100C6000030B8D6FE66E9FEC07F0E552120000015A
:100C7000935107E0935102E0000E01D0010E936FF3
:100C80009ADF1200000193511EE1935102E0000E21
:100C900001D0010E936F8FDF00018D5101E1120031
:100CA0008E5101E11200010EE66EB0EC07F0E55244
:100CB000E66E00018E05E66E8D05E66EB0EC03F083
:100CC000E552E552E55212007BDF000901E0120017
:100CD00082A002D087DF01D090DF82A202D0A8DFFD
:100CE00001D0B1DF82A402D037EF06F042EF06F068
:100CF0009268936A3F0E946E816A816A826A1200DA
:100D0000C29AC288F30EC2140C09C26EC280C16AB4
:100D1000C188C06A870EC0143009C06E9A6AE00E9E
:100D20009A1402099A6E3F0E9A1480099A6E996A73
:100D30000F0EB86E9168906AE70EB7141809B76E77
:100D4000B7801200020E7F6E800E7E6E770E6F6E81
:100D50006E6A7A6A7B681200F26A9D6AA06AA36A68
:100D6000F28C9D8C9E9C9F9CF168D80EF06EF28A4E
:100D7000F194D08EF28EF28C1200D58ED59CD59A3D
:100D8000D596F80ED5140209D56E1200B1DFB8DF82
:080D9000D9DFF3DFACEF06F040
:080D98001E0EF66E000EF76E50
:100DA000000EF86E00010900F550806F0900F55043
:100DB000816F03E1806701D03DD00900F5507B6F62
:100DC0000900F5507C6F0900F5507D6F090009009E
:100DD000F550E96E0900F550EA6E090009000900B6
:100DE000F5507E6F0900F5507F6F09000900F6CFBE
:100DF00082F0F7CF83F0F8CF84F07BC0F6FF7CC0A1
:100E0000F7FF7DC0F8FF00017E5302E17F5307E04A
:100E10000900F550EE6E7E07F8E27F07F9D782C031
:100E2000F6FF83C0F7FF84C0F8FF00018007000EC3
:060E3000815BBFD7120038
:0A0E3600D9CFE6FFE1CFD9FFFE0E91
:100E4000DBCFA7F0A7C0A8F00001040EA803F3CFE2
:100E5000A8F0FC0EA817A745E846030BA76F030EE2
:100E6000A717E552E7CFD9FF1200D9CFE6FFE1CFB0
:100E7000D9FFFC0EDBCFE6FFDEDFE552FE0EDB50D6
:100E8000020A1AE0030A0DE0010A20E1FD0EDB5020
:100E9000E8B08180E8A08190A7C078FFA8C079FF62
:100EA00015D0FD0EDB50E8B08184E8A08194A7C086
:100EB00076FFA8C077FF0AD0FD0EDB50E8B0818A2C
:100EC000E8A0819AA7C074FFA8C075FFE552E7CFDC
:040ED000D9FF120034
:0C0ED400829C829E12000001A4511008B4
:100EE00002E2828C07D0A651D880A45502E2827C0F
:100EF00001D0829CA551100802E2828E07D0A65133
:100F0000D880A55502E2827E01D0829EA62BA651F2
:100F10000F0BA66F12000001A66B1200D9CFE6FFDF
:100F2000E1CFD9FFFE0EDB50E8240001A46FE850AA
:100F3000100801E3F0DFE552E7CFD9FF1200D9CF67
:100F4000E6FFE1CFD9FFFE0EDB50E8240001A56FDC
:100F5000E850100801E3DFDFE552E7CFD9FF1200C8
:100F6000D9CFE6FFE1CFD9FF040EF36EFE0EDBCF43
:100F7000F4FFF350F45C07E38050100B01E0010E26
:100F8000800DF35008D0FE0EDB50EA6AA00FE96E28
:100F9000000EEA22EF50E552E7CFD9FF1200D9CF79
:100FA000E6FFE1CFD9FF040EF36EFE0EDBCFF4FFB8
:100FB000F350F45C0AE2FE0EDB50EA6AA00FE96E21
:100FC000000EEA22FD0EDBCFEFFFE552E7CFD9FF9F
:020FD00012000D
:0E0FD200D9CFE6FFE1CFD9FFFE0EDB5004E1E0
:100FE000E66A94EC03F0E552FE0EDB040AE1010E22
:100FF000E66E94EC03F0E552020EE66E94EC03F01C
:0A100000E552E552E7CFD9FF1200D8
:06100A00000EF36E00EE83
:1010100000F0030E01D81200EA6002D0EE6AFCD79D
:0A102000F350E9601200EE6AFCD7FD
:06102A0012EE00F022EEC0
:1010300000F0F86A0F9CCCEC06F003EC00F0BBEC7F
:0610400005F0FBD71200D1
:0A104600036A080EE76ED890073623
:1010500003360C50035C02E3036E072AE72EF7D732
:0210600012007C
:0E10620000000000000000000000FF00FF0082
:0D107000FF000000000000808080010101F1
:03107D0000000070
:04108000000000006C
:020000040030CA
:0100010002FC
:010002000DF0
:010003003EBE
:010004001CDF
:010005009D5D
:010006008178
:010008000FE8
:01000900C036
:01000A000FE6
:01000B00E014
:01000C000FE4
:01000D0040B2
:00000001FF
