:020000040000FA
:0600000054EF05F01200B0
:020006001200E6
:0600080034EF00F01200CD
:02000E000000F0
:070010000000FF0000800169
:0100170000E8
:0600180092EF00F012005F
:02001E000600DA
:10002000CF0A00007300000007000000C90A0000AA
:100030008000000006000000170000008F00000094
:1000400001000000C60A0000860000000300000056
:10005000C40A00008B000000020000000E00000037
:080060006A0000000900000025
:08006800DACFE4FFE2CFDAFF7A
:10007000E9CFE4FFEACFE4FFF6CFE4FFF7CFE4FFF8
:10008000F5CFE4FFF3CFE4FFF4CFE4FFFACFE4FFD2
:1000900000EE06F0020EE80403E3EECFE4FFFBD728
:1000A00000EE00F0060EE80403E3EECFE4FFFBD71A
:1000B000E652E8CF7AF0D8CF7BF0E0CF7CF0F0A02A
:1000C00003D0F090E66A05D0F0A206D0F092010EBF
:1000D000E66E15EC05F0E5527BC0D8FFE55200EE68
:1000E00005F0060EE80403E3E5CFEDFFFBD700EED5
:1000F00007F0020EE80403E3E5CFEDFFFBD7E5CF01
:10010000FAFFE5CFF4FFE5CFF3FFE5CFF5FFE5CF4D
:10011000F7FFE5CFF6FFE5CFEAFFE5CFE9FFE5CF53
:10012000DAFF1100DACFE4FFE2CFDAFFE9CFE4FF34
:10013000EACFE4FFF6CFE4FFF7CFE4FFF5CFE4FF2B
:10014000F3CFE4FFF4CFE4FFFACFE4FF00EE06F0D4
:10015000020EE80403E3EECFE4FFFBD700EE00F06D
:10016000060EE80403E3EECFE4FFFBD7E652E8CF48
:100170007DF0D8CF7EF0E0CF7FF0F2A404D0F294EF
:100180009CEC04F00BD09EAC09D09E9CC450E66E53
:10019000040EE66E06EC05F0E552E5527EC0D8FF8F
:1001A000E55200EE05F0060EE80403E3E5CFEDFFAF
:1001B000FBD700EE07F0020EE80403E3E5CFEDFF06
:1001C000FBD7E5CFFAFFE5CFF4FFE5CFF3FFE5CFAF
:1001D000F5FFE5CFF7FFE5CFF6FFE5CFEAFFE5CF87
:1001E000E9FFE5CFDAFF1100D9CFE6FFE1CFD9FF74
:1001F000040EE126010EDE6EDD6ADECF00F0DDCFFB
:1002000001F0FD0EDBCF02F0FE0EDBCF03F003505A
:100210000118E8AE02D0013404D00050025C015055
:1002200003581DE3020EDB6A030EDB6A020EDBCF0E
:1002300000F0030EDBCF01F0D890015004E6010E70
:10024000005C000E015806E2020EDB2A030EEEE30C
:10025000DB2AECD7DF2A010ED0E3DB2ACED7040E4F
:10026000E15C02E2E16AE552E16EE552E7CFD9FFD7
:10027000120093EC04F099EC04F021EC05F08EEC04
:1002800003F0C5EC02F0C7EC02F0640EE66EE66A1D
:08029000ABDFE552E552F1D7A6
:0802980000016F516D5D705112
:1002A0006E5904E26DC06FF06EC070F01200D9CFCD
:1002B000E6FFE1CFD9FFFE0EDBCF6DF06DC06EF033
:1002C00000016D6BE9DFE552E7CFD9FF1200D9CF0E
:1002D000E6FFE1CFD9FFFE0EDBCF71F0E552E7CFAD
:1002E000D9FF1200D9CFE6FFE1CFD9FFFE0EDB50D8
:1002F000006E016AD890015004E6800E005C000E8A
:10030000015802E2000E01D0010E0001726FE552A9
:10031000E7CFD9FF1200D9CFE6FFE1CFD9FFFE0E1C
:10032000DBCF6FF06FC070F000016F6BB5DFE5528F
:10033000E7CFD9FF12006BC000F00050120000019F
:100340007151006E016A00506A5D01506B591DE2E7
:100350006C511BE1725103E06A6B6B6B12007151BF
:10036000006E016A6A51005C6A6F6B5101586B6FD5
:10037000010E6C6FE66AE66EE66E19EC04F0E5526B
:10038000E552E552E66AE66A39D07151026E036AB7
:1003900002506D5D006E03506E59016E6A51005C33
:1003A0006B51015833E26C5131E06A516D5D006E62
:1003B0006E516B55016E00C08DF07151026E036A73
:1003C00000010050046E056A0050025C006E05508A
:1003D0000358016E005000016D5D6A6F01506E5947
:1003E0006B6F6C6BE66AE66A010EE66E19EC04F060
:1003F000E552E552E552E66A010EE66E020EE66E41
:1004000019EC04F0E552E552E55212006C5108E097
:100410007151006E016A00506A2701506B2312006F
:100420007151006E016A00506A5F01506B5B1200EF
:100430006FC06AF070C06BF00001010E6C6F1200AB
:1004400000016C5102E0000E01D0010E6C6F120031
:100450001200D9CFE6FFE1CFD9FF010EF36EFE0EF9
:10046000DBCFF4FFF350F45C02E3000E01D0010E89
:10047000E552E7CFD9FF1200D9CFE6FFE1CFD9FF90
:10048000030EF36EFE0EDBCFF4FFF350F45C02E3D9
:10049000000E01D0010EE552E7CFD9FF1200D9CFEF
:1004A000E6FFE1CFD9FFFE0EDBCFE6FFD2DFE5525C
:1004B000000928E0FD0EDBCFE6FFDEDFE552000994
:1004C00021E0FD0EDB50020A14E0030A0AE0010AF3
:1004D00019E1FC0EDBCFE6FFFE0EDBCFE6FF16D800
:1004E0000FD0FC0EDBCFE6FFFE0EDBCFE6FF23D8FE
:1004F00007D0FC0EDBCFE6FFFE0EDBCFE6FF30D8E9
:10050000E552E552E552E7CFD9FF1200D9CFE6FF19
:10051000E1CFD9FFFE0EDBCFE6FF9BDFE5520009FE
:1005200006E0FD0EDBCFE6FF72EC01F0E552E5528E
:10053000E7CFD9FF1200D9CFE6FFE1CFD9FFFE0EFA
:10054000DBCFE6FF86DFE552000906E0FD0EDBCFDC
:10055000E6FF67EC01F0E552E552E7CFD9FF120064
:10056000D9CFE6FFE1CFD9FFFE0EDBCFE6FF71DF8B
:10057000E552000906E0FD0EDBCFE6FF57EC01F087
:10058000E552E552E7CFD9FF12009FEF01F09BEC57
:1005900001F000018E6FE66EE8507F0802E3000E66
:1005A00001D0010EE66EE66A19EC04F0E552E55260
:1005B000E5528EC0E6FF00018E517F0802E3000E77
:1005C00001D0010EE66E010EE66E19EC04F0E55264
:1005D000E552E5528EC0E6FF00018E517F0802E32E
:1005E000000E01D0010EE66E020EE66E19EC04F06C
:0805F000E552E552E55212004C
:0805F800786A796A766A776A75
:10060000746A756A12003F0E786E7968766E776844
:10061000746E756812000001F40E756F010E766F2E
:1006200012000001000ED8807555000E765503E2C9
:100630007507000E765B000ED8807555000E765556
:1006400001E3000C010C0001775107E0775102E053
:10065000000E01D0010E776FDEDF1200000177512E
:1006600010E1775102E0000E01D0010E776FD3DF69
:100670000001742B7451030B746FE66EBDEC04F033
:10068000E55212000001785107E0785102E0000EB7
:1006900001D0010E786FBFDF12000001785110E128
:1006A000785102E0000E01D0010E786FB4DF000136
:1006B000732B7351030B736FE66ECEEC04F0E552AF
:1006C00012000001795107E0795102E0000E01D0DB
:1006D000010E796FA0DF1200000179511EE17951FE
:1006E00002E0000E01D0010E796F95DF0001735119
:1006F000000813E2745101E11200040EE66EDFEC13
:1007000004F0E552E66E00017405E66E7305E66ED0
:100710004FEC02F0E552E552E552120082A005D0FE
:1007200080DF000906E18FDF04D07BDF000901E1F3
:1007300095DF82A205D075DF000906E1A3DF04D0B2
:1007400070DF000901E1A9DF82A405D06ADF00099A
:1007500006E161EF03F065DF000901E1BDDF120092
:100760001E0EF66E000EF76E000EF86E0001090008
:10077000F550656F0900F550666F03E1656701D0BC
:100780003DD00900F550606F0900F550616F090018
:10079000F550626F09000900F550E96E0900F55047
:1007A000EA6E090009000900F550636F0900F55071
:1007B000646F09000900F6CF67F0F7CF68F0F8CF53
:1007C00069F060C0F6FF61C0F7FF62C0F8FF00018A
:1007D000635302E1645307E00900F550EE6E6307CE
:1007E000F8E26407F9D767C0F6FF68C0F7FF69C091
:0E07F000F8FF00016507000E665BBFD7120020
:0207FE00D9CF51
:10080000E6FFE1CFD9FFFE0EDBCF89F089C08AF089
:100810000001040E8A03F3CF8AF0FC0E8A17894583
:10082000E846030B896F030E8917E552E7CFD9FF1E
:100830001200D9CFE6FFE1CFD9FFFC0EDBCFE6FFF8
:10084000DEDFE552FE0EDB50020A1AE0030A0DE07D
:10085000010A20E1FD0EDB50E8B08180E8A0819024
:1008600089C078FF8AC079FF15D0FD0EDB50E8B053
:100870008184E8A0819489C076FF8AC077FF0AD07E
:10088000FD0EDB50E8B0818AE8A0819A89C074FF30
:0C0890008AC075FFE552E7CFD9FF1200C7
:04089C009268936A61
:1008A0003F0E946E816A816A826A1200C29AC2986F
:1008B000F30EC2140009C26EC280C16AC06A9A6A8D
:1008C000E00E9A1402099A6E996A010EB86E916848
:1008D000906AE70EB7141809B76EB7801200020EBF
:1008E0007F6E800E7E6E770E6F6E6E6A7A6A7B68A0
:1008F0001200F26A9D6AA06AA36AF28C9D8C9E9C8B
:100900009F9CF168D80EF06EF28AF194D08EF28E30
:10091000F28C1200D58ED59CD59AD596F80ED514AA
:100920000209D56E1200BADFC1DFD9DFF3DF79EF3C
:0209300004F0D1
:0E093200829C829E120000018651100802E293
:10094000828C07D08851D880865502E2827C01D003
:10095000829C8751100802E2828E07D08851D8808D
:10096000875502E2827E01D0829E882B88510F0B30
:10097000886F12000001886B1200D9CFE6FFE1CF2B
:10098000D9FFFE0EDB50E8240001866FE850100806
:1009900001E3F0DFE552E7CFD9FF1200D9CFE6FF40
:1009A000E1CFD9FFFE0EDB50E8240001876FE8504D
:0E09B000100801E3DFDFE552E7CFD9FF1200A8
:0209BE00D9CF8F
:1009C000E6FFE1CFD9FFFE0EDB50040A19E0070A6B
:1009D00012E0010A0CE0030A06E0010A13E180506C
:1009E000020B10E00BD08050040B0CE007D08050BD
:1009F000080B08E003D08050100B04E0010E02D079
:100A000000018F51E552E7CFD9FF1200D9CFE6FFA1
:100A1000E1CFD9FFFE0EDB50040A03E1FD0EDBCF70
:0A0A20008FF0E552E7CFD9FF120076
:060A2A00D9CFE6FFE1CF89
:100A3000D9FFFE0EDB50FE0EDB04E552E7CFD9FFF7
:100A400012001200D9CFE6FFE1CFD9FFFE0EDB5036
:100A5000010A07E0010A09E18250100B06E0010ECD
:100A600004D08250200B01E0010EE552E7CFD9FF00
:100A70001200D9CFE6FFE1CFD9FFFE0EDBCF85F024
:080A8000E552E7CFD9FF120097
:080A8800000EF36E00EE00F019
:100A9000030E01D81200EA6002D0EE6AFCD7F350D0
:080AA000E9601200EE6AFCD7C8
:080AA80012EE00F022EE00F056
:100AB000F86A079CB0EC03F003EC00F039EC01F0AD
:040AC000FBD712004E
:020AC40000012F
:030AC6000000002D
:060AC90000000000000027
:010ACF000026
:060AD00000000000000020
:020000040030CA
:0100010002FC
:010002000DF0
:010003003EBE
:010004001CDF
:010005009D5D
:010006008178
:010008000FE8
:01000900C036
:01000A000FE6
:01000B00E014
:01000C000FE4
:01000D0040B2
:00000001FF
