:020000040000FA
:0800000009EC01F03DEF01F0F5
:040008004FEF00F0C6
:02000C000000F2
:080018004EEF00F000000000B3
:1000200000000000000000000000000000000000D0
:10003000000000000004090D12171B2024292D3296
:10004000363B3F43484C5155595E62666B6F737740
:100050007C8084888C9195999DA1A5A9AEB2B6BAF1
:10006000BEC2C6CACED2D6DADEE2E6EAEEF2F6FAD0
:10007000FEFEFEFEFEFEFEFEFEFEFEFEFEFEFEFEA0
:10008000FEFEFEFEFEFEFEFEFEFEFEFEFEFEFEFE90
:0C009000FEFEFEFEFEFEFEFEFEFEFEFE7C
:04009C0010000C6ED6
:1000A000D8CF0DF0E0CF0EF09EBA5DEF00F00EC09D
:1000B000E0FF0C500DC0D8FF1000AECF00F0F80EDE
:1000C00000626DEF00F0092A0A2A030E0962A5EF0B
:1000D00000F0072A096AA5EF00F0FA0E006275EF3A
:1000E00000F0076A096AA5EF00F0A5EF00F00E0E18
:1000F0000F6287EF00F0F70E006283EF00F010C090
:100100000FF0A5EF00F000C00BF0A5EF00F0800E9F
:100110000060EBEF00F00F50F9261AD01BD01CD076
:100120001ED020D022D024D026D028D02AD02CD027
:100130002ED030D032D034D036D038D03AD03CD097
:100140003ED040D042D044D044D09E9A57EF00F0E9
:10015000A5EF00F0A5EF00F00778A5EF00F0077815
:10016000A5EF00F00778A5EF00F00778A5EF00F005
:100170000778A5EF00F00778A5EF00F00778A5EF66
:1001800000F00776A5EF00F00776A5EF00F00778FE
:10019000A5EF00F00778A5EF00F00778A5EF00F0D5
:1001A0000778A5EF00F00776A5EF00F00778A5EF38
:1001B00000F00778A5EF00F00778A5EF00F00778CA
:1001C000A5EF00F00778A5EF00F00778A5EF00F0A5
:1001D000FF00A5EF00F0F00E0062F1EF00F00FC09D
:1001E00010F0F00E0060FDEF00F000500F0B136EEA
:1001F0000050700BE83A00EF01F000500F0B070FB2
:10020000E8460F6E116AF60E00608BEF00F0A5EF66
:0202100000F0FC
:0E021200000EB86E010E926E000E936EC00EBE
:10022000946E020E7F6E800E7E6E770E6F6E000EE5
:100230006E6E7A6AFF0E7B6EAC98AC94AA96AA900A
:10024000B06A090EAF6EAB9CAB889D8A9F8AAB8E5D
:10025000006A116A016A026A056A066A076A2E0E56
:100260000F6E010E136EF70E0B6E000EF76E000E82
:0A027000F86ED08EF29CF28E1200A0
:06027A00806A816A826ABD
:10028000000E786E766E746E0750E846FE0B086EB0
:100290000A50E842E842010B0824826E44EF01F064
:020000040030CA
:0100010002FC
:010002000DF0
:010003003EBE
:010004003CBF
:010005009D5D
:010006008178
:010008000FE8
:01000900C036
:01000A000FE6
:01000B00E014
:01000C000FE4
:01000D0040B2
:00000001FF
