:020000040000FA
:080000007FEC01F02DEF01F08F
:040008005BEF00F0BA
:02000C000000F2
:080018005AEF00F0000411256D
:100020003F5E7FA0BFD9EDFAFFFAEDD9BFA07F5E9A
:100030003F2511040002091525384E667F98B0C689
:10004000D9E9F5FCFFFCF5E9D9C6B0987F664E38D2
:1000500025150902000001020406090D11151A1FD9
:10006000252B31383F474E565E666E777F879098D6
:10007000A0A8B0B7BFC6CDD3D9DFE4E9EDF1F5F85C
:10008000FAFCFDFEFFFEFDFCFAF8F5F1EDE9E4DF18
:10009000D9D3CDC6BFB7B0A8A09890877F776E663A
:1000A0005E564E473F38312B251F1A15110D090694
:0400B0000402010045
:0C00B40010000F6ED8CF10F0E0CF11F05C
:1000C0009EBA69EF00F011C0E0FF0F5010C0D8FFDA
:1000D0001000AECF00F0F80E00628EEF00F0092A9B
:1000E0000D2A030E096277EF00F0072A096A0A2A2F
:1000F000180E0A627DEF00F00A6A01820B2A200EB8
:100100000B6284EF00F00B6A01840C2A600E0C6213
:100110008BEF00F00C6A0180C9EF00F0FA0E00626C
:1001200099EF00F0076A096A0A6A0B6A0C6AC9EF5C
:1001300000F0C9EF00F00E0E1262ABEF00F0F70E08
:100140000062A7EF00F013C012F0C9EF00F000C08A
:100150000EF0C9EF00F0800E00600FEF01F01250BA
:10016000F9261AD01BD01CD01ED020D022D024D0EB
:1001700026D028D02AD02CD02ED030D032D034D097
:1001800036D038D03AD03CD03ED040D042D044D007
:1001900044D09E9A63EF00F0C9EF00F0C9EF00F081
:1001A0000778C9EF00F00778C9EF00F00778C9EFCA
:1001B00000F00778C9EF00F00778C9EF00F0077882
:1001C000C9EF00F00778C9EF00F00776C9EF00F03B
:1001D0000776C9EF00F00778C9EF00F00778C9EF9C
:1001E00000F00778C9EF00F00778C9EF00F0077654
:1001F000C9EF00F00778C9EF00F00778C9EF00F009
:100200000778C9EF00F00778C9EF00F00778C9EF69
:1002100000F00778C9EF00F0FF00C9EF00F0F00E22
:10022000006215EF01F012C013F0F00E006021EF34
:1002300001F000500F0B166E0050700BE83A24EFDF
:1002400001F000500F0B070FE846126E146AF60E0D
:0A0250000060AFEF00F0C9EF00F00E
:06025A00806A816A826ADD
:10026000000E786E766E746E01A049EF01F00C50AE
:10027000540FF66E0800F5501D6EC00B1E6E1D4625
:100280001D461E3A1E421E421EC078FF1DC079FF49
:10029000019001A25EEF01F00A501C0FF66E0800FB
:1002A000F5501D6EC00B1E6E1D461D461E3A1E42A9
:1002B0001E421EC076FF1DC077FF019201A473EF9E
:1002C00001F00B50340FF66E0800F5501D6EC00B98
:1002D0001E6E1D461D461E3A1E421E421EC074FF63
:1002E0001DC075FF01940750E846FE0B086E0D50C7
:0E02F000E842E842010B0824826E34EF01F070
:0202FE00000EF0
:10030000B86E010E926E000E936EC00E946E020EC9
:100310007F6E800E7E6E770E6F6E000E6E6E7A6A46
:10032000FF0E7B6EAC98AC94AA96AA90B06A090EA8
:10033000AF6EAB9CAB889D8A9F8AAB8E006A146AB5
:10034000016A026A056A066A076A2E0E126E010EBB
:10035000166EF70E0E6E000EF86E000EF76ED08E53
:06036000F29CF28E120077
:020000040030CA
:0100010002FC
:010002000DF0
:010003003EBE
:010004003CBF
:010005009D5D
:010006008178
:010008000FE8
:01000900C036
:01000A000FE6
:01000B00E014
:01000C000FE4
:01000D0040B2
:00000001FF
