:020000040000FA
:06000000E8EF05F012001C
:020006001200E6
:06000800B8EF01F0120048
:01000E0010E1
:01000F0000F0
:020010000000EE
:0100120000ED
:0400130000000000E9
:0600180016EF02F01200D9
:02001E000500DB
:10002000080C0000CD0000000700000013000000D5
:10003000DA0000000400000012000000E4000000EC
:10004000010000000F000000DE00000003000000BF
:0C0050000E000000E300000001000000B2
:04005C00D9CFE6FF13
:10006000E1CFD9FF020EE126DF6A030EDF5C3AE240
:10007000010EDB6A100EF36E010EDBCFF4FFF350BE
:10008000F45C27E2DF50100DF3CF10F0F4CF11F045
:10009000600E1026000E1122010EDB501024E96EB6
:1000A000000E1120EA6EEF6ADF50100DF3CF10F052
:1000B000F4CF11F0900E1026000E1122010EDB502D
:1000C0001024E96E000E1120EA6EEF6A010EDB2AA1
:1000D000D1D7DF50EA6AC00FE96E000EEA22EF6A5C
:1000E000DF2AC3D7DF6A030EDF5C0EE2DF50100D9C
:1000F000F3CFE9FFF4CFEAFF600EE926000EEA2213
:10010000010EEF6EDF2AEFD7FE0EDBCFE3F0020E1B
:10011000E15C02E2E16AE552E16EE552E7CFD9FF28
:100120001200D9CFE6FFE1CFD9FF030EF36EFE0E2A
:10013000DBCFF4FFF350F45C02E3000E01D0010EBC
:10014000E552E7CFD9FF1200D9CFE6FFE1CFD9FFC3
:10015000FE0EDBCFE6FFE5DFE552000942E0FD0ED3
:10016000DB5021E0FE0EDB50EA6AC00FE96E000EA4
:10017000EA22EF5000080EE30001E305E66EFE0EF2
:10018000DB50EA6AC00FE96E000EEA22E552E75042
:10019000EF6E27D0FE0EDB50EA6AC00FE96E000E4C
:1001A000EA22EF061ED0FE0EDB50EA6AC00FE96EAF
:1001B000000EEA22EFCF10F00001E305105C09E326
:1001C000FE0EDB50EA6AC00FE96E000EEA22EF6A0B
:1001D00008D0FE0EDB50EA6AC00FE96E000EEA227C
:1001E000EF2AE552E7CFD9FF1200D9CFE6FFE1CFE2
:1001F000D9FFFE0EDBCFE6FF94DFE552000908E0F1
:10020000FE0EDB50EA6AC00FE96E000EEA22EF6ACA
:10021000E552E7CFD9FF1200D9CFE6FFE1CFD9FFF2
:10022000FE0EDBCFE6FF7DDFE552000902E1000EA6
:100230001AD0FE0EDB50100DF3CF10F0F4CF11F0FA
:10024000600E1026000E1122FE0EDB50EA6AC00F6F
:10025000E96E000EEA22EF500F011024E96E000E45
:100260001120EA6EEF50E552E7CFD9FF1200D9CF47
:10027000E6FFE1CFD9FFFE0EDBCFE6FF52DFE5520E
:1002800000091CE0FE0EDB50100DF3CF10F0F4CF90
:1002900011F0600E1026000E1122FE0EDB50EA6AED
:1002A000C00FE96E000EEA22EF500F011024E96E34
:1002B000000E1120EA6EFD0EDBCFEFFFE552E7CF17
:1002C000D9FF1200D9CFE6FFE1CFD9FFFE0EDBCF79
:1002D000E6FF27DFE552000902E1000E1AD0FE0E0C
:1002E000DB50100DF3CF10F0F4CF11F0900E10266C
:1002F000000E1122FE0EDB50EA6AC00FE96E000EFE
:10030000EA22EF500F011024E96E000E1120EA6E70
:10031000EF50E552E7CFD9FF1200D9CFE6FFE1CF8A
:10032000D9FFFE0EDBCFE6FFFCDEE55200091CE044
:10033000FE0EDB50100DF3CF10F0F4CF11F0900E45
:100340001026000E1122FE0EDB50EA6AC00FE96E85
:10035000000EEA22EF500F011024E96E000E11206A
:10036000EA6EFD0EDBCFEFFFE552E7CFD9FF1200BB
:10037000DACFE4FFE2CFDAFFE9CFE4FFEACFE4FF30
:10038000F6CFE4FFF7CFE4FFF5CFE4FFF3CFE4FFD0
:10039000F4CFE4FFFACFE4FF00EE00F0100EE80423
:1003A00003E3EECFE4FFFBD700EE10F0040EE80409
:1003B00003E3EECFE4FFFBD7E652E8CFD4F0D8CF8B
:1003C000D5F0E0CFD6F0F0A003D0F090E66A05D0EB
:1003D000F0A206D0F092010EE66ECBEC02F0E552F0
:1003E000D5C0D8FFE55200EE13F0040EE80403E395
:1003F000E5CFEDFFFBD700EE0FF0100EE80403E3AE
:10040000E5CFEDFFFBD7E5CFFAFFE5CFF4FFE5CF72
:10041000F3FFE5CFF5FFE5CFF7FFE5CFF6FFE5CF3B
:10042000EAFFE5CFE9FFE5CFDAFF1100DACFE4FF1D
:10043000E2CFDAFFE9CFE4FFEACFE4FFF6CFE4FF53
:10044000F7CFE4FFF5CFE4FFF3CFE4FFF4CFE4FF11
:10045000FACFE4FF00EE00F0100EE80403E3EECF65
:10046000E4FFFBD700EE10F0040EE80403E3EECF48
:10047000E4FFFBD7E652E8CFD7F0D8CFD8F0E0CFF3
:10048000D9F0F2A404D0F2945FEC05F00BD09EAC4E
:1004900009D09E9CC450E66E040EE66EC9EC05F0D1
:1004A000E552E552D8C0D8FFE55200EE13F0040E35
:1004B000E80403E3E5CFEDFFFBD700EE0FF0100EED
:1004C000E80403E3E5CFEDFFFBD7E5CFFAFFE5CF87
:1004D000F4FFE5CFF3FFE5CFF5FFE5CFF7FFE5CF7D
:1004E000F6FFE5CFEAFFE5CFE9FFE5CFDAFF110040
:1004F000D9CFE6FFE1CFD9FF040EE126010EDE6E73
:10050000DD6ADECF10F0DDCF11F0FD0EDBCF12F093
:10051000FE0EDBCF13F013501118E8AE02D01134E9
:1005200004D01050125C115013581DE3020EDB6A08
:10053000030EDB6A020EDBCF10F0030EDBCF11F0EF
:10054000D890115004E6100E105C270E115806E2E8
:10055000020EDB2A030EEEE3DB2AECD7DF2A010EC4
:10056000D0E3DB2ACED7040EE15C02E2E16AE55279
:10057000E16EE552E7CFD9FF120056EC05F0100E00
:10058000E66E2EEC00F0E5525CEC05F055EC03F065
:0605900051EC04F0FBD762
:0A059600D9CFE6FFE1CFD9FFE6520E
:1005A000FE0EDB5029E1E66AA2EC05F0E5520009F7
:1005B00004E0E66AF5EC00F00AD0020EE66EA2EC6A
:1005C00005F0E552E66EE66AA4EC00F0E552E5526D
:1005D000E66A62EC01F0E552E66EE66A0CEC01F0C8
:1005E000E552E66EE66ADCEC04F0E552E552E552CF
:1005F0000001640EDC6FDA6BFE0EDB0451E1010ECC
:10060000E66EA2EC05F0E55200090AE0010EE66E86
:10061000F5EC00F0E552020EE66EF5EC00F015D0B8
:10062000030EE66EA2EC05F0E552DF6EDFCFE6FFCB
:10063000010EE66EA4EC00F0E552E552DFCFE6FFD6
:10064000020EE66EA4EC00F0E552E552010EE66EF5
:1006500062EC01F0E552E66E010EE66E0CEC01F084
:10066000E552E66E010EE66EDCEC04F0E552E55272
:10067000E552020EE66E62EC01F0E552E66E020E05
:10068000E66E0CEC01F0E552E66E020EE66EDCEC76
:1006900004F0E552E552E5520001DB6B640EDD6FBC
:1006A000E552E552E7CFD9FF12000001DA5114E11B
:1006B000DC51000802E2DC070FD0E66A62EC01F0D0
:1006C000E552E66EE66AE66ADCEC04F0E552E552D5
:1006D000E5520001010EDA6FDB5124E1DD51000823
:1006E00002E2DD071200010EE66E62EC01F0E55257
:1006F000E66EE66A010EE66EDCEC04F0E552E552C9
:10070000E552020EE66E62EC01F0E552E66EE66A34
:10071000020EE66EDCEC04F0E552E552E552000113
:10072000010EDB6F1200D9CFE6FFE1CFD9FFFE0E3D
:10073000DB50010A07E0010A09E18250100B06E0D4
:10074000010E04D08250200B01E0010EE552E7CFEC
:04075000D9FF1200BB
:0C075400786A796A766A776A746A756A56
:1007600012003F0E786E7968766E7768746E7568E1
:1007700012000001F40ECF6F010ED06F12000001C5
:10078000000ED880CF55000ED05503E2CF07000EE3
:10079000D05B000ED880CF55000ED05501E3000C81
:1007A000010C0001D15107E0D15102E0000E01D04F
:1007B000010ED16FDEDF12000001D15128E1D151CD
:1007C00002E0000E01D0010ED16FD3DF0001CE2B6D
:1007D000030E106E0C6ECEC007F0F6EC05F003C0F1
:1007E000CEF000010350020A0DE0030A05E0010A01
:1007F00001E01200E66A02D0630EE66E80EC05F0BE
:10080000E5521200030EE66E80EC05F0E552120090
:100810000001D25107E0D25102E0000E01D0010EDA
:10082000D26FA7DF12000001D25110E1D25102E0D5
:10083000000E01D0010ED26F9CDF0001CD2BCD51F7
:10084000030BCD6FE66E91EC05F0E552120000014E
:10085000D35107E0D35102E0000E01D0010ED36F57
:1008600088DF120086DF0001CD51000819E2020E78
:10087000CE5D09E2CEC0E6FFCD05E66E37EC01F0B5
:10088000E552E5521200040EE66EA2EC05F0E552C8
:10089000E66E0001CD05E66E8DEC01F0E552E55205
:1008A000120082A005D06BDF000906E17ADF04D0D8
:1008B00066DF000901E180DF82A205D060DF000968
:1008C00006E1A6DF04D05BDF000901E1ACDF82A412
:1008D00005D055DF000906E127EF04F050DF0009DD
:0608E00001E1C0DF12007F
:0A08E6001E0EF66E000EF76E000EF7
:1008F000F86E00010900F550C86F0900F550C96F86
:1009000003E1C86701D03DD00900F550C36F09006D
:10091000F550C46F0900F550C56F09000900F55086
:10092000E96E0900F550EA6E090009000900F5506A
:10093000C66F0900F550C76F09000900F6CFCAF06D
:10094000F7CFCBF0F8CFCCF0C3C0F6FFC4C0F7FFB1
:10095000C5C0F8FF0001C65302E1C75307E0090014
:10096000F550EE6EC607F8E2C707F9D7CAC0F6FF22
:10097000CBC0F7FFCCC0F8FF0001C807000EC95B71
:04098000BFD71200CB
:0C098400D9CFE6FFE1CFD9FFFE0EDBCF9C
:10099000E1F0E1C0E2F00001040EE203F3CFE2F087
:1009A000FC0EE217E145E846030BE16F030EE11789
:1009B000E552E7CFD9FF1200D9CFE6FFE1CFD9FF4B
:1009C000FC0EDBCFE6FFDEDFE552FE0EDB50020A57
:1009D0001AE0030A0DE0010A20E1FD0EDB50E8B049
:1009E0008180E8A08190E1C078FFE2C079FF15D056
:1009F000FD0EDB50E8B08184E8A08194E1C076FF71
:100A0000E2C077FF0AD0FD0EDB50E8B0818AE8A093
:100A1000819AE1C074FFE2C075FFE552E7CFD9FFCC
:020A20001200C2
:0E0A22009268936A3F0E946E816A816A826ABE
:100A30001200C29AC298F30EC2140009C26EC2809C
:100A4000C16AC06A9A6AE00E9A1402099A6E996A9B
:100A5000010EB86E9168906AE70EB7141809B76E68
:100A6000B7801200020E7F6E800E7E6E770E6F6E64
:100A70006E6A7A6A7B681200F26A9D6AA06AA36A4B
:100A8000F28C9D8C9E9C9F9CF168D80EF06EF28A31
:100A9000F194D08EF28EF28C1200D58ED59CD59A20
:100AA000D596F80ED5140209D56E1200BADFC1DF53
:080AB000D9DFF3DF3CEF05F094
:080AB800829C829E12000001E5
:100AC000DE51100802E2828C07D0E051D880DE555A
:100AD00002E2827C01D0829CDF51100802E2828E09
:100AE00007D0E051D880DF5502E2827E01D0829E9D
:100AF000E02BE0510F0BE06F12000001E06B1200E1
:100B0000D9CFE6FFE1CFD9FFFE0EDB50E82400018C
:100B1000DE6FE850100801E3F0DFE552E7CFD9FFC0
:100B20001200D9CFE6FFE1CFD9FFFE0EDB50E8245B
:100B30000001DF6FE850100801E3DFDFE552E7CF87
:040B4000D9FF1200C7
:0C0B4400D9CFE6FFE1CFD9FFFE0EDB5059
:100B5000040A19E0070A12E0010A0CE0030A06E0A1
:100B6000010A13E18050020B10E00BD08050040BFF
:100B70000CE007D08050080B08E003D08050100B29
:100B800004E0010E02D00001E451E552E7CFD9FFA5
:100B90001200D9CFE6FFE1CFD9FFFE0EDB50040AE9
:100BA00003E1FD0EDBCFE4F0E552E7CFD9FF120001
:100BB000000EF36E00EE00F0030E01D81200EA60A2
:100BC00002D0EE6AFCD7F350E9601200EE6AFCD75F
:100BD00012EE00F022EE00F0F86A0F9C73EC04F0C5
:0C0BE00003EC00F0BDEC02F0FBD71200AB
:040BEC00036A080E82
:100BF000E76ED890073603360C50035C02E3036EB1
:080C0000072AE72EF7D71200C6
:070C080000000000000000E5
:020000040030CA
:0100010002FC
:010002000DF0
:010003003EBE
:010004001CDF
:010005009D5D
:010006008178
:010008000FE8
:01000900C036
:01000A000FE6
:01000B00E014
:01000C000FE4
:01000D0040B2
:00000001FF
