:020000040000FA
:060000009AEF03F012006C
:020006001200E6
:0600080048EF02F01200B7
:02000E000200EE
:1000100052070000D201000002000000500700005B
:08002000D00100000200000005
:08002800D9CFE6FFE1CFD9FFBB
:10003000040EE126DE6ADD6ADECF14F0DDCF15F0B6
:10004000030E145C000E15584AE2020EDB6A030E22
:10005000DB6A020EDBCF14F0030EDBCF15F0200EAF
:10006000145C000E155826E2DECF14F0DDCF15F03B
:10007000060ED89014361536E806FBE1000E14265D
:10008000010E1522020E086E096ADBCF0DF0030E79
:10009000DBCF0EF06CEC03F014500624E96E155023
:1000A0000720EA6EEE6AED6A020EDB2A030ED1E348
:1000B000DB2ACFD7DECFE9FFDDCFEAFF010ED890F4
:1000C000E936EA36E806FBE1C00EE926010EEA222F
:1000D000EE6AED6ADF2A010EAFE3DB2AADD7DE6AF6
:1000E000DD6ADECF14F0DDCF15F0030E145C000ED8
:1000F000155815E2DECFE9FFDDCFEAFF060ED890F6
:10010000E936EA36E806FBE1000EE926010EEA22AE
:10011000010EEE6EED6ADF2AE4E3DB2AE2D7FD0E84
:10012000DBCFD0F1FE0EDBCFD1F1040EE15C02E2B9
:10013000E16AE552E16EE552E7CFD9FF1200D9CF6F
:10014000E6FFE1CFD9FFFD0EDBCF16F0FE0EDBCFD1
:1001500017F0030E165C000E175802E2000E01D0D5
:10016000010E146E156A14BE156814C0F3FF15C095
:10017000F4FFE552E7CFD9FF1200D9CFE6FFE1CF78
:10018000D9FFFD0EDBCFE6FFFE0EDBCFE6FFD7DFAC
:10019000E552E552F350F41046E1FD0EDBCFE9FFE6
:1001A000FE0EDBCFEAFF010ED890E936EA36E8060C
:1001B000FBE1C00EE926010EEA22EECF14F0EFCFEC
:1001C00015F0D0C116F0D1C117F01606000E175A5F
:1001D0001650145C1750155813E3FD0EDBCFE9FFE2
:1001E000FE0EDBCFEAFF010ED890E936EA36E806CC
:1001F000FBE1C00EE926010EEA22EE6AED6A13D099
:10020000FD0EDBCFE9FFFE0EDBCFEAFF010ED8903B
:10021000E936EA36E806FBE1C00EE926010EEA22DD
:10022000EE2A000EEF22E552E7CFD9FF1200D9CF18
:10023000E6FFE1CFD9FFFD0EDBCFE6FFFE0EDBCF01
:10024000E6FF7DDFE552E552F350F41003E0F36A78
:10025000F46A38D0FD0EDBCF16F0FE0EDBCF17F0C0
:10026000060ED89016361736E806FBE1000E162665
:10027000010E1722FD0EDBCFE9FFFE0EDBCFEAFFFA
:10028000010ED890E936EA36E806FBE1C00EE92611
:10029000010EEA22EECF18F0EFCF19F0010ED89040
:1002A00018361936E806FBE116501824E96E175087
:1002B0001920EA6EEECF14F0EFCF15F014C0F3FF63
:1002C00015C0F4FFE552E7CFD9FF1200D9CFE6FF02
:1002D000E1CFD9FFFD0EDBCFE6FFFE0EDBCFE6FF61
:1002E0002EDFE552E552F350F41036E1FD0EDBCF80
:1002F00014F0FE0EDBCF15F0060ED890143615362E
:10030000E806FBE1000E1426010E1522FD0EDBCFE0
:10031000E9FFFE0EDBCFEAFF010ED890E936EA36A0
:10032000E806FBE1C00EE926010EEA22EECF16F048
:10033000EFCF17F0010ED89016361736E806FBE11E
:1003400014501624E96E15501720EA6EFB0EDBCF11
:10035000EEFFFC0EDBCFEDFFE552E7CFD9FF120039
:10036000D9CFE6FFE1CFD9FF040EE126010EDE6E04
:10037000DD6ADECF14F0DDCF15F0FD0EDBCF16F019
:10038000FE0EDBCF17F017501518E8AE02D015346B
:1003900004D01450165C155017581DE3020EDB6A8A
:1003A000030EDB6A020EDBCF14F0030EDBCF15F079
:1003B000D890155004E6100E145C270E155806E26E
:1003C000020EDB2A030EEEE3DB2AECD7DF2A010E56
:1003D000D0E3DB2ACED7040EE15C02E2E16AE5520B
:1003E000E16EE552E7CFD9FF12001200D2C1E6FF5D
:1003F000D3C1E6FF000EE66EE66A66EC01F0E55258
:10040000E552E552E552D2C1E6FFD3C1E6FF010E47
:10041000E66EE66A66EC01F0E552E552E552E55219
:10042000D2C1E6FFD3C1E6FF020EE66EE66A66ECD5
:1004300001F0E552E552E552E55212000101D26B9E
:10044000D36B1200010E0101D26FD36B12001200A8
:10045000120067EC03F0100EE66EE66A14EC00F092
:10046000E552E55282A002D0C0DF01D0BFDF82A2F8
:1004700002D0E4DF01D0E6DF82A202D0E8DF01D0C3
:10048000E7DF82A8819082BAEDD78194819AEAD77A
:10049000DACFE4FFE2CFDAFFE9CFE4FFEACFE4FF0F
:1004A000F6CFE4FFF7CFE4FFF5CFE4FFF3CFE4FFAF
:1004B000F4CFE4FFFACFE4FF00EE00F0140EE804FE
:1004C00003E3EECFE4FFFBD700EE14F0060EE804E2
:1004D00003E3EECFE4FFFBD7E652F0A003D0F090A9
:1004E000000E04D0F0A208D0F092010EE66EE66A8B
:1004F000A0EC02F0E552E552E55200EE19F0060ECE
:10050000E80403E3E5CFEDFFFBD700EE13F0140E94
:10051000E80403E3E5CFEDFFFBD7E5CFFAFFE5CF36
:10052000F4FFE5CFF3FFE5CFF5FFE5CFF7FFE5CF2C
:10053000F6FFE5CFEAFFE5CFE9FFE5CFDAFF1100EF
:10054000D9CFE6FFE1CFD9FFE150FD0FE96EFF0EF5
:10055000DA20EA6EEE50ED1013E1000EE66EE66A68
:10056000BDEC00F0E552E552000EE66EE66A17ECCF
:1005700001F0E552E552F350E8B08180E8A08190A7
:10058000D950FD0FE96EFF0EDA20EA6E010EEE186B
:1005900028E1ED5026E1010EE66EE66ABDEC00F0C2
:1005A000E552E552010EE66EE66A17EC01F0E552FF
:1005B000E552F350E8B08184E8A08194020EE66E23
:1005C000E66ABDEC00F0E552E552020EE66EE66A20
:1005D00017EC01F0E552E552F350E8B0818AE8A04B
:0A05E000819AE552E7CFD9FF12001F
:0605EA000E0EF66E000E7D
:1005F000F76E000EF86E01010900F550CB6F09008F
:10060000F550CC6F03E1CB6701D03DD00900F55028
:10061000C66F0900F550C76F0900F550C86F090093
:100620000900F550E96E0900F550EA6E090009006D
:100630000900F550C96F0900F550CA6F090009009B
:10064000F6CFCDF1F7CFCEF1F8CFCFF1C6C1F6FF9F
:10065000C7C1F7FFC8C1F8FF0101C95302E1CA537E
:1006600007E00900F550EE6EC907F8E2CA07F9D7AE
:10067000CDC1F6FFCEC1F7FFCFC1F8FF0101CB0717
:08068000000ECC5BBFD7120095
:080688009268936A3F0E946E24
:10069000816A816A826A1200C26AC16AC06A9A6A01
:1006A000996A1F0EB86E1200020E7F6E800E7E6E6B
:1006B000770E6F6E6E6A7A6A7B681200F26A9D6AC4
:1006C000A06AA36AF168D80EF06EF28E1200DCDF29
:0806D000E3DFEADF5EEF03F057
:0806D80008C012F008500D02E9
:1006E000F4CF07F0F3CF06F009500E02F4CF09F073
:1006F000F3CF08F00D02F3500726F4500822E86A01
:10070000092212500E02F3500726F4500822E86A1C
:040710000922000CAE
:0C071400000EF36E00EE00F0030E01D8A2
:100720001200EA6002D0EE6AFCD7F350E9601200D2
:04073000EE6AFCD79A
:0C07340012EE00F022EE00F0F86A019CCA
:10074000F5EC02F003EC00F029EC02F0FBD712000C
:02075000100097
:020752000000A5
:020000040030CA
:0100010002FC
:010002000DF0
:010003003EBE
:010004001CDF
:010005009D5D
:010006008178
:010008000FE8
:01000900C036
:01000A000FE6
:01000B00E014
:01000C000FE4
:01000D0040B2
:00000001FF
