:020000040000FA
:0600000099EF05F012006B
:020006001200E6
:060008005AEF05F01200A2
:02000E000000F0
:0400100000000000EC
:03001400000000E9
:0100170000E8
:0800180072EF05F01200000177
:100020008F5105E08F6BE66A0FEC03F0E55212008A
:100030000001905106E0906B010EE66E0FEC03F0AC
:10004000E55212001EEC05F050EC00F02BEC04F031
:10005000010EE66EB5EC05F0E552E1DFB7EC02F01B
:02006000FCD7CB
:0E0062000500980B000082000000070000005F
:10007000170000009D0000000100000014000000B7
:1000800098000000030000000E0000008F00000038
:1000900006000000800B0000600000001800000057
:1000A000D9CFE6FFE1CFD9FF020EE1260001010E14
:1000B000606F020E616F040E626F080E636F100EA8
:1000C000646F400E656FDE6ADD6ADECF10F0DDCF53
:1000D00011F0D890115004E6060E105C000E115875
:1000E00017E2DECFE9FFDDCFEAFF660EE926000E5C
:1000F000EA22EF6ADECFE9FFDDCFEAFF6C0EE926E8
:10010000000EEA22EF6ADF2A010EDFE3DB2ADDD7E9
:10011000020EE15C02E2E16AE552E16EE552E7CFF0
:10012000D9FF1200D9CFE6FFE1CFD9FF060EF36E5B
:10013000FE0EDBCFF4FFF350F45C63E2FE0EDB5007
:10014000EA6A720FE96E000EEA22EF5020E0FE0E1E
:10015000DB50EA6A6C0FE96E000EEA22EF5002E013
:10016000000E01D0010EE66EFE0EDB50EA6A6C0F47
:10017000E96E000EEA22E552E750EF6EFE0EDB500C
:10018000EA6A720FE96E000EEA22EF6A3AD0FE0EBA
:10019000DB50EA6A660FE96E000EEA22EF2AFE0ED5
:1001A000DB50EA6A660FE96E000EEA22EFCF10F02C
:1001B000FE0EDB50EA6A600FE96E000EEA22EF5095
:1001C000105C1FE3FE0EDB50EA6A660FE96E000E5C
:1001D000EA22EF6AFE0EDB50EA6A6C0FE96E000E4F
:1001E000EA22EF5002E0000E01D0010EE66EFE0E94
:1001F000DB50EA6A6C0FE96E000EEA22E552E75026
:10020000EF6EE552E7CFD9FF1200D9CFE6FFE1CF7D
:10021000D9FF060EF36EFE0EDBCFF4FFF350F45C55
:1002200019E2FE0EDB50EA6A6C0FE96E000EEA225C
:10023000EF6AFE0EDB50EA6A660FE96E000EEA22F4
:10024000EF6AFE0EDB50EA6A720FE96E000EEA22D8
:10025000010EEF6EE552E7CFD9FF1200D9CFE6FFCE
:10026000E1CFD9FF060EF36EFE0EDBCFF4FFF350A5
:10027000F45C02E3000E08D0FE0EDB50EA6A6C0F5D
:10028000E96E000EEA22EF50E552E7CFD9FF1200E7
:10029000D9CFE6FFE1CFD9FF060EF36EFE0EDBCF1E
:1002A000F4FFF350F45C01E379D0FD0EDB501F083E
:1002B00009E3FE0EDB50EA6A600FE96E000EEA22E7
:1002C000010E6BD0FD0EDB503F0809E3FE0EDB5044
:1002D000EA6A600FE96E000EEA22020E5ED0FD0EA1
:1002E000DB505F0809E3FE0EDB50EA6A600FE96E3F
:1002F000000EEA22030E51D0FD0EDB507F0809E309
:10030000FE0EDB50EA6A600FE96E000EEA22040E70
:1003100044D0FD0EDB50106E116A113404E210500F
:100320009F08000E115409E3FE0EDB50EA6A600FCD
:10033000E96E000EEA22080E30D0FD0EDB50106E82
:10034000116A113404E21050BF08000E115409E381
:10035000FE0EDB50EA6A600FE96E000EEA220C0E18
:100360001CD0FD0EDB50106E116A113404E21050E7
:10037000DF08000E115409E3FE0EDB50EA6A600F3D
:10038000E96E000EEA22100E08D0FE0EDB50EA6A7B
:10039000600FE96E000EEA22200EEF6EE552E7CF05
:1003A000D9FF1200D9CFE6FFE1CFD9FFE65260C0F6
:1003B000DFFF65C060F064C065F063C064F062C0D8
:1003C00063F061C062F0DFCF61F0E552E552E7CF44
:1003D000D9FF1200D9CFE6FFE1CFD9FF030EE12606
:1003E00060C0DFFF010E61C0DBFF020E62C0DBFFF9
:1003F00063C060F064C061F065C062F0DFCF63F09D
:10040000010EDBCF64F0020EDBCF65F0030EE15C82
:1004100002E2E16AE552E16EE552E7CFD9FF120050
:10042000786A796A766A776A746A756A12003F0E2A
:10043000786E7968766E7768746E75681200000160
:10044000F40E846F010E856F12000001000ED8803B
:100450008455000E855503E28407000E855B000E6F
:10046000D8808455000E855501E3000C010C000175
:10047000865107E0865102E0000E01D0010E866F22
:10048000DEDF12000001865108E1865102E0000E15
:1004900001D0010E866FD3DFD57E12000001875197
:1004A00007E0875102E0000E01D0010E876FC7DF21
:1004B00012000001875117E1875102E0000E01D0C0
:1004C000010E876FBCDF0001822B070E106E0C6ED1
:1004D00082C007F0A7EC05F003C082F003C0E6FF7E
:1004E0007CEC04F0E55212000001885107E08851CD
:1004F00002E0000E01D0010E886FA1DF12000001A2
:10050000885134E1885102E0000E01D0010E886F5D
:1005100096DFE66A05EC01F0E552010EE66E05ECA9
:1005200001F0E552020EE66E05EC01F0E552030E15
:10053000E66E05EC01F0E552040EE66E05EC01F006
:10054000E552050EE66E05EC01F0E552E66AE66A54
:10055000E66A08EC04F0E552E552E552E66AE66A1E
:10056000E66AEEEC03F0E552E552E552120082A095
:1005700005D06BDF000906E17ADF04D066DF0009F1
:1005800001E180DF82A205D060DF000906E186DF9D
:1005900004D05BDF000901E18CDF82A405D055DFC8
:1005A000000906E174EF02F050DF000901E1A7DF66
:0205B000120037
:0E05B200D9CFE6FFE1CFD9FFFE0EDB500108E6
:1005C00009E3FE0EDB50EA6A950FE96E000EEA229F
:1005D000010EEF6EE552E7CFD9FF1200D9CFE6FF4B
:1005E000E1CFD9FFFE0EDB50010802E2000E13D06E
:1005F000FE0EDB50EA6A950FE96E000EEA22EFCF9D
:1006000097F0FE0EDB50EA6A950FE96E000EEA22C3
:10061000EF6A00019751E552E7CFD9FF1200D9CF19
:10062000E6FFE1CFD9FFE66A92EC00F0E552010E59
:10063000E66E92EC00F0E552020EE66E92EC00F0EF
:10064000E552030EE66E92EC00F0E552040EE66E03
:1006500092EC00F0E552050EE66E92EC00F0E552E9
:10066000030EE66E2EEC01F0E552000902E0106880
:1006700001D0106A116A1050E66E040EE66E2EEC80
:1006800001F0E552000902E0126801D0126A136A13
:100690001250E66E050EE66E2EEC01F0E5520009F2
:1006A00002E0146801D0146A156A1450E66E08EC72
:1006B00004F0E552E552E552E66A2EEC01F0E5520F
:1006C000E66E010EE66E2EEC01F0E552E66E020ECD
:1006D000E66E2EEC01F0E552E66EEEEC03F0E5522C
:1006E000E552E552020EE66E2EEC01F0E552E66EA2
:1006F0002EEC04F0E552050EE66E2EEC01F0E5520C
:10070000E66E3CEC04F0E552E552E7CFD9FF12006B
:10071000D9CFE6FFE1CFD9FFFE0EDB50010A07E09B
:10072000010A09E18250100B06E0010E04D082504C
:0E073000200B01E0010EE552E7CFD9FF1200C9
:02073E00D9CF11
:10074000E6FFE1CFD9FFFE0EDBCF9BF09BC09CF014
:100750000001040E9C03F3CF9CF0FC0E9C179B45FC
:10076000E846030B9B6F030E9B17E552E7CFD9FFBB
:100770001200D9CFE6FFE1CFD9FFFC0EDBCFE6FFB9
:10078000DEDFE552FE0EDB50020A1AE0030A0DE03E
:10079000010A20E1FD0EDB50E8B08180E8A08190E5
:1007A0009BC078FF9CC079FF15D0FD0EDB50E8B0F0
:1007B0008184E8A081949BC076FF9CC077FF0AD01B
:1007C000FD0EDB50E8B0818AE8A0819A9BC074FFDF
:1007D0009CC075FFE552E7CFD9FF1200D9CFE6FFE5
:1007E000E1CFD9FFFE0EDB50E8B08180E8A0819018
:1007F000FD0EDB50E8B08184E8A08194FC0EDB5054
:10080000E8B0818AE8A0819AE552E7CFD9FF1200CB
:10081000D9CFE6FFE1CFD9FFFE0EDBCFE6FF8FDFBA
:10082000E5529BC078FF9CC079FFFD0EDBCFE6FF51
:1008300086DFE5529BC076FF9CC077FFFC0EDBCFC6
:10084000E6FF7DDFE5529BC074FF9CC075FFE5525B
:06085000E7CFD9FF120002
:0A085600829C829E1200D9CFE6FFBB
:10086000E1CFD9FFFE0EDB50E8B0828CE8A0829C7D
:10087000E552E7CFD9FF1200D9CFE6FFE1CFD9FF8C
:10088000FE0EDB50E8B0828EE8A0829EE552E7CFF4
:10089000D9FF120000019851100802E2828C07D0A3
:1008A0009A51D880985502E2827C01D0829C99515D
:1008B000100802E2828E07D09A51D880995502E240
:1008C000827E01D0829E9A2B9A510F0B9A6F120052
:1008D00000019A6B1200D9CFE6FFE1CFD9FFFE0EDF
:1008E000DB50E8240001986FE850100801E3F0DFC6
:1008F000E552E7CFD9FF1200D9CFE6FFE1CFD9FF0C
:10090000FE0EDB50E8240001996FE850100801E367
:0A091000DFDFE552E7CFD9FF120048
:06091A00620EF66E000EF5
:10092000F76E000EF86E00010900F5507D6F0900AA
:10093000F5507E6F03E17D6701D03DD00900F55091
:10094000786F0900F550796F0900F5507A6F09004A
:100950000900F550E96E0900F550EA6E090009003A
:100960000900F5507B6F0900F5507C6F0900090004
:10097000F6CF7FF0F7CF80F0F8CF81F078C0F6FFA8
:1009800079C0F7FF7AC0F8FF00017B5302E17C5386
:1009900007E00900F550EE6E7B07F8E27C07F9D717
:1009A0007FC0F6FF80C0F7FF81C0F8FF00017D0720
:0809B000000E7E5BBFD71200B0
:0809B8009268936A3F0E946EF1
:1009C000816A816A826A1200C29AC298F30EC214C6
:1009D0000009C26EC280C16AC06A9A6AE00E9A14A7
:1009E00002099A6E996A010EB86E91689068E70ED6
:1009F000B7141809B76EB7801200020E7F6E800E12
:100A00007E6E770E6F6E6E6A7A6A7B681200F26A8B
:100A10009D6AA06AA36AF28C9D8C9E9C9F9CF28A20
:100A2000F184D08EF28EF28C1200D59ED59CD59A90
:100A3000D596F80ED5140209D56E1200BDDFC4DFBD
:080A4000DCDFF3DF07EF05F036
:080A4800D9CFE6FFE1CFD9FF91
:100A5000FE0EDB50040A19E0070A12E0010A0CE05E
:100A6000030A06E0010A13E18050020B10E00BD0EC
:100A70008050040B0CE007D08050080B08E003D036
:100A80008050100B04E0010E02D000019D51E55290
:100A9000E7CFD9FF1200D9CFE6FFE1CFD9FFFE0E95
:100AA000DB50040A03E1FD0EDBCF9DF0E552E7CFFA
:040AB000D9FF120058
:0C0AB400DACFE4FFE652E8CF89F0D8CF9B
:100AC0008AF0E0CF8BF0F2A407D0F29492C0D7FF67
:100AD000D66A0001010E8F6F8AC0D8FFE552E5CFBC
:100AE000DAFF1100DACFE4FFE652E8CF8CF0D8CF7E
:100AF0008DF0E0CF8EF09EAC06D09E9CC4CF92F0DD
:100B00000001010E916F8DC0D8FFE552E5CFDAFFED
:020B10001100D2
:0E0B1200000EF36E00EE00F0030E01D812008C
:100B2000EA6002D0EE6AFCD7F350E9601200EE6A88
:020B3000FCD7F0
:0E0B320012EE00F022EE00F0F86A0F9C8DEC3F
:0E0B400004F003EC00F022EC00F0FBD71200F2
:020B4E00036A38
:100B5000080EE76ED890073603360C50035C02E3AC
:0A0B6000036E072AE72EF7D71200F4
:060B6A00FF0EE350E84E0F
:100B70001200000000D000D000D0E82EFAD71200FA
:100B80000102040308200000000000000000000033
:080B9000000001010101010157
:070B98000000000000000056
:020000040030CA
:0100010002FC
:010002000DF0
:010003003EBE
:010004001CDF
:010005009D5D
:010006008178
:010008000FE8
:01000900C036
:01000A000FE6
:01000B00E014
:01000C000FE4
:01000D0040B2
:00000001FF
