:020000040000FA
:080000003AEC01F05AEF00F0A8
:040008007AEF01F09A
:02000C000000F2
:0800180079EF01F0000411254D
:100020003F5E7FA0BFD9EDFAFFFAEDD9BFA07F5E9A
:100030003F2511040002091525384E667F98B0C689
:10004000D9E9F5FCFFFCF5E9D9C6B0987F664E38D2
:1000500025150902000001020406090D11151A1FD9
:10006000252B31383F474E565E666E777F879098D6
:10007000A0A8B0B7BFC6CDD3D9DFE4E9EDF1F5F85C
:10008000FAFCFDFEFFFEFDFCFAF8F5F1EDE9E4DF18
:10009000D9D3CDC6BFB7B0A8A09890877F776E663A
:1000A0005E564E473F38312B251F1A15110D090694
:0400B0000402010045
:0C00B400806A816A826A000E786E766EA7
:1000C000746E07680D681B6678EF00F080B07CEFF7
:1000D00000F01B681A1E08E0FA0EAD6E8B0ECE6E95
:1000E000A70ECF6E7CEF00F0FC0EAD6E7CEF00F043
:1000F00080A07CEF00F01B6A166817681868196802
:10010000172E7EEF00F0162E7DEF00F0092A0D2A43
:10011000030E09628FEF00F00E68072A096A0A2AA7
:10012000180E0A6295EF00F00A6A01820B2A200E6F
:100130000B629CEF00F00B6A01840C2A600E0C62CB
:10014000A3EF00F00C6A018001A0B0EF00F00C50AA
:10015000540FF66E0800F550106E800E116E01906F
:1001600001A2BCEF00F00A501C0FF66E0800F5501B
:10017000126E800E136E019201A4C8EF00F00B50B6
:10018000340FF66E0800F550146E800E156E019453
:1001900010500262CEEF00F0E8EF00F0112EE8EF11
:1001A00000F002501064D8EF00F0022AD9EF00F0FE
:1001B000020602502A6EC00B2B6E2A462A462B3AA4
:1001C0002B422B422BC078FF2AC079FF800E116E84
:1001D00012500562EEEF00F008EF01F0132E08EF69
:1001E00001F005501264F8EF00F0052AF9EF00F075
:1001F000050605502A6EC00B2B6E2A462A462B3A5E
:100200002B422B422BC076FF2AC077FF800E136E45
:10021000145006620EEF01F028EF01F0152E28EFC2
:1002200001F00650146418EF01F0062A19EF01F0EE
:10023000060606502A6EC00B2B6E2A462A462B3A1B
:100240002B422B422BC074FF2AC075FF800E156E07
:100250000750E846FE0B086E0D50E842E842010BDD
:1002600008240F0B086E0E50100B0824E81C826E39
:0402700063EF00F048
:0C027400000EB86E010E926E000E936E2C
:10028000C00E946E020E7F6E800E7E6E770E6F6EC5
:10029000000E6E6E7A6AFF0E7B6EAC98AC94AA96D6
:1002A000AA90B06A090EAF6EAB8E9D98AC9CAC8ADA
:1002B000A70ECF6E8B0ECE6ECD92CD96CD98CD8AF9
:1002C0009D80CD80006A216A016A026A056A066A19
:1002D000076A1A6A1B6A2E0E1F6E010E236EF70E36
:1002E0000F6E000EF86E000EF76ED08EF29CF28E3E
:0202F0001200FA
:0E02F20010001C6ED8CF1DF0E0CF1EF09EA0B5
:1003000089EF01F08D0ECE6EA70ECF6E9E90F80E87
:0E031000AD6E1EC0E0FF1C501DC0D8FF1000D7
:020000040030CA
:0100010002FC
:010002000DF0
:010003003EBE
:010004001CDF
:010005009D5D
:010006008178
:010008000FE8
:01000900C036
:01000A000FE6
:01000B00E014
:01000C000FE4
:01000D0040B2
:00000001FF
