:020000040000FA
:080000008AEC01F05AEF00F058
:0400080031EF01F0E3
:02000C000000F2
:0800180030EF01F00004112596
:100020003F5E7FA0BFD9EDFAFFFAEDD9BFA07F5E9A
:100030003F2511040002091525384E667F98B0C689
:10004000D9E9F5FCFFFCF5E9D9C6B0987F664E38D2
:1000500025150902000001020406090D11151A1FD9
:10006000252B31383F474E565E666E777F879098D6
:10007000A0A8B0B7BFC6CDD3D9DFE4E9EDF1F5F85C
:10008000FAFCFDFEFFFEFDFCFAF8F5F1EDE9E4DF18
:10009000D9D3CDC6BFB7B0A8A09890877F776E663A
:1000A0005E564E473F38312B251F1A15110D090694
:0400B0000402010045
:0C00B400806A816A826A000E786E766EA7
:1000C000746E04680A681B669DEF00F01C666BEF97
:1000D00000F06EEF00F01C2EAAEF00F080B0AAEF47
:1000E00000F01C681B681A1E22E00B6A0C681F0EC9
:1000F000826EFA0EAD6E160ECE6E4F0ECF6ECD80A6
:10010000786A796A766A776A746A756A046A006AD4
:10011000016A026A036A106A0D6A136A066A0A6A49
:10012000076A086A096A040E0F6EAAEF00F0FC0E57
:10013000AD6ECD90826AAAEF00F01C66A2EF00F0CF
:10014000A5EF00F01C2EAAEF00F080A0AAEF00F0AF
:100150001C681B6A00A0B6EF00F00950540FF66E41
:100160000800F5500D6E800E0E6E009000A2C2EFDA
:1001700000F007501C0FF66E0800F550106E800E50
:10018000116E009200A4CEEF00F00850340FF66E0E
:100190000800F550136E800E146E00940D5001622D
:1001A000D4EF00F0EEEF00F00E2EEEEF00F0015075
:1001B0000D64DEEF00F0012ADFEF00F001060150D0
:1001C000206EC00B216E20462046213A214221425A
:1001D00021C078FF20C079FF800E0E6E10500262A1
:1001E000F4EF00F00EEF01F0112E0EEF01F00250CF
:1001F0001064FEEF00F0022AFFEF00F0020602504A
:10020000206EC00B216E20462046213A2142214219
:1002100021C076FF20C077FF800E116E135003625D
:1002200014EF01F063EF00F0142E63EF00F00350C1
:1002300013641EEF01F0032A1FEF01F003060350C1
:10024000206EC00B216E20462046213A21422142D9
:1002500021C074FF20C075FF800E146E63EF00F0A4
:1002600010001D6ED8CF1EF0E0CF1FF09EA081EFD2
:1002700001F01A0ECE6E4F0ECF6E9E90000E0C62E5
:1002800087EF01F0062A0A2A030E06624BEF01F0FF
:100290000B68042A066A122E57EF01F0080E126E40
:1002A000072A180E076256EF01F0076A0082152E22
:1002B00063EF01F0020E156E082A200E086262EF4D
:1002C00001F0086A00840F2E6FEF01F0040E0F6E2C
:1002D000092A600E09626EEF01F0096A008004507D
:1002E000E846FE0B056E0A50E842E842010B052481
:1002F0000F0B056E0B50100B0524E81C826EF80ED8
:10030000AD6E1FC0E0FF1D501EC0D8FF10000C6A6C
:040310006FEF01F09A
:0C031400000EB86E010E926E000E936E8B
:10032000C00E946E020E7F6E800E7E6E770E6F6E24
:10033000000E6E6E7A6AFF0E7B6EAC98AC94AA9635
:10034000AA90B06A090EAF6EAB8E9D98AC9CAC8A39
:10035000160ECE6E4F0ECF6ECD92CD96CD88CD9A25
:100360009D80CD90006A016A026A036A046A106A7D
:100370000D6A136A040E0F6E080E126E020E156ED1
:100380000B681A6A1B6A1C6A066A0A6A076A086AA4
:10039000096A000EF86E000EF76ED08EF29CF28E97
:0203A000120049
:020000040030CA
:0100010002FC
:010002000DF0
:010003003EBE
:010004001CDF
:010005009D5D
:010006008178
:010008000FE8
:01000900C036
:01000A000FE6
:01000B00E014
:01000C000FE4
:01000D0040B2
:00000001FF
