:020000040000FA
:0800000018EC02F03AEF01F0E8
:040008005BEF00F0BA
:02000C000000F2
:080018005AEF00F0000411256D
:100020003F5E7FA0BFD9EDFAFFFAEDD9BFA07F5E9A
:100030003F2511040002091525384E667F98B0C689
:10004000D9E9F5FCFFFCF5E9D9C6B0987F664E38D2
:1000500025150902000001020406090D11151A1FD9
:10006000252B31383F474E565E666E777F879098D6
:10007000A0A8B0B7BFC6CDD3D9DFE4E9EDF1F5F85C
:10008000FAFCFDFEFFFEFDFCFAF8F5F1EDE9E4DF18
:10009000D9D3CDC6BFB7B0A8A09890877F776E663A
:1000A0005E564E473F38312B251F1A15110D090694
:0400B0000402010045
:0C00B40010001C6ED8CF1DF0E0CF1EF035
:1000C0009EBA69EF00F01EC0E0FF1C501DC0D8FFB3
:1000D00010009E9A63EF00F0AECF00F0F80E0062C1
:1000E00092EF00F0092A0D2A030E09627BEF00F05F
:1000F0000E68072A096A0A2A180E0A6281EF00F0C0
:100100000A6A01820B2A200E0B6288EF00F00B6A4C
:1001100001840C2A600E0C628FEF00F00C6A0180E3
:10012000D6EF00F0FA0E00629EEF00F0076A0E6A4A
:10013000096A0A6A0B6A0C6AD6EF00F0FC0E0062CC
:10014000A6EF00F007680D68D6EF00F0D6EF00F0DC
:100150000E0E1F62B8EF00F0F70E0062B4EF00F071
:1001600020C01FF0D6EF00F000C00FF0D6EF00F077
:10017000800E00601CEF01F01F50F9261AD01BD032
:100180001CD01ED020D022D024D026D028D02AD0D7
:100190002CD02ED030D032D034D036D038D03AD047
:1001A0003CD03ED040D042D044D044D09E9A63EF61
:1001B00000F0D6EF00F0D6EF00F00778D6EF00F0B1
:1001C0000778D6EF00F00778D6EF00F00778D6EF83
:1001D00000F00778D6EF00F00778D6EF00F0077848
:1001E000D6EF00F00776D6EF00F00776D6EF00F0F6
:1001F0000778D6EF00F00778D6EF00F00778D6EF53
:1002000000F00778D6EF00F00776D6EF00F0077819
:10021000D6EF00F00778D6EF00F00778D6EF00F0C1
:100220000778D6EF00F00778D6EF00F00778D6EF22
:1002300000F0FF00D6EF00F0F00E006222EF01F0B8
:100240001FC020F0F00E00602EEF01F000500F0BE9
:10025000236E0050700BE83A31EF01F000500F0BA5
:10026000070FE8461F6E216AF60E0060BCEF00F033
:04027000D6EF00F0D5
:0C027400806A816A826A000E786E766EE5
:10028000746E07680D681B6654EF01F080B058EF7C
:1002900001F01B681A1E04E0FA0EAD6E58EF01F073
:1002A000FC0EAD6E58EF01F080A058EF01F01B6A14
:1002B0001668176818681968172E5AEF01F0162E7D
:1002C00059EF01F0F80EAD6E092A0D2A030E0962EE
:1002D0006DEF01F00E68072A096A0A2A180E0A62F1
:1002E00073EF01F00A6A01820B2A200E0B627AEF8B
:1002F00001F00B6A01840C2A600E0C6281EF01F0A0
:100300000C6A018001A08EEF01F00C50540FF66EC4
:100310000800F550106E800E116E019001A29AEF48
:1003200001F00A501C0FF66E0800F550126E800E98
:10033000136E019201A4A6EF01F00B50340FF66E7C
:100340000800F550146E800E156E01941050026274
:10035000ACEF01F0C6EF01F0112EC6EF01F0025034
:100360001064B6EF01F0022AB7EF01F00206025066
:100370002A6EC00B2B6E2A462A462B3A2B422B4262
:100380002BC078FF2AC079FF800E116E12500562D3
:10039000CCEF01F0E6EF01F0132EE6EF01F005508F
:1003A0001264D6EF01F0052AD7EF01F005060550DB
:1003B0002A6EC00B2B6E2A462A462B3A2B422B4222
:1003C0002BC076FF2AC077FF800E136E1450066292
:1003D000ECEF01F006EF02F0152E06EF02F00650EA
:1003E0001464F6EF01F0062AF7EF01F00606065056
:1003F0002A6EC00B2B6E2A462A462B3A2B422B42E2
:100400002BC074FF2AC075FF800E156E0750E8469A
:10041000FE0B086E0D50E842E842010B08240F0B5A
:10042000086E0E50100B0824E81C826E43EF01F09A
:10043000000EB86E010E926E000E936EC00E946E9A
:10044000020E7F6E800E7E6E770E6F6E000E6E6EE9
:100450007A6AFF0E7B6EAC98AC94AA96AA90B06AAA
:10046000090EAF6EAB8E9D98AC9CAC8A006A216A77
:10047000016A026A056A066A076A1A6A1B6A2E0E10
:100480001F6E010E236EF70E0F6E000EF86E000E3B
:0A049000F76ED08EF29CF28E12007F
:020000040030CA
:0100010002FC
:010002000DF0
:010003003EBE
:010004003CBF
:010005009D5D
:010006008178
:010008000FE8
:01000900C036
:01000A000FE6
:01000B00E014
:01000C000FE4
:01000D0040B2
:00000001FF
