:020000040000FA
:080000009FEC01F05BEF01F041
:040008004FEF00F0C6
:02000C000000F2
:080018004EEF00F000000000B3
:1000200000000000000000000000000000000000D0
:10003000000000000004090D12171B2024292D3296
:10004000363B3F43484C5155595E62666B6F737740
:100050007C8084888C9195999DA1A5A9AEB2B6BAF1
:10006000BEC2C6CACED2D6DADEE2E6EAEEF2F6FAD0
:10007000FEFEFEFEFEFEFEFEFEFEFEFEFEFEFEFEA0
:10008000FEFEFEFEFEFEFEFEFEFEFEFEFEFEFEFE90
:0C009000FEFEFEFEFEFEFEFEFEFEFEFE7C
:04009C001000076EDB
:1000A000D8CF08F0E0CF09F09EBA5DEF00F009C0AC
:1000B000E0FF075208C0D8FF1000AECF00F00E0ED0
:1000C0000A626FEF00F0F70E00626BEF00F00BC0FA
:1000D0000AF08DEF00F000C006F08DEF00F0800E0A
:1000E000006040EF01F00A50F9261AD038D052D003
:1000F00053D0A1D0A2D0A3D0E6D7A3D0A4D0A5D06E
:10010000A6D0A7D0A8D0A9D0AAD0ABD0ACD0ADD023
:10011000AED0AFD0B0D0B1D0B1D09E9A57EF00F0F2
:1001200080B0ADEF00F00CB09BEF00F000C00FF01E
:100130000C2A8DEF00F000C010F00F500262AAEF01
:1001400000F0A3EF00F00FC002F0018010C003F038
:10015000018205900C6A8DEF00F08DEF00F080B009
:10016000C8EF00F00CB0BAEF00F000C00FF00C2A9E
:100170008DEF00F000C010F01052DFE00FC002F071
:10018000018010C003F0018205800C6A8DEF00F041
:100190008DEF00F08DEF00F080B08DEF00F00CB02F
:1001A000D7EF00F000C00DF00C2A8DEF00F0010E2B
:1001B0000D62E0EF00F000C004F0018418EF01F0E0
:1001C000020E0D62EEEF00F03F0E0064EBEF00F068
:1001D000058218EF01F0059218EF01F0030E0D6291
:1001E000FCEF00F03F0E0064F9EF00F0058418EF1B
:1001F00001F0059418EF01F0040E0D620AEF01F012
:100200003F0E006407EF01F0058618EF01F0059638
:1002100018EF01F0050E0D6218EF01F03F0E0064BB
:1002200015EF01F0058818EF01F0059818EF01F0BF
:100230000C6A8DEF00F08DEF00F08DEF00F08DEF88
:1002400000F08DEF00F08DEF00F08DEF00F08DEFFE
:1002500000F08DEF00F08DEF00F08DEF00F08DEFEE
:1002600000F08DEF00F08DEF00F08DEF00F08DEFDE
:1002700000F08DEF00F08DEF00F0FF008DEF00F04B
:10028000F00E006246EF01F00AC00BF0F00E0060C5
:100290004FEF01F00050700BE83A52EF01F00050C0
:1002A0000F0B070FE8460A6E0C6AF60E006073EF3C
:0602B00000F08DEF00F0EC
:0A02B600806A816A826A000E786E89
:1002C000766E746E01A077EF01F002501C0FF66E8F
:1002D0000800F550116EC00B126E11461146123A0D
:1002E0001242124212C078FF11C079FF019001A2A0
:1002F00089EF01F00350E846116EC00B126E1146F3
:100300001146123A1242124212C076FF11C077FF14
:10031000019201A49BEF01F00450E846116EC00B5E
:10032000126E11461146123A1242124212C074FF66
:0E03300011C075FF019405C082FF62EF01F05D
:02033E00000EAF
:10034000B86E010E926E000E936EC00E946E020E89
:100350007F6E800E7E6E770E6F6E000E6E6E7A6A06
:10036000FF0E7B6EAC98AC94AA96AA90B06A090E68
:10037000AF6EAB9CAB889D8A9F8AAB8E006A0C6A7D
:10038000016A026A036A046A056A2E0E0A6E010E89
:100390000E6EF70E066E000EF76E000EF86ED08E23
:0603A000F29CF28E120037
:020000040030CA
:0100010002FC
:010002000DF0
:010003003EBE
:010004003CBF
:010005009D5D
:010006008178
:010008000FE8
:01000900C036
:01000A000FE6
:01000B00E014
:01000C000FE4
:01000D0040B2
:00000001FF
