:020000040000FA
:0600000042EF06F01200C1
:020006001200E6
:06000800C2EF05F012003A
:02000E000000F0
:03001000000000ED
:03001300000000EA
:0100160000E9
:08001800DEEF05F0120000010B
:100020008F5105E08F6BE66AD2EC03F0E5521200C7
:100030000001905106E0906B010EE66ED2EC03F0E9
:10004000E5521200D9CFE6FFE1CFD9FF020EE1263B
:10005000DF6A010EDB6A76EC05F004EC01F07CEC63
:1000600005F0E66AFCEC05F0E552000922E0010E1D
:10007000E66E5EEC06F0E552E66AFCEC05F0E55251
:10008000000917E0E66AB9EC01F0E552010EE66EF0
:10009000B9EC01F0E552020EE66EB9EC01F0E55262
:1000A000E66AE66AE66ABFEC04F0E552E552E5521C
:1000B00001D0B5DF010EE66EFCEC05F0E55200095B
:1000C00024E0010EE66E5EEC06F0E552010EE66EEF
:1000D000FCEC05F0E552000918E0030EE66EB9EC01
:1000E00001F0E552040EE66EB9EC01F0E552050EA2
:1000F000E66EB9EC01F0E552E66AE66AE66AA5EC5E
:1001000004F0E552E552E55201D092DF000193512F
:1001100003E0936B7FEC05F00001915109E0916BD6
:1001200092C0E6FF040EE66E23EC06F0E552E552BF
:100130007AEC03F0DF5018E1020EE66EFCEC05F0FD
:10014000E552000919E0010EE66E5EEC06F0E5529C
:10015000020EE66EFCEC05F0E55200090DE0010E22
:10016000DF6E86EC02F008D0020EE66EFCEC05F0C5
:10017000E552000901E1DF6A010EDB501BE1030ECD
:10018000E66EFCEC05F0E552000901E16AD7010ECC
:10019000E66E5EEC06F0E552030EE66EFCEC05F052
:1001A000E552000901E15DD7DE52010EDD6E9EECE5
:1001B00002F057D7030EE66EFCEC05F0E55200099D
:0A01C00001E04FD7010EDB6A4CD7B7
:0601CA000500EA0C000034
:1001D0008200000007000000160000009C000000E4
:1001E0000100000013000000970000000300000061
:1001F0000E0000008F00000005000000D20C00007F
:0802000060000000180000007E
:08020800D9CFE6FFE1CFD9FFD9
:10021000020EE1260001010E606F020E616F040EF6
:10022000626F030E636F080E646F200E656FDE6AE7
:10023000DD6ADECF10F0DDCF11F0D890115004E66A
:10024000060E105C000E115817E2DECFE9FFDDCF7D
:10025000EAFF660EE926000EEA22EF6ADECFE9FF2A
:10026000DDCFEAFF6C0EE926000EEA22EF6ADF2AF4
:10027000010EDFE3DB2ADDD7020EE15C02E2E16A78
:10028000E552E16EE552E7CFD9FF1200D9CFE6FF84
:10029000E1CFD9FF060EF36EFE0EDBCFF4FFF35075
:1002A000F45C63E2FE0EDB50EA6A720FE96E000E48
:1002B000EA22EF5020E0FE0EDB50EA6A6C0FE96E96
:1002C000000EEA22EF5002E0000E01D0010EE66EB1
:1002D000FE0EDB50EA6A6C0FE96E000EEA22E55270
:1002E000E750EF6EFE0EDB50EA6A720FE96E000E09
:1002F000EA22EF6A3AD0FE0EDB50EA6A660FE96E38
:10030000000EEA22EF2AFE0EDB50EA6A660FE96E63
:10031000000EEA22EFCF10F0FE0EDB50EA6A600F0B
:10032000E96E000EEA22EF50105C1FE3FE0EDB5078
:10033000EA6A660FE96E000EEA22EF6AFE0EDB50F3
:10034000EA6A6C0FE96E000EEA22EF5002E0000E3E
:1003500001D0010EE66EFE0EDB50EA6A6C0FE96E0C
:10036000000EEA22E552E750EF6EE552E7CFD9FFE3
:100370001200D9CFE6FFE1CFD9FF060EF36EFE0ED5
:10038000DBCFF4FFF350F45C19E2FE0EDB50EA6AB7
:100390006C0FE96E000EEA22EF6AFE0EDB50EA6A8D
:1003A000660FE96E000EEA22EF6AFE0EDB50EA6A83
:1003B000720FE96E000EEA22010EEF6EE552E7CFF2
:1003C000D9FF1200D9CFE6FFE1CFD9FF060EF36EB9
:1003D000FE0EDBCFF4FFF350F45C02E3000E08D016
:1003E000FE0EDB50EA6A6C0FE96E000EEA22EF5057
:1003F000E552E7CFD9FF1200D9CFE6FFE1CFD9FF11
:10040000060EF36EFE0EDBCFF4FFF350F45C01E357
:1004100079D0FD0EDB501F0809E3FE0EDB50EA6ABF
:10042000600FE96E000EEA22010E6BD0FD0EDB506C
:100430003F0809E3FE0EDB50EA6A600FE96E000E2A
:10044000EA22020E5ED0FD0EDB505F0809E3FE0ECD
:10045000DB50EA6A600FE96E000EEA22030E51D00B
:10046000FD0EDB507F0809E3FE0EDB50EA6A600FE9
:10047000E96E000EEA22040E44D0FD0EDB50106E31
:10048000116A113404E210509F08000E115409E360
:10049000FE0EDB50EA6A600FE96E000EEA22080EDB
:1004A00030D0FD0EDB50106E116A113404E2105092
:1004B000BF08000E115409E3FE0EDB50EA6A600F1C
:1004C000E96E000EEA220C0E1CD0FD0EDB50106E01
:1004D000116A113404E21050DF08000E115409E3D0
:1004E000FE0EDB50EA6A600FE96E000EEA22100E83
:1004F00008D0FE0EDB50EA6A600FE96E000EEA22B9
:10050000200EEF6EE552E7CFD9FF1200D9CFE6FFFC
:10051000E1CFD9FFE65260C0DFFF65C060F064C084
:1005200065F063C064F062C063F061C062F0DFCF69
:1005300061F0E552E552E7CFD9FF1200D9CFE6FFCF
:10054000E1CFD9FF030EE12660C0DFFF010E61C0DD
:10055000DBFF020E62C0DBFF63C060F064C061F0CD
:1005600065C062F0DFCF63F0010EDBCF64F0020EF6
:10057000DBCF65F0030EE15C02E2E16AE552E16E79
:08058000E552E7CFD9FF12009C
:08058800786A796A766A776AE5
:10059000746A756A12003F0E786E7968766E7768B5
:1005A000746E756812000001F40E846F010E856F81
:1005B00012000001000ED8808455000E855503E21C
:1005C0008407000E855B000ED8808455000E85558B
:1005D00001E3000C010C0001865107E0865102E0A6
:1005E000000E01D0010E866FDEDF12000001865181
:1005F00025E1865102E0000E01D0010E866FD3DFA7
:100600000001832B8351030B836FE850030A11E031
:10061000010A09E0030A05E0010A01E01200E66AA6
:1006200004D0630E01D0010EE66EA0EC05F0E55299
:100630001200060EE66EA0EC05F0E5521200000175
:10064000875107E0875102E0000E01D0010E876F4D
:10065000AADF12000001875117E1875102E0000E66
:1006600001D0010E876F9FDF0001822B070E106EF5
:100670000C6E82C007F050EC06F003C082F003C09D
:10068000E6FFB1EC05F0E55212000001885107E0E9
:10069000885102E0000E01D0010E886F84DF120045
:1006A0000001885126E1885102E0000E01D0010EC0
:1006B000886F79DF00018351030A0CE0010A08E02A
:1006C000030A04E08251000814E206D086EF02F02B
:1006D0009EEF02F004EF01F0040EE66EFCEC05F074
:1006E000E552E66E00018205E66EFCEC01F0E55293
:1006F000E552120082A005D05CDF000906E16BDF45
:1007000004D057DF000901E171DF82A205D051DF7B
:10071000000906E194DF04D04CDF000901E19ADF13
:1007200082A405D046DF000906E145EF03F041DF72
:08073000000901E1B5DF120030
:08073800D9CFE6FFE1CFD9FFA4
:10074000FE0EDB50010809E3FE0EDB50EA6A940F4F
:10075000E96E000EEA22010EEF6EE552E7CFD9FFF7
:100760001200D9CFE6FFE1CFD9FFFE0EDB50010822
:1007700002E2000E13D0FE0EDB50EA6A940FE96E1F
:10078000000EEA22EFCF96F0FE0EDB50EA6A940FDD
:10079000E96E000EEA22EF6A00019651E552E7CFBA
:1007A000D9FF1200D9CFE6FFE1CFD9FFFE0EDB5013
:1007B000010A3BE0010A5FE1E66A46EC01F0E5521E
:1007C000010EE66E46EC01F0E552020EE66E46ECD6
:1007D00001F0E552020EE66EE2EC01F0E55200098E
:1007E00002E0106801D0106A116A1050E66E010E26
:1007F000E66EE2EC01F0E552000902E0126801D079
:10080000126A136A1250E66EE66AE2EC01F0E552F3
:10081000000902E0146801D0146A156A1450E66EEB
:10082000BFEC04F0E552E552E552030EE66E46ECED
:1008300001F0E552040EE66E46EC01F0E552050EBD
:10084000E66E46EC01F0E552050EE66EE2EC01F0D4
:10085000E552E66E040EE66EE2EC01F0E552E66E5D
:10086000030EE66EE2EC01F0E552E66EA5EC04F054
:10087000E552E552E552E552E7CFD9FF1200D9CF54
:10088000E6FFE1CFD9FFFE0EDB50010A07E0010AC7
:1008900009E18250100B06E0010E04D08250200BBB
:0C08A00001E0010EE552E7CFD9FF120085
:0408AC00D9CFE6FFBB
:1008B000E1CFD9FFFE0EDBCF9AF09AC09BF000018A
:1008C000040E9B03F3CF9BF0FC0E9B179A45E84662
:1008D000030B9A6F030E9A17E552E7CFD9FF120068
:1008E000D9CFE6FFE1CFD9FFFC0EDBCFE6FFDEDF9D
:1008F000E552FE0EDB50020A1AE0030A0DE0010A7F
:1009000020E1FD0EDB50E8B08180E8A081909AC024
:1009100078FF9BC079FF15D0FD0EDB50E8B08184D5
:10092000E8A081949AC076FF9BC077FF0AD0FD0EA5
:10093000DB50E8B0818AE8A0819A9AC074FF9BC01E
:1009400075FFE552E7CFD9FF1200D9CFE6FFE1CF1F
:10095000D9FFFE0EDB50E8B08180E8A08190FD0E4B
:10096000DB50E8B08184E8A08194FC0EDB50E8B055
:10097000818AE8A0819AE552E7CFD9FF1200D9CF4A
:10098000E6FFE1CFD9FFFE0EDBCFE6FF8FDFE552BA
:100990009AC078FF9BC079FFFD0EDBCFE6FF86DFB4
:1009A000E5529AC076FF9BC077FFFC0EDBCFE6FFD7
:1009B0007DDFE5529AC074FF9BC075FFE552E7CF1B
:0409C000D9FF120049
:0C09C400CA0EF66E010EF76E000EF86E03
:1009D00000010900F5507D6F0900F5507E6F03E1BD
:1009E0007D6701D03DD00900F550786F0900F550C2
:1009F000796F0900F5507A6F09000900F550E96E2A
:100A00000900F550EA6E090009000900F5507B6FF6
:100A10000900F5507C6F09000900F6CF7FF0F7CF91
:100A200080F0F8CF81F078C0F6FF79C0F7FF7AC088
:100A3000F8FF00017B5302E17C5307E00900F55009
:100A4000EE6E7B07F8E27C07F9D77FC0F6FF80C027
:100A5000F7FF81C0F8FF00017D07000E7E5BBFD766
:020A6000120082
:0E0A62009268936A3F0E946E816A816A826A7E
:100A70001200C29AC298F30EC2140009C26EC2805C
:100A8000C16AC06A9A6AE00E9A1402099A6E996A5B
:100A9000010EB86E91689068E70EB7141809B76E2A
:100AA000B7801200020E7F6E800E7E6E770E6F6E24
:100AB0006E6A7A6A7B681200F26A9D6AA06AA36A0B
:100AC000F28C9D8C9E9C9F9CF168D80EF06EF28AF1
:100AD000F194D08EF28EF28C1200D58ED59CD59AE0
:100AE000D596F80ED5140209D56E1200BADFC1DF13
:080AF000D9DFF3DF5CEF05F034
:080AF800829C829E12000001A5
:100B00009751100802E2828C07D09951D8809755EE
:100B100002E2827C01D0829C9851100802E2828E0F
:100B200007D09951D880985502E2827E01D0829EEA
:100B3000992B99510F0B996F12000001996B1200BC
:100B4000D9CFE6FFE1CFD9FFFE0EDB50E82400014C
:100B5000976FE850100801E3F0DFE552E7CFD9FFC7
:100B60001200D9CFE6FFE1CFD9FFFE0EDB50E8241B
:100B70000001986FE850100801E3DFDFE552E7CF8E
:040B8000D9FF120087
:0C0B8400DACFE4FFE652E8CF89F0D8CFCA
:100B90008AF0E0CF8BF0F0A005D0F0900001010EBC
:100BA0008F6F06D0F0A204D0F0920001010E906F7A
:100BB0008AC0D8FFE552E5CFDAFF1100DACFE4FFB3
:100BC000E652E8CF8CF0D8CF8DF0E0CF8EF09EAC1F
:100BD00007D09E9CC4CF92F00001010E916F06D009
:100BE000F2A404D0F2940001010E936F8DC0D8FFDF
:080BF000E552E5CFDAFF110028
:080BF800D9CFE6FFE1CFD9FFE0
:100C0000FE0EDB50040A19E0070A12E0010A0CE0AC
:100C1000030A06E0010A13E18050020B10E00BD03A
:100C20008050040B0CE007D08050080B08E003D084
:100C30008050100B04E0010E02D000019C51E552DF
:100C4000E7CFD9FF1200D9CFE6FFE1CFD9FFFE0EE3
:100C5000DB50040A03E1FD0EDBCF9CF0E552E7CF49
:040C6000D9FF1200A6
:0C0C6400000EF36E00EE00F0030E01D84D
:100C70001200EA6002D0EE6AFCD7F350E96012007D
:040C8000EE6AFCD745
:0C0C840012EE00F022EE00F0F86A0F9C67
:100C9000E2EC04F003EC00F022EC00F0FBD71200D1
:100CA000036A080EE76ED890073603360C50035CD3
:0C0CB00002E3036E072AE72EF7D71200BC
:040CBC00FF0EE350F4
:100CC000E84E1200000000D000D000D0E82EFAD785
:020CD000120010
:0E0CD2000102040308200000000000000000E2
:0A0CE0000000000001010101010104
:060CEA0000000000000004
:010CF0000003
:020000040030CA
:0100010002FC
:010002000DF0
:010003003EBE
:010004001CDF
:010005009D5D
:010006008178
:010008000FE8
:01000900C036
:01000A000FE6
:01000B00E014
:01000C000FE4
:01000D0040B2
:00000001FF
