:020000040000FA
:060000004EEF09F01200B2
:020006001200E6
:06000800C3EF05F0120039
:02000E000000F0
:080010000000000000000000E8
:06001800E5EF05F0120007
:02001E000500DB
:10002000E4120000900000000C000000E21200004A
:10003000C000000002000000DC120000B60000005A
:10004000060000000E000000A60000000A000000EC
:0C005000B8120000600000002400000056
:04005C00D9CFE6FF13
:10006000E1CFD9FF020EE126010E0001606F616B46
:10007000020E626F636B040E646F656B080E666F31
:10008000676B100E686F696B200E6A6F6B6BDE6AB0
:10009000DD6ADECF14F0DDCF15F0D890155004E600
:1000A000060E145C000E15581FE2DECFE9FFDDCF0F
:1000B000EAFFD890E936EA366C0EE926000EEA220D
:1000C000EE6AED6ADECFE9FFDDCFEAFFD890E936D0
:1000D000EA36780EE926000EEA22EE6AED6ADF2A99
:1000E000010ED7E3DB2AD5D7020EE15C02E2E16A1A
:1000F000E552E16EE552E7CFD9FF1200D9CFE6FF16
:10010000E1CFD9FFFD0EDBCF14F0FE0EDBCF15F0F3
:10011000060E145C000E155801E380D0FD0EDBCFF7
:10012000E9FFFE0EDBCFEAFF010ED890E936EA3692
:10013000E806FBE16C0EE926000EEA22EE2A000E2C
:10014000EF22FD0EDBCFE9FFFE0EDBCFEAFF010E53
:10015000D890E936EA36E806FBE16C0EE926000E97
:10016000EA22EECF14F0EFCF15F0FD0EDBCFE9FF62
:10017000FE0EDBCFEAFF010ED890E936EA36E8063C
:10018000FBE1600EE926000EEA22EECF16F0EFCF7B
:1001900017F01650145C1750155840E3FD0EDBCFD6
:1001A000E9FFFE0EDBCFEAFF010ED890E936EA3612
:1001B000E806FBE16C0EE926000EEA22EE6AED6A23
:1001C000FD0EDBCFE9FFFE0EDBCFEAFF010ED8907C
:1001D000E936EA36E806FBE1780EE926000EEA2267
:1001E000EE50ED1002E0000E01D0010E146E156A03
:1001F00014BE1568FD0EDBCFE9FFFE0EDBCFEAFF74
:10020000010ED890E936EA36E806FBE1780EE926D9
:10021000000EEA2214C0EEFF15C0EDFFE552E7CF55
:10022000D9FF1200D9CFE6FFE1CFD9FFFD0EDBCF1A
:1002300014F0FE0EDBCF15F0060E145C000E155800
:1002400024E2FD0EDBCFE9FFFE0EDBCFEAFF010E5D
:10025000D890E936EA36E806FBE1780EE926000E8A
:10026000EA22EE6AED6AFD0EDBCFE9FFFE0EDBCF80
:10027000EAFF010ED890E936EA36E806FBE16C0E9B
:10028000E926000EEA22EE6AED6AE552E7CFD9FFD1
:100290001200D9CFE6FFE1CFD9FFFD0EDBCF14F07E
:1002A000FE0EDBCF15F0060E145C000E155803E3AE
:1002B000F36AF46A18D0FD0EDBCFE9FFFE0EDBCF48
:1002C000EAFF010ED890E936EA36E806FBE1780E3F
:1002D000E926000EEA22EECF14F0EFCF15F014C09D
:1002E000F3FF15C0F4FFE552E7CFD9FF1200D9CFD5
:1002F000E6FFE1CFD9FFFD0EDBCF14F0FE0EDBCF22
:1003000015F0060E145C000E155801E3E5D0D95027
:10031000FB0FE96EFF0EDA20EA6E1F0ED880EE5456
:10032000000EED5412E3FD0EDBCFE9FFFE0EDBCF36
:10033000EAFF010ED890E936EA36E806FBE1600EE6
:10034000E926000EEA22010EC5D0D950FB0FE96E56
:10035000FF0EDA20EA6E3F0ED880EE54000EED5408
:1003600012E3FD0EDBCFE9FFFE0EDBCFEAFF010E4D
:10037000D890E936EA36E806FBE1600EE926000E81
:10038000EA22020EA7D0D950FB0FE96EFF0EDA2049
:10039000EA6E5F0ED880EE54000EED5412E3FD0EAF
:1003A000DBCFE9FFFE0EDBCFEAFF010ED890E93686
:1003B000EA36E806FBE1600EE926000EEA22030EAB
:1003C00089D0D950FB0FE96EFF0EDA20EA6E7F0E5E
:1003D000D880EE54000EED5412E3FD0EDBCFE9FFA2
:1003E000FE0EDBCFEAFF010ED890E936EA36E806CA
:1003F000FBE1600EE926000EEA22040E6BD0D95014
:10040000FB0FE96EFF0EDA20EA6E9F0ED880EE54E5
:10041000000EED5412E3FD0EDBCFE9FFFE0EDBCF45
:10042000EAFF010ED890E936EA36E806FBE1600EF5
:10043000E926000EEA22080E4DD0D950FB0FE96ED6
:10044000FF0EDA20EA6EBF0ED880EE54000EED5497
:1004500012E3FD0EDBCFE9FFFE0EDBCFEAFF010E5C
:10046000D890E936EA36E806FBE1600EE926000E90
:10047000EA220C0E2FD0D950FB0FE96EFF0EDA20C6
:10048000EA6EDF0ED880EE54000EED5412E3FD0E3E
:10049000DBCFE9FFFE0EDBCFEAFF010ED890E93695
:1004A000EA36E806FBE1600EE926000EEA22100EAD
:1004B00011D0FD0EDBCFE9FFFE0EDBCFEAFF010E10
:1004C000D890E936EA36E806FBE1600EE926000E30
:1004D000EA22200EEE6EED6AE552E7CFD9FF120058
:1004E000D9CFE6FFE1CFD9FF020EE12660C0DEFFE3
:1004F00061C0DDFF6AC060F06BC061F068C06AF087
:1005000069C06BF066C068F067C069F064C066F0EF
:1005100065C067F062C064F063C065F0DECF62F072
:10052000DDCF63F0E15C02E2E16AE552E16EE552A3
:10053000E7CFD9FF1200D9CFE6FFE1CFD9FF060EF2
:10054000E12660C0DEFF61C0DDFF020E62C0DBFF9E
:10055000030E63C0DBFF040E64C0DBFF050E65C045
:10056000DBFF66C060F067C061F068C062F069C020
:1005700063F06AC064F06BC065F0DECF66F0DDCF7B
:1005800067F0020EDBCF68F0030EDBCF69F0040EDC
:10059000DBCF6AF0050EDBCF6BF0060EE15C02E20A
:0E05A000E16AE552E16EE552E7CFD9FF1200A5
:0205AE00D9CFA3
:1005B000E6FFE1CFD9FFE150FD0FE96EFF0EDA2033
:1005C000EA6E010ED880EE54000EED5413E3FD0EDA
:1005D000DBCFE9FFFE0EDBCFEAFF010ED890E93654
:1005E000EA36E806FBE1B00EE926000EEA22010E2B
:1005F000EE6EED6AE552E7CFD9FF1200D9CFE6FFE4
:10060000E1CFD9FFE150FD0FE96EFF0EDA20EA6E6F
:10061000010ED880EE54000EED5403E2F36AF46A42
:100620002AD0FD0EDBCFE9FFFE0EDBCFEAFF010E85
:10063000D890E936EA36E806FBE1B00EE926000E6E
:10064000EA22EECFB4F0EDCFB5F0FD0EDBCFE9FF3F
:10065000FE0EDBCFEAFF010ED890E936EA36E80657
:10066000FBE1B00EE926000EEA22EE6AED6AB4C0A4
:10067000F3FFB5C0F4FFE552E7CFD9FF1200D9CFA1
:10068000E6FFE1CFD9FFE150FD0FE96EFF0EDA2062
:10069000EA6EEE50ED1001E07FD0000EE66EE66AE5
:1006A00017EC08F0E552E552F3CF14F0F4CF15F053
:1006B000F350F41014E0000EE66EE66A12EC01F05E
:1006C000E552E552010EE66EE66A12EC01F0E552E3
:1006D000E552020EE66EE66A12EC01F013D0000E4F
:1006E000E66EE66A7EEC00F0E552E552010EE66E3B
:1006F000E66A7EEC00F0E552E552020EE66EE66A2E
:100700007EEC00F0E552E552020EE66EE66A49EC38
:1007100001F0E552E552F3CF16F0F4CF17F0F350A5
:10072000F41002E0146801D0146A156A14C0E6FFE0
:1007300015C0E6FF010EE66EE66A49EC01F0E552EF
:10074000E552F3CF1AF0F4CF1BF0F350F41002E0AF
:10075000186801D0186A196A18C0E6FF19C0E6FFC8
:10076000000EE66EE66A49EC01F0E552E552F3CF81
:100770001EF0F4CF1FF0F350F41002E01C6801D01B
:100780001C6A1D6A1CC0E6FF1DC0E6FF7BEC07F07B
:10079000206E060EE15E2050D950FD0FE96EFF0E6F
:1007A000DA20EA6E010EEE186CE1ED506AE1010EFE
:1007B000E66EE66A17EC08F0E552E552F3CF14F066
:1007C000F4CF15F0F350F41014E0030EE66EE66A71
:1007D00012EC01F0E552E552040EE66EE66A12EC08
:1007E00001F0E552E552050EE66EE66A12EC01F004
:1007F00013D0030EE66EE66A7EEC00F0E552E55299
:10080000040EE66EE66A7EEC00F0E552E552050E57
:10081000E66EE66A7EEC00F0E552E552050EE66E05
:10082000E66A49EC01F0E552E552F3CF14F0F4CF5B
:1008300015F0F3CFE6FFF4CFE6FF040EE66EE66AAE
:1008400049EC01F0E552E552F3CF16F0F4CF17F082
:10085000F3CFE6FFF4CFE6FF030EE66EE66A49EC5F
:1008600001F0E552E552F3CF18F0F4CF19F0F3CFD1
:10087000E6FFF4CFE6FF61EC07F01A6E060EE15ECC
:100880001A50E552E7CFD9FF1200D9CFE6FFE1CFEA
:10089000D9FFFD0EDBCF08F0FE0EDBCF09F0010E15
:1008A000081801E1095009E008500FE109500DE175
:1008B0008250100B06E0010E04D08250200B01E0A4
:1008C000010E156AF36E15C0F4FFE552E7CFD9FFAC
:0208D000120014
:0E08D200786A796A766A776A746A756A1200C3
:1008E0003F0E786E7968766E7768746E7568120060
:1008F0000001F40E946F010E956F12000001000EBE
:10090000D8809455000E955503E29407000E955B30
:10091000000ED8809455000E955502E3000E01D0CC
:10092000010E146E156A14BE156814C0F3FF15C0CD
:10093000F4FF12000001965197110CE096519711A7
:1009400002E0000E01D0010E966F976B800B01E064
:100950009769CEDF120000019651971139E1965147
:10096000971102E0000E01D0010E966F976B800B7D
:1009700001E09769BDDF0001922B000E9323936B7A
:10098000030E9217921901E193511BE0020E921986
:1009900001E193510EE0010E921901E1935107E03C
:1009A000925101E1935101E01200000E03D0630E59
:1009B00001D0010EE66EE66AD9EC07F0E552E55289
:1009C0001200060EE66EE66AD9EC07F0E552E55233
:1009D00012000001985199110CE09851991102E010
:1009E000000E01D0010E986F996B800B01E09969A0
:1009F0007FDF120000019851991125E1985199115A
:100A000002E0000E01D0010E986F996B800B01E09F
:100A100099696EDF0001902B000E9123070E0D6E79
:100A20000E6A90C008F091C009F028EC09F004C0EB
:100A300090F005C091F004C0E6FF05C0E6FFF8ECB9
:100A400007F0E552E552120000019A519B110CE0AB
:100A50009A519B1102E0000E01D0010E9A6F9B6B20
:100A6000800B01E09B6944DF120000019A519B1149
:100A700049E19A519B1102E0000E01D0010E9A6FDC
:100A80009B6B800B01E09B6933DF030E0001921921
:100A900001E1935115E0020E921901E193510EE02C
:100AA000010E921901E1935107E0000ED880905594
:100AB000000E915527E206D070EF02F09BEF02F096
:100AC0002EEF00F0040EE66EE66A17EC08F0E55231
:100AD000E552F3CF14F0F4CF15F0F3CFE6FFF4CFE7
:100AE000E6FF90C016F091C017F01606000E175AD8
:100AF00016C0E6FF17C0E6FF77EC01F0E552E552BD
:100B0000E552E552120082A00AD0F8DEF3CF14F0CD
:100B1000F4CF15F0F350F4100BE10CDF09D0EEDE4A
:100B2000F3CF14F0F4CF15F0F350F41001E113DF1C
:100B300082A20AD0E3DEF3CF14F0F4CF15F0F35025
:100B4000F4100BE146DF09D0D9DEF3CF14F0F4CF77
:100B500015F0F350F41001E14DDF82A40AD0CEDE8F
:100B6000F3CF14F0F4CF15F0F350F4100BE124EFB1
:100B700005F0C4DEF3CF14F0F4CF15F0F350F41009
:060B800001E173DF120029
:0A0B8600DACFE4FFE2CFDAFFE65217
:100B9000846ED8CF86F0E0CF88F0F0A006D0F09039
:100BA000010E0001A66FA76B07D0F0A205D0F0924E
:100BB000010E0001A86FA96B88C0E0FF845086C0B9
:100BC000D8FFE552E5CFDAFF1100DACFE4FFE2CF3C
:100BD000DAFFE652D8CF8CF0E0CF8EF09EAC0AD090
:100BE0009E9CC4500001AC6FAD6B010E0001AA6F5A
:100BF000AB6B07D0F2A405D0F294010E0001AE6FEA
:100C0000AF6B8EC0E0FF8CC0D8FFE552E5CFDAFFB6
:100C10001100D9CFE6FFE1CFD9FF040EE126010E86
:100C2000DE6EDD6ADECF14F0DDCF15F0FD0EDBCF1A
:100C300016F0FE0EDBCF17F017501518E8AE02D0F5
:100C4000153404D01450165C155017581DE3020ECD
:100C5000DB6A030EDB6A020EDBCF14F0030EDBCF80
:100C600015F0D890155004E6100E145C270E155898
:100C700006E2020EDB2A030EEEE3DB2AECD7DF2AC4
:100C8000010ED0E3DB2ACED7040EE15C02E2E16A7A
:100C9000E552E16EE552E7CFD9FF1200D9CFE6FF6A
:100CA000E1CFD9FF040EE126DE6ADD6A020EDB6ABF
:100CB000030EDB6A04EC09F02EEC00F0AAEC07F05E
:100CC0000001A651A71109E0A66BA76B000EE66E06
:100CD000E66A3FEC03F0E552E5520001A851A91184
:100CE00009E0A86BA96B010EE66EE66A3FEC03F023
:100CF000E552E5520001AE51AF1104E0AE6BAF6BAF
:100D0000ADEC07F00001AA51AB110FE0AA6BAB6B81
:100D1000ACC0E6FFADC0E6FF040EE66EE66A57EC37
:100D200008F0E552E552E552E55283EC05F0D9CFE3
:100D3000E9FFDACFEAFFEE50ED1014E1020EE66EA5
:100D4000E66A17EC08F0E552E552F3CF14F0F4CF61
:100D500015F0F350F41016E0010EDE6EDD6A70EC53
:100D600002F010D0020EE66EE66A17EC08F0E552CB
:100D7000E552F3CF14F0F4CF15F0F350F41002E184
:100D8000DE6ADD6AD950020FE96EDACFEAFFEE5073
:100D9000ED1018E1030EE66EE66A17EC08F0E55276
:100DA000E552F3CF14F0F4CF15F0F350F41088E0CF
:100DB000010EF36E020EF3CFDBFF030EDB6A9BEC3A
:100DC00002F07ED7030EE66EE66A17EC08F0E552F5
:100DD000E552F3CF14F0F4CF15F0F350F41001E026
:0C0DE0006FD7020EDB6A030EDB6A6AD7D5
:040DEC00D9CFE6FF76
:100DF000E1CFD9FFFD0EDBCFBCF0FE0EDBCFBDF0A7
:100E0000BCC0BEF0020E0001D890BE37E806FCE17F
:100E1000FC0E0001BE17BF6B060E0F0B05E0D8904D
:100E2000BD33BC33E806FBE1030E0001BC17BD6B0C
:100E3000E552E7CFD9FF1200D9CFE6FFE1CFD9FFC6
:100E4000F90EDBCFE6FFFA0EDBCFE6FFCFDFE55290
:100E5000E552FD0EDBCF08F0FE0EDBCF09F0020EEF
:100E6000081801E109501FE0010E081801E10950BE
:100E70000FE0085022E1095020E1FB0EDB50E8B002
:100E80008180E8A08190BCC078FFBEC079FF15D0FA
:100E9000FB0EDB50E8B08184E8A08194BCC076FFF3
:100EA000BEC077FF0AD0FB0EDB50E8B0818AE8A015
:100EB000819ABCC074FFBEC075FFE552E7CFD9FF71
:100EC0001200D9CFE6FFE1CFD9FFFD0EDB50E8B02D
:100ED0008180E8A08190FB0EDB50E8B08184E8A01F
:100EE0008194F90EDB50E8B0818AE8A0819AE5523E
:100EF000E7CFD9FF1200D9CFE6FFE1CFD9FFFD0E32
:100F0000DBCFE6FFFE0EDBCFE6FF70DFE552E552FA
:100F1000BCC078FFBEC079FFFB0EDBCFE6FFFC0E46
:100F2000DBCFE6FF63DFE552E552BCC076FFBEC013
:100F300077FFF90EDBCFE6FFFA0EDBCFE6FF56DFD9
:100F4000E552E552BCC074FFBEC075FFE552E7CF65
:040F5000D9FF1200B3
:0C0F5400829C829E12000001100ED880CA
:100F6000B655000EB75502E2828C08D0B651BA5D74
:100F7000B751BB5902E2827C01D0829C100ED8800E
:100F8000B855000EB95502E2828E08D0B851BA5D4C
:100F9000B951BB5902E2827E01D0829EBA2B000E6B
:100FA000BB23BB6B0F0EBA1712000001BA6BBB6BF1
:100FB0001200D9CFE6FFE1CFD9FF020E086E096A11
:100FC000FD0EDBCF0DF0FE0EDBCF0EF00AEC09F0CC
:100FD00006C0B6F007C0B7F00001100ED880065466
:100FE000000E075401E3E1DFE552E7CFD9FF12001D
:100FF000D9CFE6FFE1CFD9FF020E086E096AFD0ED8
:10100000DBCF0DF0FE0EDBCF0EF00AEC09F006C0D0
:10101000B8F007C0B9F00001100ED8800654000ED9
:0E102000075401E3C2DFE552E7CFD9FF12000B
:02102E00D9CF18
:10103000E6FFE1CFD9FFFD0EDBCF08F0FE0EDBCFE0
:1010400009F0040E081801E1095029E0030E081800
:1010500001E109501BE0020E081801E1095011E0FE
:10106000010E081801E1095008E008501CE1095080
:101070001AE18050020B0EE007D08050040B0AE00A
:1010800003D08050080B06E0010E04D08050100BF6
:1010900001E0010E156AF36E15C0F4FF04D0C0C064
:1010A000F3FFC1C0F4FFE552E7CFD9FF1200D9CF5B
:1010B000E6FFE1CFD9FFFD0EDBCF08F0FE0EDBCF60
:1010C00009F0040E081808E1095006E1FB0EDBCF19
:1010D000C0F0FC0EDBCFC1F0E552E7CFD9FF120024
:1010E0001E0EF66E000EF76E000EF86E000109007F
:1010F000F550A16F0900F550A26F03E1A16701D07F
:101100003DD00900F5509C6F0900F5509D6F090016
:10111000F5509E6F09000900F550E96E0900F55081
:10112000EA6E090009000900F5509F6F0900F550AB
:10113000A06F09000900F6CFA3F0F7CFA4F0F8CF15
:10114000A5F09CC0F6FF9DC0F7FF9EC0F8FF000110
:101150009F5302E1A05307E00900F550EE6E9F0790
:10116000F8E2A007F9D7A3C0F6FFA4C0F7FFA5C017
:0E117000F8FF0001A107000EA25BBFD712001E
:02117E00926875
:10118000936A3F0E946E816A816A826A1200C29AE3
:10119000C298F30EC2140009C26EC280C16AC06A4E
:1011A0009A6AE00E9A1402099A6E996A010EB86E54
:1011B00091689068E70EB7141809B76EB7801200EF
:1011C000020E7F6E800E7E6E770E6F6E6E6A7A6A8A
:1011D0007B681200F26A9D6AA06AA36AF28C9D8CF9
:1011E0009E9C9F9CF168D80EF06EF28AF194D08E8E
:1011F000F28EF28C1200D58ED59CD59AD596F80E2B
:10120000D5140209D56E1200BADFC1DFD9DFF3DFD2
:04121000EAEF08F009
:0C12140008C012F008500D02F4CF07F0E3
:10122000F3CF06F009500E02F4CF09F0F3CF08F027
:101230000D02F3500726F4500822E86A09221250E2
:101240000E02F3500726F4500822E86A0922000C27
:10125000056A046A100EE76ED8900836093604361F
:1012600005360D50045C0E50055805E30D50045E24
:0C1270000E50055A082AE72EF0D7120095
:04127C00000EF36EFF
:1012800000EE00F0030E01D81200EA6002D0EE6A10
:0C129000FCD7F350E9601200EE6AFCD7B6
:04129C0012EE00F05E
:1012A00022EE00F0F86A019C70EC08F003EC00F00C
:0812B0004EEC06F0FBD7120022
:0812B80001000200040008001F
:1012C00010002000000000000000000000000000EE
:0C12D00000000000000000000000000012
:0412DC00000000000E
:0212E00000000C
:0212E20000000A
:0C12E400000000000000000000000000FE
:020000040030CA
:0100010002FC
:010002000DF0
:010003003EBE
:010004001CDF
:010005009D5D
:010006008178
:010008000FE8
:01000900C036
:01000A000FE6
:01000B00E014
:01000C000FE4
:01000D0040B2
:00000001FF
