:020000040000FA
:0600000034EF09F01200CC
:020006001200E6
:06000800C3EF05F0120039
:02000E000000F0
:080010000000000000000000E8
:06001800D9EF05F0120013
:02001E000500DB
:10002000B0120000840000000C000000AE120000BE
:10003000B400000002000000A8120000AA000000A6
:10004000060000000E0000009A0000000A000000F8
:0C0050008412000060000000240000008A
:04005C00D9CFE6FF13
:10006000E1CFD9FF020EE126010E0001606F616B46
:10007000020E626F636B040E646F656B080E666F31
:10008000676B100E686F696B200E6A6F6B6BDE6AB0
:10009000DD6ADECF14F0DDCF15F0D890155004E600
:1000A000060E145C000E15581FE2DECFE9FFDDCF0F
:1000B000EAFFD890E936EA366C0EE926000EEA220D
:1000C000EE6AED6ADECFE9FFDDCFEAFFD890E936D0
:1000D000EA36780EE926000EEA22EE6AED6ADF2A99
:1000E000010ED7E3DB2AD5D7020EE15C02E2E16A1A
:1000F000E552E16EE552E7CFD9FF1200D9CFE6FF16
:10010000E1CFD9FFFD0EDBCF14F0FE0EDBCF15F0F3
:10011000060E145C000E155801E380D0FD0EDBCFF7
:10012000E9FFFE0EDBCFEAFF010ED890E936EA3692
:10013000E806FBE16C0EE926000EEA22EE2A000E2C
:10014000EF22FD0EDBCFE9FFFE0EDBCFEAFF010E53
:10015000D890E936EA36E806FBE16C0EE926000E97
:10016000EA22EECF14F0EFCF15F0FD0EDBCFE9FF62
:10017000FE0EDBCFEAFF010ED890E936EA36E8063C
:10018000FBE1600EE926000EEA22EECF16F0EFCF7B
:1001900017F01650145C1750155840E3FD0EDBCFD6
:1001A000E9FFFE0EDBCFEAFF010ED890E936EA3612
:1001B000E806FBE16C0EE926000EEA22EE6AED6A23
:1001C000FD0EDBCFE9FFFE0EDBCFEAFF010ED8907C
:1001D000E936EA36E806FBE1780EE926000EEA2267
:1001E000EE50ED1002E0000E01D0010E146E156A03
:1001F00014BE1568FD0EDBCFE9FFFE0EDBCFEAFF74
:10020000010ED890E936EA36E806FBE1780EE926D9
:10021000000EEA2214C0EEFF15C0EDFFE552E7CF55
:10022000D9FF1200D9CFE6FFE1CFD9FFFD0EDBCF1A
:1002300014F0FE0EDBCF15F0060E145C000E155800
:1002400024E2FD0EDBCFE9FFFE0EDBCFEAFF010E5D
:10025000D890E936EA36E806FBE1780EE926000E8A
:10026000EA22EE6AED6AFD0EDBCFE9FFFE0EDBCF80
:10027000EAFF010ED890E936EA36E806FBE16C0E9B
:10028000E926000EEA22EE6AED6AE552E7CFD9FFD1
:100290001200D9CFE6FFE1CFD9FFFD0EDBCF14F07E
:1002A000FE0EDBCF15F0060E145C000E155803E3AE
:1002B000F36AF46A18D0FD0EDBCFE9FFFE0EDBCF48
:1002C000EAFF010ED890E936EA36E806FBE1780E3F
:1002D000E926000EEA22EECF14F0EFCF15F014C09D
:1002E000F3FF15C0F4FFE552E7CFD9FF1200D9CFD5
:1002F000E6FFE1CFD9FFFD0EDBCF14F0FE0EDBCF22
:1003000015F0060E145C000E155801E3E5D0D95027
:10031000FB0FE96EFF0EDA20EA6E1F0ED880EE5456
:10032000000EED5412E3FD0EDBCFE9FFFE0EDBCF36
:10033000EAFF010ED890E936EA36E806FBE1600EE6
:10034000E926000EEA22010EC5D0D950FB0FE96E56
:10035000FF0EDA20EA6E3F0ED880EE54000EED5408
:1003600012E3FD0EDBCFE9FFFE0EDBCFEAFF010E4D
:10037000D890E936EA36E806FBE1600EE926000E81
:10038000EA22020EA7D0D950FB0FE96EFF0EDA2049
:10039000EA6E5F0ED880EE54000EED5412E3FD0EAF
:1003A000DBCFE9FFFE0EDBCFEAFF010ED890E93686
:1003B000EA36E806FBE1600EE926000EEA22030EAB
:1003C00089D0D950FB0FE96EFF0EDA20EA6E7F0E5E
:1003D000D880EE54000EED5412E3FD0EDBCFE9FFA2
:1003E000FE0EDBCFEAFF010ED890E936EA36E806CA
:1003F000FBE1600EE926000EEA22040E6BD0D95014
:10040000FB0FE96EFF0EDA20EA6E9F0ED880EE54E5
:10041000000EED5412E3FD0EDBCFE9FFFE0EDBCF45
:10042000EAFF010ED890E936EA36E806FBE1600EF5
:10043000E926000EEA22080E4DD0D950FB0FE96ED6
:10044000FF0EDA20EA6EBF0ED880EE54000EED5497
:1004500012E3FD0EDBCFE9FFFE0EDBCFEAFF010E5C
:10046000D890E936EA36E806FBE1600EE926000E90
:10047000EA220C0E2FD0D950FB0FE96EFF0EDA20C6
:10048000EA6EDF0ED880EE54000EED5412E3FD0E3E
:10049000DBCFE9FFFE0EDBCFEAFF010ED890E93695
:1004A000EA36E806FBE1600EE926000EEA22100EAD
:1004B00011D0FD0EDBCFE9FFFE0EDBCFEAFF010E10
:1004C000D890E936EA36E806FBE1600EE926000E30
:1004D000EA22200EEE6EED6AE552E7CFD9FF120058
:1004E000D9CFE6FFE1CFD9FF020EE12660C0DEFFE3
:1004F00061C0DDFF6AC060F06BC061F068C06AF087
:1005000069C06BF066C068F067C069F064C066F0EF
:1005100065C067F062C064F063C065F0DECF62F072
:10052000DDCF63F0E15C02E2E16AE552E16EE552A3
:10053000E7CFD9FF1200D9CFE6FFE1CFD9FF060EF2
:10054000E12660C0DEFF61C0DDFF020E62C0DBFF9E
:10055000030E63C0DBFF040E64C0DBFF050E65C045
:10056000DBFF66C060F067C061F068C062F069C020
:1005700063F06AC064F06BC065F0DECF66F0DDCF7B
:1005800067F0020EDBCF68F0030EDBCF69F0040EDC
:10059000DBCF6AF0050EDBCF6BF0060EE15C02E20A
:0E05A000E16AE552E16EE552E7CFD9FF1200A5
:0205AE00D9CFA3
:1005B000E6FFE1CFD9FFE150FD0FE96EFF0EDA2033
:1005C000EA6E010ED880EE54000EED5413E3FD0EDA
:1005D000DBCFE9FFFE0EDBCFEAFF010ED890E93654
:1005E000EA36E806FBE1A40EE926000EEA22010E37
:1005F000EE6EED6AE552E7CFD9FF1200D9CFE6FFE4
:10060000E1CFD9FFE150FD0FE96EFF0EDA20EA6E6F
:10061000010ED880EE54000EED5403E2F36AF46A42
:100620002AD0FD0EDBCFE9FFFE0EDBCFEAFF010E85
:10063000D890E936EA36E806FBE1A40EE926000E7A
:10064000EA22EECFA8F0EDCFA9F0FD0EDBCFE9FF57
:10065000FE0EDBCFEAFF010ED890E936EA36E80657
:10066000FBE1A40EE926000EEA22EE6AED6AA8C0BC
:10067000F3FFA9C0F4FFE552E7CFD9FF1200D9CFAD
:10068000E6FFE1CFD9FFE150FD0FE96EFF0EDA2062
:10069000EA6EEE50ED1001E07FD0000EE66EE66AE5
:1006A00000EC08F0E552E552F3CF14F0F4CF15F06A
:1006B000F350F41014E0000EE66EE66A12EC01F05E
:1006C000E552E552010EE66EE66A12EC01F0E552E3
:1006D000E552020EE66EE66A12EC01F013D0000E4F
:1006E000E66EE66A7EEC00F0E552E552010EE66E3B
:1006F000E66A7EEC00F0E552E552020EE66EE66A2E
:100700007EEC00F0E552E552020EE66EE66A49EC38
:1007100001F0E552E552F3CF16F0F4CF17F0F350A5
:10072000F41002E0146801D0146A156A14C0E6FFE0
:1007300015C0E6FF010EE66EE66A49EC01F0E552EF
:10074000E552F3CF1AF0F4CF1BF0F350F41002E0AF
:10075000186801D0186A196A18C0E6FF19C0E6FFC8
:10076000000EE66EE66A49EC01F0E552E552F3CF81
:100770001EF0F4CF1FF0F350F41002E01C6801D01B
:100780001C6A1D6A1CC0E6FF1DC0E6FF64EC07F092
:10079000206E060EE15E2050D950FD0FE96EFF0E6F
:1007A000DA20EA6E010EEE186CE1ED506AE1010EFE
:1007B000E66EE66A00EC08F0E552E552F3CF14F07D
:1007C000F4CF15F0F350F41014E0030EE66EE66A71
:1007D00012EC01F0E552E552040EE66EE66A12EC08
:1007E00001F0E552E552050EE66EE66A12EC01F004
:1007F00013D0030EE66EE66A7EEC00F0E552E55299
:10080000040EE66EE66A7EEC00F0E552E552050E57
:10081000E66EE66A7EEC00F0E552E552050EE66E05
:10082000E66A49EC01F0E552E552F3CF14F0F4CF5B
:1008300015F0F3CFE6FFF4CFE6FF040EE66EE66AAE
:1008400049EC01F0E552E552F3CF16F0F4CF17F082
:10085000F3CFE6FFF4CFE6FF030EE66EE66A49EC5F
:1008600001F0E552E552F3CF18F0F4CF19F0F3CFD1
:10087000E6FFF4CFE6FF4AEC07F01A6E060EE15EE3
:100880001A50E552E7CFD9FF1200D9CFE6FFE1CFEA
:10089000D9FFFD0EDBCF08F0FE0EDBCF09F0010E15
:1008A000081801E1095009E008500FE109500DE175
:1008B0008250100B06E0010E04D08250200B01E0A4
:1008C000010E156AF36E15C0F4FFE552E7CFD9FFAC
:0208D000120014
:0E08D200786A796A766A776A746A756A1200C3
:1008E0003F0E786E7968766E7768746E7568120060
:1008F0000001F40E886F010E896F12000001000ED6
:10090000D8808855000E895503E28807000E895B60
:10091000000ED8808855000E895502E3000E01D0E4
:10092000010E146E156A14BE156814C0F3FF15C0CD
:10093000F4FF120000018A518B110CE08A518B11D7
:1009400002E0000E01D0010E8A6F8B6B800B01E07C
:100950008B69CEDF120000018A518B1139E18A5177
:100960008B1102E0000E01D0010E8A6F8B6B800BA1
:1009700001E08B69BDDF0001862B000E8723876BAA
:10098000030E8617861901E187511BE0020E8619B6
:1009900001E187510EE0010E861901E1875107E060
:1009A000865101E1875101E01200000E03D0630E71
:1009B00001D0010EE66EE66AC2EC07F0E552E552A0
:1009C0001200060EE66EE66AC2EC07F0E552E5524A
:1009D000120000018C518D110CE08C518D1102E040
:1009E000000E01D0010E8C6F8D6B800B01E08D69C4
:1009F0007FDF120000018C518D1125E18C518D118A
:100A000002E0000E01D0010E8C6F8D6B800B01E0B7
:100A10008D696EDF0001842B000E8523070E0D6E9D
:100A20000E6A84C008F085C009F00EEC09F004C01D
:100A300084F005C085F004C0E6FF05C0E6FFE1ECE8
:100A400007F0E552E552120000018E518F110CE0C3
:100A50008E518F1102E0000E01D0010E8E6F8F6B50
:100A6000800B01E08F6944DF120000018E518F116D
:100A700049E18E518F1102E0000E01D0010E8E6F00
:100A80008F6B800B01E08F6933DF030E0001861945
:100A900001E1875115E0020E861901E187510EE050
:100AA000010E861901E1875107E0000ED8808455B8
:100AB000000E855527E206D070EF02F09BEF02F0A2
:100AC0002EEF00F0040EE66EE66A00EC08F0E55248
:100AD000E552F3CF14F0F4CF15F0F3CFE6FFF4CFE7
:100AE000E6FF84C016F085C017F01606000E175AF0
:100AF00016C0E6FF17C0E6FF77EC01F0E552E552BD
:100B0000E552E552120082A00AD0F8DEF3CF14F0CD
:100B1000F4CF15F0F350F4100BE10CDF09D0EEDE4A
:100B2000F3CF14F0F4CF15F0F350F41001E113DF1C
:100B300082A20AD0E3DEF3CF14F0F4CF15F0F35025
:100B4000F4100BE146DF09D0D9DEF3CF14F0F4CF77
:100B500015F0F350F41001E14DDF82A40AD0CEDE8F
:100B6000F3CF14F0F4CF15F0F350F4100BE124EFB1
:100B700005F0C4DEF3CF14F0F4CF15F0F350F41009
:060B800001E173DF120029
:0A0B8600DACFE4FFE652F0A006D03B
:100B9000F090010E00019A6F9B6B07D0F0A205D078
:100BA000F092010E00019C6F9D6BE552E5CFDAFFDC
:100BB0001100DACFE4FFE652F2A406D0F294010E5F
:100BC0000001A26FA36B0AD09EAC08D09E9CC450BB
:100BD0000001A06FA16B010E9E6F9F6BE552E5CFE8
:100BE000DAFF1100D9CFE6FFE1CFD9FF040EE126ED
:100BF000010EDE6EDD6ADECF14F0DDCF15F0FD0EE6
:100C0000DBCF16F0FE0EDBCF17F017501518E8AE4D
:100C100002D0153404D01450165C155017581DE33B
:100C2000020EDB6A030EDB6A020EDBCF14F0030E4A
:100C3000DBCF15F0D890155004E6100E145C270E8B
:100C4000155806E2020EDB2A030EEEE3DB2AECD790
:100C5000DF2A010ED0E3DB2ACED7040EE15C02E2EC
:100C6000E16AE552E16EE552E7CFD9FF1200D9CF34
:100C7000E6FFE1CFD9FF040EE126DE6ADD6A020E4F
:100C8000DB6A030EDB6AEAEC08F02EEC00F093EC72
:100C900007F000019A519B1109E09A6B9B6B000EC3
:100CA000E66EE66A3FEC03F0E552E55200019C5126
:100CB0009D1109E09C6B9D6B010EE66EE66A3FECB0
:100CC00003F0E552E5520001A251A31104E0A26B2A
:100CD000A36B96EC07F000019E519F110FE09E6BF5
:100CE0009F6BA0C0E6FFA1C0E6FF040EE66EE66AB9
:100CF00040EC08F0E552E552E552E55283EC05F090
:100D0000D9CFE9FFDACFEAFFEE50ED1014E1020E81
:100D1000E66EE66A00EC08F0E552E552F3CF14F017
:100D2000F4CF15F0F350F41016E0010EDE6EDD6A1C
:100D300070EC02F010D0020EE66EE66A00EC08F0ED
:100D4000E552E552F3CF14F0F4CF15F0F350F41060
:100D500002E1DE6ADD6AD950020FE96EDACFEAFFFE
:100D6000EE50ED1018E1030EE66EE66A00EC08F0B6
:100D7000E552E552F3CF14F0F4CF15F0F350F41030
:100D800088E0010EF36E020EF3CFDBFF030EDB6A89
:100D90009BEC02F07ED7030EE66EE66A00EC08F0EC
:100DA000E552E552F3CF14F0F4CF15F0F350F41000
:0E0DB00001E06FD7020EDB6A030EDB6A6AD722
:020DBE00D9CF8B
:100DC000E6FFE1CFD9FFFD0EDBCFB0F0FE0EDBCFAB
:100DD000B1F0B0C0B2F0020E0001D890B237E80610
:100DE000FCE1FC0E0001B217B36B060E0F0B05E021
:100DF000D890B133B033E806FBE1030E0001B01721
:100E0000B16BE552E7CFD9FF1200D9CFE6FFE1CFB2
:100E1000D9FFF90EDBCFE6FFFA0EDBCFE6FFCFDF1F
:100E2000E552E552FD0EDBCF08F0FE0EDBCF09F0F8
:100E3000020E081801E109501FE0010E081801E137
:100E400009500FE0085022E1095020E1FB0EDB5071
:100E5000E8B08180E8A08190B0C078FFB2C079FF8F
:100E600015D0FB0EDB50E8B08184E8A08194B0C0BF
:100E700076FFB2C077FF0AD0FB0EDB50E8B0818A64
:100E8000E8A0819AB0C074FFB2C075FFE552E7CF09
:100E9000D9FF1200D9CFE6FFE1CFD9FFFD0EDB501D
:100EA000E8B08180E8A08190FB0EDB50E8B081843F
:100EB000E8A08194F90EDB50E8B0818AE8A0819A1D
:100EC000E552E7CFD9FF1200D9CFE6FFE1CFD9FF36
:100ED000FD0EDBCFE6FFFE0EDBCFE6FF70DFE55257
:100EE000E552B0C078FFB2C079FFFB0EDBCFE6FF62
:100EF000FC0EDBCFE6FF63DFE552E552B0C076FFC4
:100F0000B2C077FFF90EDBCFE6FFFA0EDBCFE6FFCC
:100F100056DFE552E552B0C074FFB2C075FFE5522E
:060F2000E7CFD9FF12002B
:0A0F2600829C829E12000001100E52
:100F3000D880AA55000EAB5502E2828C08D0AA5187
:100F4000AE5DAB51AF5902E2827C01D0829C100EA3
:100F5000D880AC55000EAD5502E2828E08D0AC515F
:100F6000AE5DAD51AF5902E2827E01D0829EAE2BC2
:100F7000000EAF23AF6B0F0EAE1712000001AE6B69
:100F8000AF6B1200D9CFE6FFE1CFD9FF020E086E9A
:100F9000096AFD0EDBCF0DF0FE0EDBCF0EF0F0EC9C
:100FA00008F006C0AAF007C0ABF00001100ED88010
:100FB0000654000E075401E3E1DFE552E7CFD9FF05
:100FC0001200D9CFE6FFE1CFD9FF020E086E096A01
:100FD000FD0EDBCF0DF0FE0EDBCF0EF0F0EC08F0D7
:100FE00006C0ACF007C0ADF00001100ED88006546A
:100FF000000E075401E3C2DFE552E7CFD9FF12002C
:10100000D9CFE6FFE1CFD9FFFD0EDBCF08F0FE0E12
:10101000DBCF09F0040E081801E1095029E0030EA6
:10102000081801E109501BE0020E081801E10950FF
:1010300011E0010E081801E1095008E008501CE118
:1010400009501AE18050020B0EE007D08050040BCB
:101050000AE003D08050080B06E0010E04D0805057
:10106000100B01E0010E156AF36E15C0F4FF04D0F9
:10107000B4C0F3FFB5C0F4FFE552E7CFD9FF1200CB
:10108000D9CFE6FFE1CFD9FFFD0EDBCF08F0FE0E92
:10109000DBCF09F0040E081808E1095006E1FB0E49
:1010A000DBCFB4F0FC0EDBCFB5F0E552E7CFD9FFD4
:0210B00012002C
:0E10B2001E0EF66E000EF76E000EF86E0001B8
:1010C0000900F550956F0900F550966F03E195679B
:1010D00001D03DD00900F550906F0900F550916F97
:1010E0000900F550926F09000900F550E96E0900FA
:1010F000F550EA6E090009000900F550936F0900E8
:10110000F550946F09000900F6CF97F0F7CF98F0EB
:10111000F8CF99F090C0F6FF91C0F7FF92C0F8FFAA
:101120000001935302E1945307E00900F550EE6E7D
:101130009307F8E29407F9D797C0F6FF98C0F7FF36
:1011400099C0F8FF00019507000E965BBFD712000B
:101150009268936A3F0E946E816A816A826A120075
:10116000C29AC298F30EC2140009C26EC280C16A4C
:10117000C06A9A6AE00E9A1402099A6E996A010E80
:10118000B86E0F0E916E906AB7801200020E7F6EDD
:10119000800E7E6E770E6F6E6E6A7A6A7B681200C2
:1011A000F26A9D6AA06AA36AF28C9D8C9E9C9F9CA9
:1011B000F168D80EF06EF28AF194D08EF28EF28C35
:1011C0001200D58ED59CD59AD596F80ED514020965
:1011D000D56E1200BDDFC4DFD9DFF3DFD0EF08F03A
:1011E00008C012F008500D02F4CF07F0F3CF06F05C
:1011F00009500E02F4CF09F0F3CF08F00D02F350BE
:101200000726F4500822E86A092212500E02F35011
:0C1210000726F4500822E86A0922000CAE
:04121C00056A046AF1
:10122000100EE76ED89008360936043605360D5094
:10123000045C0E50055805E30D50045E0E50055A2F
:08124000082AE72EF0D7120086
:08124800000EF36E00EE00F051
:10125000030E01D81200EA6002D0EE6AFCD7F35008
:08126000E9601200EE6AFCD700
:0812680012EE00F022EE00F08E
:10127000F86A019C59EC08F003EC00F037EC06F03A
:04128000FBD7120086
:0C1284000100020004000800100020001F
:10129000000000000000000000000000000000004E
:0812A000000000000000000046
:0612A80000000000000040
:0212AE0000003E
:0C12B00000000000000000000000000032
:020000040030CA
:0100010002FC
:010002000DF0
:010003003EBE
:010004001CDF
:010005009D5D
:010006008178
:010008000FE8
:01000900C036
:01000A000FE6
:01000B00E014
:01000C000FE4
:01000D0040B2
:00000001FF
