:020000040000FA
:0600000006EF09F01200FA
:020006001200E6
:06000800EFEF05F012000D
:02000E001000E0
:06001000000000000000EA
:020016000000E8
:0600180047EF06F01200A4
:02001E000500DB
:1000200030120000C60100000C0000002812000081
:10003000DC0100000800000016000000F0010000D4
:100040000200000010000000E401000006000000B3
:0C0050000E000000EE01000002000000A5
:04005C00D9CFE6FF13
:10006000E1CFD9FF040EE126DE6ADD6ADECF14F0AF
:10007000DDCF15F0030E145C000E15586AE2020E77
:10008000DB6A030EDB6A020EDBCF14F0030EDBCF5C
:1000900015F0100E145C000E155846E2DECF14F079
:1000A000DDCF15F0050ED89014361536E806FBE1C5
:1000B000000E1426010E1522020E086E096ADBCF0F
:1000C0000DF0030EDBCF0EF0C2EC08F01450062446
:1000D000E96E15500720EA6EEE6AED6ADECF14F085
:1000E000DDCF15F0050ED89014361536E806FBE185
:1000F000600E1426010E1522020E086E096ADBCF6F
:100100000DF0030EDBCF0EF0C2EC08F01450062405
:10011000E96E15500720EA6EEE6AED6A020EDB2AE0
:10012000030EB1E3DB2AAFD7DECFE9FFDDCFEAFF75
:10013000010ED890E936EA36E806FBE1C00EE92662
:10014000010EEA22EE6AED6ADF2A010E8FE3DB2A56
:100150008DD7DE6ADD6ADECF14F0DDCF15F0030E39
:10016000145C000E155815E2DECFE9FFDDCFEAFF83
:10017000050ED890E936EA36E806FBE1000EE926DE
:10018000010EEA22010EEE6EED6ADF2AE4E3DB2ABD
:10019000E2D7FD0EDBCFEEF1FE0EDBCFEFF1040E6A
:1001A000E15C02E2E16AE552E16EE552E7CFD9FF98
:1001B0001200D9CFE6FFE1CFD9FFFD0EDBCF16F05D
:1001C000FE0EDBCF17F0030E165C000E175802E38D
:1001D000000E01D0010E146E156A14BE156814C00D
:1001E000F3FF15C0F4FFE552E7CFD9FF1200D9CFD6
:1001F000E6FFE1CFD9FFFD0EDBCFE6FFFE0EDBCF42
:10020000E6FFD7DFE552E552F350F41001E195D057
:10021000D950FB0FE96EFF0EDA20EA6EEE50ED10BA
:1002200046E0FD0EDBCFE9FFFE0EDBCFEAFF010E5D
:10023000D890E936EA36E806FBE1C00EE926010E61
:10024000EA22000ED880EE54000EED541CE3EEC1FD
:1002500014F0EFC115F01406000E155AFD0EDBCF99
:10026000E9FFFE0EDBCFEAFF010ED890E936EA3651
:10027000E806FBE1C00EE926010EEA2214C0EEFFFB
:1002800015C0EDFF5AD0FD0EDBCFE9FFFE0EDBCF30
:10029000EAFF010ED890E936EA36E806FBE1C00E27
:1002A000E926010EEA22EE06000EEF5A46D0FD0EB8
:1002B000DBCFE9FFFE0EDBCFEAFF010ED890E93677
:1002C000EA36E806FBE1C00EE926010EEA22EECF8F
:1002D00014F0EFCF15F0EEC116F0EFC117F01606CF
:1002E000000E175A1650145C1750155813E3FD0EE4
:1002F000DBCFE9FFFE0EDBCFEAFF010ED890E93637
:10030000EA36E806FBE1C00EE926010EEA22EE6AB3
:10031000ED6A13D0FD0EDBCFE9FFFE0EDBCFEAFF67
:10032000010ED890E936EA36E806FBE1C00EE92670
:10033000010EEA22EE2A000EEF22E552E7CFD9FFA6
:100340001200D9CFE6FFE1CFD9FFFD0EDBCFE6FFEC
:10035000FE0EDBCFE6FF2DDFE552E552F350F41041
:1003600012E0FD0EDBCFE9FFFE0EDBCFEAFF010E50
:10037000D890E936EA36E806FBE1C00EE926010E20
:10038000EA22EE6AED6AE552E7CFD9FF1200D9CF33
:10039000E6FFE1CFD9FFFD0EDBCFE6FFFE0EDBCFA0
:1003A000E6FF07DFE552E552F350F41003E1F36A8C
:1003B000F46A38D0FD0EDBCF16F0FE0EDBCF17F05F
:1003C000050ED89016361736E806FBE1000E162605
:1003D000010E1722FD0EDBCFE9FFFE0EDBCFEAFF99
:1003E000010ED890E936EA36E806FBE1C00EE926B0
:1003F000010EEA22EECF18F0EFCF19F0010ED890DF
:1004000018361936E806FBE116501824E96E175025
:100410001920EA6EEECF14F0EFCF15F014C0F3FF01
:1004200015C0F4FFE552E7CFD9FF1200D9CFE6FFA0
:10043000E1CFD9FFFD0EDBCFE6FFFE0EDBCFE6FFFF
:10044000B8DEE552E552F350F41036E0FD0EDBCF96
:1004500014F0FE0EDBCF15F0050ED89014361536CD
:10046000E806FBE1000E1426010E1522FD0EDBCF7F
:10047000E9FFFE0EDBCFEAFF010ED890E936EA363F
:10048000E806FBE1C00EE926010EEA22EECF16F0E7
:10049000EFCF17F0010ED89016361736E806FBE1BD
:1004A00014501624E96E15501720EA6EFB0EDBCFB0
:1004B000EEFFFC0EDBCFEDFFE552E7CFD9FF1200D8
:1004C000D9CFE6FFE1CFD9FFFD0EDBCFE6FFFE0E71
:1004D000DBCFE6FF6EDEE552E552F350F41003E1A8
:1004E000F36AF46A38D0FD0EDBCF16F0FE0EDBCFD8
:1004F00017F0050ED89016361736E806FBE1600EA9
:100500001626010E1722FD0EDBCFE9FFFE0EDBCF14
:10051000EAFF010ED890E936EA36E806FBE1C00EA4
:10052000E926010EEA22EECF18F0EFCF19F0010E06
:10053000D89018361936E806FBE116501824E96EF3
:1005400017501920EA6EEECF14F0EFCF15F014C05B
:10055000F3FF15C0F4FFE552E7CFD9FF1200D9CF62
:10056000E6FFE1CFD9FFFD0EDBCFE6FFFE0EDBCFCE
:10057000E6FF1FDEE552E552F350F41036E0FD0EC3
:10058000DBCF14F0FE0EDBCF15F0050ED89014363D
:100590001536E806FBE1600E1426010E1522FD0E4D
:1005A000DBCFE9FFFE0EDBCFEAFF010ED890E93684
:1005B000EA36E806FBE1C00EE926010EEA22EECF9C
:1005C00016F0EFCF17F0010ED89016361736E80662
:1005D000FBE114501624E96E15501720EA6EFB0E4D
:1005E000DBCFEEFFFC0EDBCFEDFFE552E7CFD9FF0F
:0205F0001200F7
:0E05F200D9CFE6FFE1CFD9FF020EE126D950A6
:10060000FD0FE96EFF0EDA20EA6EEE50ED1059E1B3
:10061000000EE66EE66AD2EC07F0E552E552F3CF43
:1006200014F0F4CF15F0F350F41006E0000EE66E6F
:10063000E66AA1EC01F016D0020EE66EE66AD2EC94
:1006400007F0E552E552F3CF14F0F4CF15F0F3CFF5
:10065000E6FFF4CFE6FF000EE66EE66AF7EC00F088
:10066000E552E552E552E552000EE66EE66A60ECB0
:1006700002F0E552E552F3CF14F0F4CF15F0F3CFCA
:10068000E6FFF4CFE6FF000EE66EE66AC7EC01F087
:10069000E552E552F3CF16F0F4CF17F0F3CFE6FFB3
:1006A000F4CFE6FF000EE66EE66A8DEC07F0186EFA
:1006B000060EE15E1850640E0101E06FE16BDC6B29
:1006C000DD6BD950FD0FE96EFF0EDA20EA6E010EE8
:1006D000EE1801E097D0ED5001E094D0010EE66EE7
:1006E000E66AD2EC07F0E552E552F3CF14F0F4CF0E
:1006F00015F0F350F4100DE0010EE66EE66AA1EC81
:1007000001F0E552E552020EE66EE66AA1EC01F058
:1007100023D0030EE66EE66AD2EC07F0E552E5520E
:10072000F3CFDEFFF4CFDDFFDECFE6FFDDCFE6FF68
:10073000010EE66EE66AF7EC00F0E552E552E5528E
:10074000E552DECFE6FFDDCFE6FF020EE66EE66A9B
:10075000F7EC00F0E552E552E552E552010EE66E87
:10076000E66A60EC02F0E552E552F3CF14F0F4CF04
:1007700015F0F3CFE6FFF4CFE6FF010EE66EE66A72
:10078000C7EC01F0E552E552F3CF16F0F4CF17F0C5
:10079000F3CFE6FFF4CFE6FF010EE66EE66A8DECDE
:1007A00007F0186E060EE15E1850020EE66EE66A5D
:1007B00060EC02F0E552E552F3CF14F0F4CF15F0FF
:1007C000F3CFE6FFF4CFE6FF020EE66EE66AC7EC73
:1007D00001F0E552E552F3CF16F0F4CF17F0F3CF66
:1007E000E6FFF4CFE6FF020EE66EE66A8DEC07F058
:1007F000186E060EE15E18500101DE6BDF6B640EB1
:10080000E26FE36B020EE15C02E2E16AE552E16E47
:10081000E552E7CFD9FF12000101DC51DD1128E1DB
:10082000000ED880E055000EE15504E2E007000E0E
:10083000E15B1ED0000EE66EE66A60EC02F0E55267
:10084000E552F3CF14F0F4CF15F0F3CFE6FFF4CF79
:10085000E6FF000EE66EE66AE66EE66A8DEC07F0ED
:10086000166E060EE15E1650010E0101DC6FDD6BA7
:10087000DE51DF1144E1000ED880E255000EE35551
:1008800004E2E207000EE35B1200010EE66EE66A88
:1008900060EC02F0E552E552F3CF14F0F4CF15F01E
:1008A000F3CFE6FFF4CFE6FF000EE66EE66A010E38
:1008B000E66EE66A8DEC07F0166E060EE15E1650E7
:1008C000020EE66EE66A60EC02F0E552E552F3CF06
:1008D00014F0F4CF15F0F3CFE6FFF4CFE6FF000EEF
:1008E000E66EE66A020EE66EE66A8DEC07F0166EBC
:1008F000060EE15E1650010E0101DE6FDF6B120085
:10090000D9CFE6FFE1CFD9FFFD0EDBCF08F0FE0E19
:10091000DBCF09F0010E081801E1095009E0085089
:100920000FE109500DE18250100B06E0010E04D0DA
:100930008250200B01E0010E156AF36E15C0F4FF22
:08094000E552E7CFD9FF1200D8
:08094800786A796A766A776A21
:10095000746A756A12003F0E786E7968766E7768F1
:10096000746E756812000101F40ECA6F010ECB6F30
:1009700012000101000ED880CA55000ECB5503E2CB
:10098000CA07000ECB5B000ED880CA55000ECB55AF
:1009900002E3000E01D0010E146E156A14BE156834
:1009A00014C0F3FF15C0F4FF12000101CC51CD11AA
:1009B0000CE0CC51CD1102E0000E01D0010ECC6F45
:1009C000CD6B800B01E0CD69CEDF12000101CC516F
:1009D000CD113EE1CC51CD1102E0000E01D0010E4F
:1009E000CC6FCD6B800B01E0CD69BDDF0101C82B61
:1009F000000EC923030E0D6E0E6AC8C108F0C9C1EE
:100A000009F0E0EC08F004C0C8F105C0C9F1020E1D
:100A10000101041801E1C95114E0010EC81901E1F6
:100A2000C95107E0C85101E1C95101E01200000EAF
:100A300001D0630EE66EE66A29EC07F0E552E55256
:100A40001200030EE66EE66A29EC07F0E552E55265
:100A500012000101CE51CF110CE0CE51CF1102E0B6
:100A6000000E01D0010ECE6FCF6B800B01E0CF697D
:100A70007ADF12000101CE51CF111BE1CE51CF110F
:100A800002E0000E01D0010ECE6FCF6B800B01E0B3
:100A9000CF6969DF0101C62B000EC723C76B030EA8
:100AA000C617C6C1E6FFC7C1E6FF48EC07F0E5522E
:100AB000E55212000101D051D1110CE0D051D111F9
:100AC00002E0000E01D0010ED06FD16B800B01E06F
:100AD000D16949DF120047DF0101000ED880C655F9
:100AE000000EC7553BE2020EC85D000EC95916E262
:100AF000C8C1E6FFC9C1E6FFC6C114F0C7C115F001
:100B00001406000E155A14C0E6FF15C0E6FF16ECD9
:100B100002F0E552E552E552E5521200040EE66E8F
:100B2000E66AD2EC07F0E552E552F3CF14F0F4CFC9
:100B300015F0F3CFE6FFF4CFE6FFC6C116F0C7C14C
:100B400017F01606000E175A16C0E6FF17C0E6FF8C
:100B5000AFEC02F0E552E552E552E552120082A0F8
:100B60000AD007DFF3CF14F0F4CF15F0F350F410F0
:100B70000BE11BDF09D0FDDEF3CF14F0F4CF15F04D
:100B8000F350F41001E122DF82A20AD0F2DEF3CFAB
:100B900014F0F4CF15F0F350F4100BE15ADF09D044
:100BA000E8DEF3CF14F0F4CF15F0F350F41001E1C8
:100BB00061DF82A40AD0DDDEF3CF14F0F4CF15F0AC
:100BC000F350F4100BE15AEF05F0D3DEF3CF14F03D
:0E0BD000F4CF15F0F350F41001E17DDF1200B8
:020BDE00DACF6C
:100BE000E4FFE2CFDAFFE9CFE4FFEACFE4FFF6CF9C
:100BF000E4FFF7CFE4FFF5CFE4FFF3CFE4FFF4CF5A
:100C0000E4FFFACFE4FF00EE00F0140EE80403E383
:100C1000EECFE4FFFBD700EE14F0060EE80403E38A
:100C2000EECFE4FFFBD7E652F0A003D0F090000E29
:100C300004D0F0A208D0F092010EE66EE66AF9EC5C
:100C400002F0E552E552E55200EE19F0060EE80416
:100C500003E3E5CFEDFFFBD700EE13F0140EE8043D
:100C600003E3E5CFEDFFFBD7E5CFFAFFE5CFF4FFD8
:100C7000E5CFF3FFE5CFF5FFE5CFF7FFE5CFF6FFD3
:100C8000E5CFEAFFE5CFE9FFE5CFDAFF1100DACFE4
:100C9000E4FFE2CFDAFFE9CFE4FFEACFE4FFF6CFEB
:100CA000E4FFF7CFE4FFF5CFE4FFF3CFE4FFF4CFA9
:100CB000E4FFFACFE4FF00EE00F0140EE80403E3D3
:100CC000EECFE4FFFBD700EE14F0060EE80403E3DA
:100CD000EECFE4FFFBD7E652F2A404D0F294FDEC91
:100CE00006F00FD09EAC0DD09E9CC450E66EE66A16
:100CF000040EE66EE66A12EC08F0E552E552E552A3
:100D0000E552E55200EE19F0060EE80403E3E5CFE4
:100D1000EDFFFBD700EE13F0140EE80403E3E5CF7C
:100D2000EDFFFBD7E5CFFAFFE5CFF4FFE5CFF3FF0B
:100D3000E5CFF5FFE5CFF7FFE5CFF6FFE5CFEAFF1B
:100D4000E5CFE9FFE5CFDAFF1100D9CFE6FFE1CF2C
:100D5000D9FF040EE126010EDE6EDD6ADECF14F04F
:100D6000DDCF15F0FD0EDBCF16F0FE0EDBCF17F05A
:100D700017501518E8AE02D0153404D01450165C84
:100D8000155017581DE3020EDB6A030EDB6A020ED4
:100D9000DBCF14F0030EDBCF15F0D890155004E62E
:100DA000100E145C270E155806E2020EDB2A030E05
:100DB000EEE3DB2AECD7DF2A010ED0E3DB2ACED725
:100DC000040EE15C02E2E16AE552E16EE552E7CF32
:100DD000D9FF1200BCEC08F0100EE66EE66A2EECAD
:100DE00000F0E552E552FAEC06F00CEC04F0AFEC42
:040DF00005F0FBD738
:0C0DF400829C829E12000101100ED8802B
:100E0000E455000EE55502E2828C08D0E451E85D1D
:100E1000E551E95902E2827C01D0829C100ED88013
:100E2000E655000EE75502E2828E08D0E651E85DF5
:100E3000E751E95902E2827E01D0829EE82B000E42
:100E4000E923E96B0F0EE81712000101E86BE96B6B
:100E50001200D9CFE6FFE1CFD9FF020E086E096A72
:100E6000FD0EDBCF0DF0FE0EDBCF0EF0C2EC08F076
:100E700006C0E4F107C0E5F10101100ED880065468
:100E8000000E075401E3E1DFE552E7CFD9FF12007E
:100E9000D9CFE6FFE1CFD9FF020E086E096AFD0E39
:100EA000DBCF0DF0FE0EDBCF0EF0C2EC08F006C07B
:100EB000E6F107C0E7F10101100ED8800654000EDC
:0E0EC000075401E3C2DFE552E7CFD9FF12006D
:020ECE00D9CF7A
:100ED000E6FFE1CFD9FFFD0EDBCFEAF1FE0EDBCF5F
:100EE000EBF1EAC1ECF1020E0101D890EC37E80613
:100EF000FCE1FC0E0101EC17ED6B060E0F0B05E09B
:100F0000D890EB33EA33E806FBE1030E0101EA1760
:100F1000EB6BE552E7CFD9FF1200D9CFE6FFE1CF67
:100F2000D9FFF90EDBCFE6FFFA0EDBCFE6FFCFDF0E
:100F3000E552E552FD0EDBCF08F0FE0EDBCF09F0E7
:100F4000020E081801E109501FE0010E081801E126
:100F500009500FE0085022E1095020E1FB0EDB5060
:100F6000E8B08180E8A08190EAC178FFECC179FF08
:100F700015D0FB0EDB50E8B08184E8A08194EAC173
:100F800076FFECC177FF0AD0FB0EDB50E8B0818A18
:100F9000E8A0819AEAC174FFECC175FFE552E7CF82
:040FA000D9FF120063
:0C0FA400D9CFE6FFE1CFD9FFFD0EDBCF77
:100FB00008F0FE0EDBCF09F0040E081801E109501D
:100FC00029E0030E081801E109501BE0020E081881
:100FD00001E1095011E0010E081801E1095008E093
:100FE00008501CE109501AE18050020B0EE007D0B6
:100FF0008050040B0AE003D08050080B06E0010E7D
:1010000004D08050100B01E0010E156AF36E15C07C
:10101000F4FF04D0F0C1F3FFF1C1F4FFE552E7CFD4
:10102000D9FF1200D9CFE6FFE1CFD9FFFD0EDBCF0C
:1010300008F0FE0EDBCF09F0040E081808E1095095
:1010400006E1FB0EDBCFF0F1FC0EDBCFF1F1E55258
:06105000E7CFD9FF1200FA
:0A1056001E0EF66E000EF76E000E7F
:10106000F86E01010900F550D76F0900F550D86FEF
:1010700003E1D76701D03DD00900F550D26F0900D8
:10108000F550D36F0900F550D46F09000900F550F1
:10109000E96E0900F550EA6E090009000900F550F3
:1010A000D56F0900F550D66F09000900F6CFD9F1C8
:1010B000F7CFDAF1F8CFDBF1D2C1F6FFD3C1F7FFFA
:1010C000D4C1F8FF0101D55302E1D65307E009006E
:1010D000F550EE6ED507F8E2D607F9D7D9C1F6FF7D
:1010E000DAC1F7FFDBC1F8FF0101D707000ED85BBB
:0410F000BFD7120054
:0C10F4009268936A3F0E946E816A816AD4
:10110000826A1200C29AC298F30EC2140009C26E1B
:10111000C280C16AC06A9A6AE00E9A1402099A6E85
:10112000996A010EB86E0F0E916E906AB780120028
:10113000020E7F6E800E7E6E770E6F6E6E6A7A6A1A
:101140007B681200F26A9D6AA06AA36AF28C9D8C89
:101150009E9C9F9CF168D80EF06EF28AF194D08E1E
:10116000F28EF28C1200D58ED59CD59AD596F80EBB
:10117000D5140209D56E1200BDDFC4DFD9DFF3DF5D
:04118000A2EF08F0E2
:0C11840008C012F008500D02F4CF07F074
:10119000F3CF06F009500E02F4CF09F0F3CF08F0B8
:1011A0000D02F3500726F4500822E86A0922125073
:1011B0000E02F3500726F4500822E86A0922000CB8
:1011C000056A046A100EE76ED890083609360436B0
:1011D00005360D50045C0E50055805E30D50045EB5
:0C11E0000E50055A082AE72EF0D7120026
:0411EC00000EF36E90
:1011F00000EE00F0030E01D81200EA6002D0EE6AA1
:0C120000FCD7F350E9601200EE6AFCD746
:04120C0012EE00F0EE
:1012100022EE00F0F86A019C2BEC08F003EC00F0E1
:08122000EAEC06F0FBD7120016
:081228000000000000000000BE
:0C123000000000000000000000000000B2
:020000040030CA
:0100010002FC
:010002000DF0
:010003003EBE
:010004001CDF
:010005009D5D
:010006008178
:010008000FE8
:01000900C036
:01000A000FE6
:01000B00E014
:01000C000FE4
:01000D0040B2
:00000001FF
