:020000040000FA
:06000000F6EF05F012000E
:020006001200E6
:0600080076EF05F0120086
:02000E000000F0
:03001000000000ED
:03001300000000EA
:0100160000E9
:0800180092EF05F01200D9CFB0
:10002000E6FFE1CFD9FF020EE126DF6A010EDB6AAF
:100030002AEC05F0AAEC00F030EC05F00001895143
:1000400005E0896BE66A6DEC02F0E55200018A5129
:1000500006E08A6B010EE66E6DEC02F0E5520001DF
:100060008D5103E08D6B33EC05F000018B5109E0FD
:100070008B6B8CC0E6FF040EE66ED7EC05F0E55204
:10008000E552E8EC03F0DF5018E1020EE66EB0EC4A
:1000900005F0E552000919E0010EE66E12EC06F0DB
:1000A000E552020EE66EB0EC05F0E55200090DE0F7
:1000B000010EDF6EF9EC01F008D0020EE66EB0EC36
:1000C00005F0E552000901E1DF6A010EDB5019E19C
:1000D000030EE66EB0EC05F0E5520009AFE0010E4C
:1000E000E66E12EC06F0E552030EE66EB0EC05F09B
:1000F000E5520009A3E0DE52010EDD6E11EC02F0C4
:100100009DD7030EE66EB0EC05F0E552000996E1CE
:06011000010EDB6A93D72B
:0A01160005004C0C00007C00000006
:10012000070000001600000096000000010000001B
:100130001300000091000000030000000E0000000A
:1001400089000000050000003A0C0000600000007B
:040150001200000099
:0C015400D9CFE6FFE1CFD9FF020EE12673
:100160000001010E606F020E616F040E626F636F1B
:10017000030E646F010E656FDE6ADD6ADECF10F07C
:10018000DDCF11F0D890115004E6060E105C000E81
:10019000115817E2DECFE9FFDDCFEAFF660EE92650
:1001A000000EEA22EF6ADECFE9FFDDCFEAFF6C0E38
:1001B000E926000EEA22EF6ADF2A010EDFE3DB2ADE
:1001C000DDD7020EE15C02E2E16AE552E16EE55242
:1001D000E7CFD9FF1200D9CFE6FFE1CFD9FF060E56
:1001E000F36EFE0EDBCFF4FFF350F45C3AE2FE0E4A
:1001F000DB50EA6A660FE96E000EEA22EF2AFE0E75
:10020000DB50EA6A660FE96E000EEA22EFCF10F0CB
:10021000FE0EDB50EA6A600FE96E000EEA22EF5034
:10022000105C1FE3FE0EDB50EA6A660FE96E000EFB
:10023000EA22EF6AFE0EDB50EA6A6C0FE96E000EEE
:10024000EA22EF5002E0000E01D0010EE66EFE0E33
:10025000DB50EA6A6C0FE96E000EEA22E552E750C5
:10026000EF6EE552E7CFD9FF1200D9CFE6FFE1CF1D
:10027000D9FF060EF36EFE0EDBCFF4FFF350F45CF5
:1002800010E2FE0EDB50EA6A6C0FE96E000EEA2205
:10029000EF6AFE0EDB50EA6A660FE96E000EEA2294
:1002A000EF6AE552E7CFD9FF1200D9CFE6FFE1CFE1
:1002B000D9FF060EF36EFE0EDBCFF4FFF350F45CB5
:1002C00002E3000E08D0FE0EDB50EA6A6C0FE96E06
:1002D000000EEA22EF50E552E7CFD9FF1200D9CF46
:1002E000E6FFE1CFD9FF060EF36EFE0EDBCFF4FF83
:1002F000F350F45C01E379D0FD0EDB501F0809E3F5
:10030000FE0EDB50EA6A600FE96E000EEA22010E73
:100310006BD0FD0EDB503F0809E3FE0EDB50EA6AAE
:10032000600FE96E000EEA22020E5ED0FD0EDB5079
:100330005F0809E3FE0EDB50EA6A600FE96E000E0B
:10034000EA22030E51D0FD0EDB507F0809E3FE0EBA
:10035000DB50EA6A600FE96E000EEA22040E44D018
:10036000FD0EDB50106E116A113404E210509F082C
:10037000000E115409E3FE0EDB50EA6A600FE96ECD
:10038000000EEA22080E30D0FD0EDB50106E116A0E
:10039000113404E21050BF08000E115409E3FE0EA0
:1003A000DB50EA6A600FE96E000EEA220C0E1CD0E8
:1003B000FD0EDB50106E116A113404E21050DF089C
:1003C000000E115409E3FE0EDB50EA6A600FE96E7D
:1003D000000EEA22100E08D0FE0EDB50EA6A600F13
:1003E000E96E000EEA22200EEF6EE552E7CFD9FF4C
:1003F0001200D9CFE6FFE1CFD9FFE65260C0DFFFA0
:1004000065C060F064C065F063C064F062C063F012
:1004100061C062F0DFCF61F0E552E552E7CFD9FF6E
:100420001200D9CFE6FFE1CFD9FF030EE12660C06D
:10043000DFFF010E61C0DBFF020E62C0DBFF63C0A5
:1004400060F064C061F065C062F0DFCF63F0010E60
:10045000DBCF64F0020EDBCF65F0030EE15C02E25D
:0E046000E16AE552E16EE552E7CFD9FF1200E6
:02046E00D9CFE4
:10047000E6FFE1CFD9FFFE0EDB50010809E3FE0ED7
:10048000DB50EA6A8E0FE96E000EEA22010EEF6E73
:10049000E552E7CFD9FF1200D9CFE6FFE1CFD9FF70
:1004A000FE0EDB50010802E2000E13D0FE0EDB5000
:1004B000EA6A8E0FE96E000EEA22EFCF90F0FE0E90
:1004C000DB50EA6A8E0FE96E000EEA22EF6A000145
:1004D0009051E552E7CFD9FF1200D9CFE6FFE1CF27
:1004E000D9FFFE0EDB5058E1E66AB0EC05F0E552AC
:1004F000000919E0010EE66E12EC06F0E552E66A1C
:10050000B0EC05F0E55200090EE0E66A35EC01F0CA
:10051000E552010EE66E35EC01F0E552020EE66E94
:1005200035EC01F00DD0E66AEBEC00F0E552010E7F
:10053000E66EEBEC00F0E552020EE66EEBEC00F03E
:10054000E552020EE66E55EC01F0E552000902E0BC
:10055000106801D0106A116A1050E66E010EE66E46
:1005600055EC01F0E552000902E0126801D0126A70
:10057000136A1250E66EE66A55EC01F0E552000986
:1005800002E0146801D0146A156A1450E66E73EC28
:1005900004F0E552E552E552FE0EDB0448E1010E9F
:1005A000E66EB0EC05F0E55200091BE0010EE66EC8
:1005B00012EC06F0E552010EE66EB0EC05F0E552E5
:1005C00000090FE0030EE66E35EC01F0E552040E73
:1005D000E66E35EC01F0E552050EE66E35EC01F005
:1005E0000ED0030EE66EEBEC00F0E552040EE66E64
:1005F000EBEC00F0E552050EE66EEBEC00F0E55298
:10060000050EE66E55EC01F0E552E66E040EE66E60
:1006100055EC01F0E552E66E030EE66E55EC01F086
:10062000E552E66E59EC04F0E552E552E552E5522A
:10063000E7CFD9FF1200D9CFE6FFE1CFD9FFFE0EF9
:10064000DB50010A07E0010A09E18250100B06E0C5
:10065000010E04D08250200B01E0010EE552E7CFDD
:04066000D9FF1200AC
:0C066400786A796A766A776A746A756A47
:1006700012003F0E786E7968766E7768746E7568D2
:1006800012000001F40E7E6F010E7F6F1200000158
:10069000000ED8807E55000E7F5503E27E07000EC7
:1006A0007F5B000ED8807E55000E7F5501E3000C65
:1006B000010C0001805107E0805102E0000E01D0E2
:1006C000010E806FDEDF12000001805125E18051B4
:1006D00002E0000E01D0010E806FD3DF00017D2B00
:1006E0007D51030B7D6FE850030A11E0010A09E018
:1006F000030A05E0010A01E01200E66A04D0630E75
:1007000001D0010EE66E54EC05F0E5521200060E23
:10071000E66E54EC05F0E55212000001815107E04D
:10072000815102E0000E01D0010E816FAADF12009C
:100730000001815117E1815102E0000E01D0010E4C
:10074000816F9FDF00017C2B070E106E0C6E7CC04A
:1007500007F004EC06F003C07CF003C0E6FF65EC94
:1007600005F0E55212000001825107E0825102E0DB
:10077000000E01D0010E826F84DF12000001825151
:1007800026E1825102E0000E01D0010E826F79DF76
:1007900000017D51030A0CE0010A08E0030A04E0AD
:1007A0007C51000814E206D0F9EF01F011EF02F0DD
:1007B000AAEF00F0040EE66EB0EC05F0E552E66E2E
:1007C00000017C05E66E6FEC01F0E552E552120087
:1007D00082A005D05CDF000906E16BDF04D057DFA3
:1007E000000901E171DF82A205D051DF000906E1B5
:1007F00094DF04D04CDF000901E19ADF82A405D028
:1008000046DF000906E1B3EF03F041DF000901E133
:04081000B5DF12003E
:0C081400D9CFE6FFE1CFD9FFFE0EDBCF0D
:1008200094F094C095F00001040E9503F3CF95F079
:10083000FC0E95179445E846030B946F030E94172E
:10084000E552E7CFD9FF1200D9CFE6FFE1CFD9FFBC
:10085000FC0EDBCFE6FFDEDFE552FE0EDB50020AC8
:100860001AE0030A0DE0010A20E1FD0EDB50E8B0BA
:100870008180E8A0819094C078FF95C079FF15D061
:10088000FD0EDB50E8B08184E8A0819494C076FF2F
:1008900095C077FF0AD0FD0EDB50E8B0818AE8A052
:1008A000819A94C074FF95C075FFE552E7CFD9FFD8
:1008B0001200D9CFE6FFE1CFD9FFFE0EDB50E8B042
:1008C0008180E8A08190FD0EDB50E8B08184E8A033
:1008D0008194FC0EDB50E8B0818AE8A0819AE55251
:1008E000E7CFD9FF1200D9CFE6FFE1CFD9FFFE0E47
:1008F000DBCFE6FF8FDFE55294C078FF95C079FF2C
:10090000FD0EDBCFE6FF86DFE55294C076FF95C093
:1009100077FFFC0EDBCFE6FF7DDFE55294C074FF6E
:0C09200095C075FFE552E7CFD9FF12002B
:04092C00160EF66E3F
:10093000010EF76E000EF86E00010900F550776F9A
:100940000900F550786F03E1776701D03DD00900C9
:10095000F550726F0900F550736F0900F550746F10
:1009600009000900F550E96E0900F550EA6E09002A
:1009700009000900F550756F0900F550766F090000
:100980000900F6CF79F0F7CF7AF0F8CF7BF072C09C
:10099000F6FF73C0F7FF74C0F8FF0001755302E162
:1009A000765307E00900F550EE6E7507F8E276071A
:1009B000F9D779C0F6FF7AC0F7FF7BC0F8FF0001D6
:0A09C0007707000E785BBFD7120026
:0609CA009268936A3F0EE3
:1009D000946E816A816A826A1200C29AC298F30E8A
:1009E000C2140009C26EC280C16AC06A9A6AE00E6F
:1009F0009A1402099A6E996A010EB86E916890680D
:100A0000E70EB7141809B76EB7801200020E7F6E9A
:100A1000800E7E6E770E6F6E6E6A7A6A7B68120049
:100A2000F26A9D6AA06AA36AF28C9D8C9E9C9F9C30
:100A3000F168D80EF06EF28AF194D08EF28EF28CBC
:100A40001200D58ED59CD59AD596F80ED5140209EC
:100A5000D56E1200BADFC1DFD9DFF3DF10EF05F08A
:100A6000829C829E120000019151100802E2828C49
:100A700007D09351D880915502E2827C01D0829CAC
:100A80009251100802E2828E07D09351D88092557D
:100A900002E2827E01D0829E932B93510F0B936FC3
:100AA00012000001936B1200D9CFE6FFE1CFD9FF0E
:100AB000FE0EDB50E8240001916FE850100801E3BE
:100AC000F0DFE552E7CFD9FF1200D9CFE6FFE1CF43
:100AD000D9FFFE0EDB50E8240001926FE8501008A9
:0C0AE00001E3DFDFE552E7CFD9FF120091
:040AEC00DACFE4FF7A
:100AF000E652E8CF83F0D8CF84F0E0CF85F0F0A0C5
:100B000005D0F0900001010E896F06D0F0A204D04C
:100B1000F0920001010E8A6F84C0D8FFE552E5CF44
:100B2000DAFF1100DACFE4FFE652E8CF86F0D8CF43
:100B300087F0E0CF88F09EAC07D09E9CC4CF8CF0AD
:100B40000001010E8B6F06D0F2A404D0F2940001D4
:100B5000010E8D6F87C0D8FFE552E5CFDAFF110097
:100B6000D9CFE6FFE1CFD9FFFE0EDB50040A19E032
:100B7000070A12E0010A0CE0030A06E0010A13E189
:100B80008050020B10E00BD08050040B0CE007D01B
:100B90008050080B08E003D08050100B04E0010ED9
:100BA00002D000019651E552E7CFD9FF1200D9CF0C
:100BB000E6FFE1CFD9FFFE0EDB50040A03E1FD0E94
:0C0BC000DBCF96F0E552E7CFD9FF120022
:040BCC00000EF36EB6
:100BD00000EE00F0030E01D81200EA6002D0EE6AC7
:0C0BE000FCD7F350E9601200EE6AFCD76D
:040BEC0012EE00F015
:100BF00022EE00F0F86A0F9C96EC04F003EC00F093
:080C00000FEC00F0FBD712001D
:080C0800036A080EE76ED890A4
:100C1000073603360C50035C02E3036E072AE72E07
:040C2000F7D71200F0
:0C0C2400FF0EE350E84E1200000000D06C
:0A0C300000D000D0E82EFAD7120021
:060C3A00010204040301A5
:0C0C4000000000000000000000000000A8
:040C4C0000000000A4
:030C5000000000A1
:020000040030CA
:0100010002FC
:010002000DF0
:010003003EBE
:010004001CDF
:010005009D5D
:010006008178
:010008000FE8
:01000900C036
:01000A000FE6
:01000B00E014
:01000C000FE4
:01000D0040B2
:00000001FF
